:020000040800F2
:100000000050002009300008B50B0008B70B0008AD
:10001000B90B0008BB0B0008BD0B00080000000076
:10002000000000000000000000000000611F000848
:10003000BF0B00080000000001200008C10B0008F1
:10004000513000085130000851300008513000088C
:10005000513000085130000851300008513000087C
:10006000513000085130000851300008513000086C
:10007000513000085130000851300008513000085C
:10008000513000085130000851300008513000084C
:10009000513000085130000851300008513000083C
:1000A000513000085130000851300008513000082C
:1000B0005130000851300008C90B000851300008C9
:1000C000513000085130000851300008513000080C
:1000D00051300008513000085130000851300008FC
:1000E0005130000851300008513000080000000075
:1000F0000000000000000000000000000000000000
:0C01000000000000000000005FF808F1A3
:10011000034613F8012B002AFBD1181A0138704747
:1001200010B5054C227832B9044B13B10448AFF333
:1001300000800123237010BD70200020000000000B
:10014000F038000808B5034B1BB103490348AFF36F
:10015000008008BD0000000074200020F038000876
:10016000F0B482B000263546A0E0002B58D0012B19
:1001700010D1CE680EE0694FBB4251D048D9684FCC
:10018000BB424DD007F58037BB4249D0A7F5801759
:10019000BB4245D0FF2A57D88446FF2A57D8AC0027
:1001A000DCF800300F27A74023EA070306FA04F41F
:1001B0002343CCF800304B6813F0805F75D0594B67
:1001C0009C6944F001049C619B6903F00103019365
:1001D000019BAC08A71C544B53F8273005F00307CC
:1001E000BF004FF00F0C0CFA07FC23EA0C0C4F4B2E
:1001F000984232D003F58063984270D003F5806353
:1002000098426ED003F58063984224D0042325E001
:10021000A7F58017BB4203D007F58037BB42B9D1A1
:100220008B687BB1012B08D044610826B2E7CE6809
:100230000836AFE7CE680C36ACE704610826A9E7BC
:100240000026A7E70426A5E700F1040CA5E7A5F121
:100250000804A400A4E7032300E00023BB4043EA12
:100260000C030234304F47F824304B6813F4803FBE
:1002700039D02F4C2368134323604B6813F4003F9D
:1002800037D02B4C6368134363604B6813F4801FB3
:1002900035D0274CA3681343A3604B6813F4001FA9
:1002A00033D0234CE3681A43E26001350F2D32D876
:1002B0000124AC400A6822409442F6D14B68122BCC
:1002C000B8D03FF658AF022BB1D07FF64EAF032B1C
:1002D000B6D0112B7FF45EAFCE6804365AE7012307
:1002E000BCE70223BAE7124C236823EA0203236027
:1002F000C3E70F4C636823EA02036360C5E70C4C55
:10030000A36823EA0203A360C7E7094CE36823EA72
:100310000202E260C9E702B0F0BC704700002110A1
:1003200000003110001002400000014000080140B0
:10033000000401400AB1016170470904016170477E
:10034000074AD36823F4E0631B041B0C000200F48B
:10035000E060184340F0BF6040F40030D060704768
:1003600000ED00E030B4174BDB68C3F30223C3F1A8
:100370000704042C28BF04241D1D062D01D9033BAE
:1003800000E000234FF0FF3505FA04F421EA0401F0
:10039000994005FA03F322EA03031943002809DB15
:1003A0000901C9B200F1604000F5614080F8001316
:1003B00030BC704700F00F000901C9B2024B19545C
:1003C000F6E700BF00ED00E014ED00E000F01F02D2
:1003D000400901239340024A42F82030704700BF91
:1003E00000E100E00138B0F1807F0AD2064B58608E
:1003F000064AF02182F823100020986007221A6034
:1004000070470120704700BF10E000E000ED00E001
:10041000042805D0054A136823F0040313607047CD
:10042000024A136843F004031360704710E000E0D1
:10043000842801D0033070470020704708B500F0D1
:10044000B3FE002008BDF0B585B00F4644680568CE
:100450000669B0F90800FFF7EBFF03AB01930090CA
:100460003B46B2B22946204600F06CFE012802D17C
:10047000039805B0F0BD0020FBE708B5034600B9BE
:100480000123184600F0E0FF002008BD08B501F088
:100490008FF8012800D108BD01F0D4FDFBE7000072
:1004A0000F4B1A6842F001021A6059680D4A0A405F
:1004B0005A601A6822F0847222F480321A601A6834
:1004C00022F480221A605A6822F4FE025A604FF425
:1004D0001F029A60044B4FF000629A60704700BFA1
:1004E000001002400000FFF800ED00E008B5074AE8
:1004F000136843F0100313600320FFF721FF00206F
:1005000000F0B0FC01F016FE002008BD0020024003
:10051000034A1168034B1B780B441360704700BFFC
:10052000E42D002004000020014B1868704700BF34
:10053000E42D002082B0084B1B68084AA2FB03236D
:100540005B0A00FB03F0019000BF019B5A1E019261
:10055000002BF9D102B0704700000020D34D62108B
:1005600070B582B00446036813F0010F2CD0AB4B7A
:100570005B6803F00C03042B1DD0A84B5B6803F0F1
:100580000C03082B12D06368B3F5803F41D0002BD9
:1005900055D103F1804303F504331A6822F4803205
:1005A0001A601A6822F480221A6037E09B4B5B685D
:1005B00013F4803FE7D0994B1B6813F4003F03D03E
:1005C0006368002B00F0AE81236813F0020F75D032
:1005D000924B5B6813F00C0F5FD0904B5B6803F09D
:1005E0000C03082B54D02369002B00F089808C4B1E
:1005F00001221A60FFF798FF0546884B1B6813F02D
:10060000020F74D1FFF790FF401B0228F5D9032099
:100610008DE1824A136843F480331360636843B307
:10062000FFF782FF05467D4B1B6813F4003FCBD1DB
:10063000FFF77AFF401B6428F5D9032077E1B3F573
:10064000A02F09D0754B1A6822F480321A601A68FC
:1006500022F480221A60E1E703F18043A3F53C33E2
:100660001A6842F480221A601A6842F480321A60D2
:10067000D4E7FFF759FF0546684B1B6813F4003FAA
:10068000A2D0FFF751FF401B6428F5D903204EE1AB
:10069000624B5B6813F4803FA5D1604B1B6813F07D
:1006A000020F03D02369012B40F03E815B4A13689F
:1006B00023F0F803616943EAC1031360236813F070
:1006C000080F32D0A369002B5BD0564B01221A6071
:1006D000FFF72AFF0546514B5B6A13F0020F21D149
:1006E000FFF722FF401B0228F5D903201FE14B4AE8
:1006F000136823F0F803616943EAC1031360DDE77F
:10070000474B00221A60FFF70FFF0546434B1B685B
:1007100013F0020FD2D0FFF707FF401B0228F5D9D4
:10072000032004E10120FFF705FF236813F0040F05
:1007300000F09880394BDB6913F0805F33D1374B81
:10074000DA6942F08052DA61DB6903F08053019389
:10075000019B0125344B1B6813F4807F25D0E3688F
:10076000012B36D0002B4CD103F1804303F5043329
:100770001A6A22F001021A621A6A22F004021A624C
:100780002CE0284B00221A60FFF7CEFE0546234BD3
:100790005B6A13F0020FC8D0FFF7C6FE401B0228A9
:1007A000F5D90320C3E00025D4E71F4A136843F4BA
:1007B00080731360FFF7B8FE06461B4B1B6813F4EB
:1007C000807FCCD1FFF7B0FE801B6428F5D90320D1
:1007D000ADE0124A136A43F001031362E3687BB38E
:1007E000FFF7A2FE06460D4B1B6A13F0020F38D12D
:1007F000FFF79AFE801B41F288339842F3D9032019
:1008000095E0052B12D0054B1A6A22F001021A62FC
:100810001A6A22F004021A62E0E700BF00100240E8
:10082000000042428004424200700040424B1A6A7B
:1008300042F004021A621A6A42F001021A62CDE71B
:10084000FFF772FE06463C4B1B6A13F0020F08D0FE
:10085000FFF76AFE801B41F288339842F3D90320E8
:1008600065E0E5B9E369002B60D0334A526802F0D5
:100870000C02082A5DD0022B17D0304B00221A60E0
:10088000FFF752FE04462C4B1B6813F0007F47D045
:10089000FFF74AFE001B0228F5D9032047E0264A4D
:1008A000D36923F08053D361DCE7244B00221A6024
:1008B000FFF73AFE0546204B1B6813F0007F06D079
:1008C000FFF732FE401B0228F5D903202FE0236AF0
:1008D000B3F5803F1AD018494B6823F47413226A89
:1008E000606A024313434B60144B01221A60FFF706
:1008F0001BFE0446104B1B6813F0007F0ED1FFF760
:1009000013FE001B0228F5D9032010E00A4A5368A1
:1009100023F40033A1680B435360DCE7002006E0BA
:10092000002004E0012002E0012000E0002002B0ED
:1009300070BD0120FBE700BF001002406000424292
:1009400010B487B0164C94E80F000DF1180C0CE9A8
:100950000F00238AADF80430124B5B6803F00C02E1
:10096000082A03D0104807B010BC7047C3F3834275
:10097000624412F8102C13F4803F0CD0094B5B68D2
:10098000C3F34043634413F8143C074800FB02F0F0
:10099000B0FBF3F0E7E7054800FB02F0E3E700BF38
:1009A000083900080010024000127A0000093D00DA
:1009B0005A4B1B6803F007038B420BD2574A13684C
:1009C00023F007030B431360136803F007038B4204
:1009D00040F09D8070B5036813F0020F06D0504AB6
:1009E000536823F0F0038468234353600D460446A4
:1009F000036813F0010F52D04368012B23D0022B60
:100A000028D0474A126812F0020F00F08280444951
:100A10004A6822F0030213434B60FFF785FD064648
:100A20006368012B1DD0022B2AD03D4B5B6813F06D
:100A30000C0F34D0FFF778FD801B41F288339842C9
:100A4000F3D9032062E0364A126812F4003FDED187
:100A500001205BE0324A126812F0007FD7D10120FA
:100A600054E02F4B5B6803F00C03042B17D0FFF707
:100A70005BFD801B41F288339842F2D9032045E0A8
:100A8000274B5B6803F00C03082B08D0FFF74CFDE5
:100A9000801B41F288339842F2D9032036E01F4B85
:100AA0001B6803F00703AB420AD91C4A136823F002
:100AB00007032B431360136803F00703AB422AD1EB
:100AC000236813F0040F06D0154A536823F4E0633B
:100AD000E1680B435360236813F0080F07D0104AF6
:100AE000536823F46053216943EAC1035360FFF75D
:100AF00027FF0B4B5B68C3F303130A4AD35CD84050
:100B0000094B1860002000F0ADF9002070BD0120F5
:100B100070470120FAE70120F8E700BF00200240FB
:100B2000001002403039000800000020014B186816
:100B3000704700BF0000002008B5FFF7F7FF044B27
:100B40005B68C3F30223034AD35CD84008BD00BFEF
:100B5000001002404039000808B5FFF7E7FF044BDA
:100B60005B68C3F3C223034AD35CD84008BD00BF0F
:100B700000100240403900080F2303600B4B5A68F5
:100B800002F0030242605A6802F0F00282605A6882
:100B900002F4E062C2605B68DB0803F4E0630361B7
:100BA000034B1B6803F007030B6070470010024003
:100BB000002002407047FEE7FEE7FEE7FEE77047D1
:100BC00008B5FFF763FC08BD08B5024800F06CFEED
:100BD00008BD00BFE82D002090F83C30012B22D04A
:100BE00030B4012280F83C20022380F83D300468B4
:100BF000636823F070036360046863680D682B43C7
:100C000063600468A36823F08003A3600468A3689A
:100C100049680B43A36080F83D20002380F83C30F6
:100C2000184630BC7047022070477047704700007C
:100C3000124A12F0070F07D0D11D21F00701C1F5AC
:100C4000406313440A4601E04FF440630C480260DD
:100C5000002141601344083B23F007030948036067
:100C600059601960991A51601360074B1960074B5E
:100C70001960074B4FF000421A6070479020002027
:100C80009C2C00208C200020982C0020942C0020EC
:100C9000902C002010B4134A00E01A4613688342D7
:100CA000FBD351685418844209D041684418A342C8
:100CB0000AD00360904200D0106010BC70474068BA
:100CC000014451601046F0E7074C2468A34206D067
:100CD0005B681944416013681B680360EAE70460BD
:100CE000E8E700BF9C2C00208C20002070B5044653
:100CF00000F098FA3A4B1B68BBB13A4B1B681C4298
:100D000056D1ACB1083414F0070F11D024F0070409
:100D1000083404F007035BB14FF0500383F31188EC
:100D2000BFF36F8FBFF34F8FFEE7FFF781FFE4E75D
:100D3000002C3FD02C4B1B68A3424AD32B4B1D6881
:100D400001E02B4615466A68A24202D22A68002AB0
:100D5000F7D1234A1268AA423DD01E6808362A6895
:100D60001A606B681B1B102B10D9281910F0070F85
:100D700008D04FF0500383F31188BFF36F8FBFF398
:100D80004F8FFEE743606C60FFF784FF6A68164987
:100D90000B689B1A0B60164909688B4201D21449F3
:100DA0000B60104B1B6813436B6000232B6002E049
:100DB000002600E0002600F0C9FA16F0070F0CD05C
:100DC0004FF0500383F31188BFF36F8FBFF34F8F42
:100DD000FEE70026EFE70026EDE7304670BD00BFD6
:100DE0008C200020902C0020942C00209C2C002093
:100DF000982C002080B338B50446A0F1080550F8BF
:100E0000042C164909680A4208D14FF0500383F3B5
:100E10001188BFF36F8FBFF34F8FFEE750F8080CB8
:100E200040B14FF0500383F31188BFF36F8FBFF3CE
:100E30004F8FFEE722EA010244F8042C00F0F2F999
:100E400054F8041C064A13680B4413602846FFF745
:100E500021FF00F07BFA38BD704700BF902C0020C6
:100E6000942C002000B589B0002201461E20FFF717
:100E700079FA1E20FFF7AAFA154BDA6942F004024C
:100E8000DA61DB6903F004030193019B02A903A863
:100E9000FFF772FEFFF750FE43000E48A0FB03234E
:100EA0009B0C013B0C480D4A026040F2E732C260E5
:100EB000436000230361836000F0EEFD18B1012060
:100EC00009B05DF804FB044800F0BEFCF8E700BF81
:100ED0000010024083DE1B43E82D00200008004084
:100EE000084B1B681B6823B9074B4FF0FF321A6091
:100EF0007047044B1B68DB68DB685A68024B1A605A
:100F0000704700BFA82C0020802D002010B504469B
:100F1000006BFFF76FFF2046FFF76CFF10BD2DE958
:100F2000F04780469946089D099F0A9C266B02F16E
:100F30008042013A06EB820626F0070600230F2BBB
:100F400006D8CA5CE01880F834200AB10133F6E70D
:100F5000002384F84330062D00D90625E562656438
:100F60004FF0000AC4F848A0201D00F07CFF04F1F7
:100F7000180000F078FF2461C5F10705A5616462DF
:100F8000C4F84CA084F850A04A464146304600F0D0
:100F9000CFFF206007B13C60BDE8F08738B5002482
:100FA000062C08D804EB840293000E48184400F085
:100FB0004FFF0134F4E70C4D284600F049FF0B4C7D
:100FC000204600F045FF0A4800F042FF094800F0C3
:100FD0003FFF094800F03CFF084B1D60084B1C60B8
:100FE00038BD00BFB02C0020542D0020682D0020FB
:100FF000882D0020B42D0020A02D0020A82C00203A
:10100000AC2C002010B5044600F0BCFF204A136849
:10101000013313601F4B1B685BB11F4B1B686BB91F
:101020001C4B1B68DA6AE36A9A4207D8194B1C60AA
:1010300004E0184B1C601368012B26D0174A136874
:1010400001331360E36A01229A401549086802439C
:101050000A6003EB83039A00211D1248104400F03C
:1010600005FF00F0B1FF0C4B1B686BB1094B1B680F
:10107000DA6AE36A9A4207D20B4B4FF080521A6049
:10108000BFF34F8FBFF36F8F10BDFFF787FFD5E71B
:101090003C2D0020A42C00209C2D00204C2D002055
:1010A000502D0020B02C002004ED00E070B5044667
:1010B0000E461D4B1D681D4B1868043000F0FBFEEA
:1010C00050B91A4B1B68DA6A012303FA02F2184975
:1010D0000B6823EA02030B60B4F1FF3F0DD02C44F0
:1010E000124B1B685C60A54210D9124B18680F4B5D
:1010F0001968043100F0C5FE70BD002EEFD00B4B17
:10110000196804310C4800F0B1FEF5E70B4B186884
:10111000064B1968043100F0B4FE094B1B68A3426A
:10112000EAD9074B1C60E7E7C82D0020A42C00205B
:10113000502D0020AC2C0020A02D0020A82C002039
:10114000802D00202DE9F04385B0074688461446DF
:1011500099469000FFF7CAFDE8B106465420FFF714
:10116000C5FD054698B10663D5B1002303930295EA
:101170000D9B01930C9B00934B46224641463846FB
:10118000FFF7CDFE2846FFF73DFF012005E0304682
:10119000FFF730FEE8E74FF0FF3005B0BDE8F08321
:1011A0004FF0FF30F9E7000000B583B0174B019313
:1011B00000230093802216491648FFF7C3FF012839
:1011C00005D0B0F1FF3F17D003B05DF804FB4FF03E
:1011D000500383F31188BFF36F8FBFF34F8F0E4B14
:1011E0004FF0FF321A600D4B01221A600C4B0022A7
:1011F0001A6000F053FFE7E74FF0500383F31188C4
:10120000BFF36F8FBFF34F8FFEE700BF7C2D002031
:1012100048390008F1140008802D00209C2D002082
:10122000C82D0020024A136801331360704700BFC5
:10123000482D0020F8B53A4B1B68002B64D1394B80
:101240001D6801351D60C5B9374B1B681B6843B16C
:101250004FF0500383F31188BFF36F8FBFF34F8FAD
:10126000FEE7314A1168314B186810601960304A46
:10127000136801331360FFF733FE2E4B1B68AB423C
:1012800038D900242C4B1B68DB6A03EB83039A00DC
:101290002A4B9B58012B3CD901243AE00124224BD4
:1012A0001B681B6843B3204B1B68DB68DE687368F0
:1012B0009D4226D3371D384600F0FDFDB36A1BB1B1
:1012C00006F1180000F0F7FDF36A01229A401C496C
:1012D000086802430A6003EB83039A003946174803
:1012E000104400F0C3FDF26A134B1B68DB6A9A429C
:1012F000D4D2D4E70024D2E70E4B4FF0FF321A606D
:10130000C0E70C4A1360BDE70E4A1368013313604F
:1013100000240D4B1B6803B101242046F8BD00BF1B
:10132000482D0020C82D0020A82C0020AC2C002027
:10133000842D0020802D0020A42C0020B02C002023
:10134000502D0020442D0020CC2D002038B5354BE9
:101350001B6843B94FF0500383F31188BFF36F8FBD
:10136000BFF34F8FFEE700F00DFE2E4B1A68013AD7
:101370001A601B68002B4DD12B4B1B680BB9002446
:1013800049E00024294B1B681BB3284BDB68DC6851
:1013900004F1180000F08FFD251D284600F08BFD9C
:1013A000E36A01229A402249086802430A6003EB7B
:1013B00083039A0029461F48104400F057FDE26A53
:1013C0001D4B1B68DB6A9A42DCD31C4B01221A605E
:1013D000D8E70CB1FFF784FD194B1C6874B9174BA3
:1013E0001B68E3B1174B4FF080521A60BFF34F8F69
:1013F000BFF36F8F01240EE0013C07D0FFF71AFF07
:101400000028F9D00D4B01221A60F5E70C4B0022A1
:101410001A60E4E7002400F0D7FD204638BD002420
:10142000F9E700BF482D00203C2D0020882D00202A
:10143000502D0020B02C0020A42C0020CC2D00200A
:10144000442D002004ED00E010B5A8B104460F4B78
:101450001B6843B14FF0500383F31188BFF36F8FC4
:10146000BFF34F8FFEE7FFF7DDFE00212046FFF7B9
:101470001DFEFFF76BFF38B9054B4FF080521A6025
:10148000BFF34F8FBFF36F8F10BD00BF482D0020FB
:1014900004ED00E0134B1B681BB310B502E0114BC9
:1014A0001B68EBB1FFF7BEFE0F4B1C68FFF74EFF4A
:1014B000002CF4D000F066FD0B4BDB68DC68201DCF
:1014C00000F0F9FC094A1368013B1360054A1368F0
:1014D000013B136000F078FD2046FFF717FDDEE7C3
:1014E00010BD7047402D0020B42D00203C2D002061
:1014F00008B5FFF7CFFF064B1B68012BF9D9054B49
:101500004FF080521A60BFF34F8FBFF36F8FF0E739
:10151000B02C002004ED00E0204B1B681BB1204BD9
:1015200001221A6070471E4B00221A601D4B1B6877
:10153000B3FA83F3DBB2C3F11F0303EB83018A0029
:1015400019498A5842B94FF0500383F31188BFF309
:101550006F8FBFF34F8FFEE710B413489A00D41873
:10156000A10001444C6864684C601A449100083141
:10157000084484420AD003EB83039A000A4B1344C5
:101580005B68DA68094B1A6010BC7047606803EB4F
:1015900083029100044A0A445060ECE7482D002081
:1015A000CC2D0020502D0020B02C0020A42C002099
:1015B000054B1B6833B1054B1B680BB1002070470E
:1015C00002207047012070479C2D0020482D0020EC
:1015D00070B4036A23F001030362036A46688269F8
:1015E00022F073020C6844EA020523F002028B68C1
:1015F00013430D4CA04209D00B4CA0420DD04660C5
:1016000085614A684263036270BC704723F0080337
:10161000CA68134323F00403EEE726F440764A69D0
:1016200032438E691643EAE7002C014030B4036A66
:1016300023F480730362036A4568C26922F073026F
:101640000C68224323F400738C6843EA04230F4C94
:10165000A04209D00D4CA0420ED04560C2614A683C
:10166000C263036230BC704723F40063CC6843EA72
:10167000042323F48063EDE725F440554C6945EAE3
:1016800004158C6945EA0415E7E700BF002C01400A
:1016900030B4036A23F480530362036A4468C26966
:1016A00022F4E6420D6842EA052223F400538D68D5
:1016B00043EA0533074DA84206D04460C2614A6838
:1016C0000264036230BC704724F480444D6944EAEC
:1016D0008514F2E7002C014010B4036A046A24F078
:1016E00001040462846924F0F00444EA021223F045
:1016F0000A030B438261036210BC704730B4046A72
:1017000024F0100404628469056A24F4407444EAF5
:10171000022222F470421B039BB21A4325F0A0055B
:10172000090101F0A00129438261016230BC7047C8
:1017300010B4036A23F0100303628469036A24F47B
:10174000704444EA023223F0A00343EA01138261A9
:10175000036210BC704730B4046A24F480740462DD
:10176000C469056A24F00304224322F0F0021B013D
:10177000DBB21A4325F42065090201F420612943F4
:10178000C261016230BC704730B4046A24F48054F2
:101790000462C469056A24F4407444EA022222F413
:1017A00070421B039BB21A4325F40055090301F450
:1017B00000512943C261016230BC704710B4846893
:1017C00024F47F4442EA03230B432343836010BC89
:1017D000704710B50468A26822F070024B6813438A
:1017E00023F007030A681343A3604B68502B1ED0F5
:1017F0000AD9602B21D0702B05D10B698A68C96882
:101800000068FFF7DBFF10BD402BFCD103681C6AAA
:101810001A6A22F001021A620268936923F0F00347
:10182000096943EA0113936103681C62EBE70A69E3
:1018300089680068FFF750FFE5E70A698968006872
:10184000FFF776FFDFE770470268D36843F00103D4
:10185000D3600268136843F00103136000207047EF
:1018600038B590F83C30012B18D00446012580F89B
:101870003C50022380F83D30FFF7ABFF2268D3686D
:1018800023F04003D3602268D36823F48043D360FD
:1018900084F83D50002084F83C0038BD0220FCE76D
:1018A000704770477047704710B5044603681A695F
:1018B00012F0020F11D0DA6812F0020F0DD06FF0A3
:1018C00002021A610123037703689B6913F0030F77
:1018D00070D0FFF7E6FF0023237723681A6912F020
:1018E000040F12D0DA6812F0040F0ED06FF0040269
:1018F0001A610223237723689B6913F4407F5FD02A
:101900002046FFF7CEFF0023237723681A6912F0E1
:10191000080F12D0DA6812F0080F0ED06FF008022C
:101920001A61042323772368DB6913F0030F4ED079
:101930002046FFF7B6FF0023237723681A6912F0C9
:10194000100F12D0DA6812F0100F0ED06FF01002E4
:101950001A61082323772368DB6913F4407F3DD0A5
:101960002046FFF79EFF0023237723681A6912F0B1
:10197000010F03D0DA6812F0010F36D123681A691B
:1019800012F0800F03D0DA6812F0800F34D1236890
:101990001A6912F0400F03D0DA6812F0400F32D10A
:1019A00023681A6912F0200F03D0DA6812F0200FB2
:1019B00030D110BDFFF774FF2046FFF773FF8AE7B1
:1019C0002046FFF76DFF2046FFF76CFF9BE72046A0
:1019D000FFF766FF2046FFF765FFACE72046FFF7FD
:1019E0005FFF2046FFF75EFFBDE76FF001021A615F
:1019F000204600F00DFEC1E76FF080021A6120461C
:101A0000FFF714F9C3E76FF040021A612046FFF7B1
:101A10004AFFC5E76FF020021A612046FFF705F97B
:101A2000C7E7000003681B4A90420AD0B0F1804F1C
:101A300007D0A2F59432904203D002F58062904222
:101A400003D123F070034A681343124A90420AD02C
:101A5000B0F1804F07D0A2F59432904203D002F546
:101A60008062904203D123F44073CA68134323F089
:101A700080034A69134303608B68C3620B68836207
:101A8000044B984202D00123436170470B69036302
:101A9000F9E700BF002C0140B0B110B5044690F842
:101AA0003D3063B1022384F83D30214651F8040BE8
:101AB000FFF7B8FF012384F83D30002010BD80F807
:101AC0003C30FFF7C0FEEDE701207047B0B110B524
:101AD000044690F83D3063B1022384F83D3021463E
:101AE00051F8040BFFF79EFF012384F83D300020DE
:101AF00010BD80F83C3000F09BFBEDE70120704703
:101B0000B0B110B5044690F83D3063B1022384F8BB
:101B10003D30214651F8040BFFF784FF012384F880
:101B20003D30002010BD80F83C3000F095FBEDE723
:101B30000120704730B4036A23F010030362036A84
:101B40004468826922F4E6420D6842EA052223F0E5
:101B500020038D6843EA05130E4DA84209D00D4DB0
:101B6000A8420ED0446082614A688263036230BC3E
:101B7000704723F08003CD6843EA051323F0400348
:101B8000EDE724F440644D6944EA85048D6944EA34
:101B90008504E7E7002C014038B590F83C30012B74
:101BA00066D00D460446012380F83C30022380F8BD
:101BB0003D300C2A1AD8DFE802F00719191920194C
:101BC00019193419191947000068FFF701FD226837
:101BD000936943F0080393612268936923F0040337
:101BE00093612268936929690B439361012384F807
:101BF0003D30002084F83C0038BD0068FFF79AFFB4
:101C00002268936943F4006393612268936923F423
:101C10008063936122689369296943EA0123936190
:101C2000E4E70068FFF702FD2268D36943F0080388
:101C3000D3612268D36923F00403D3612268D36996
:101C400029690B43D361D1E70068FFF721FD2268C2
:101C5000D36943F40063D3612268D36923F48063BA
:101C6000D3612268D369296943EA0123D361BDE7BF
:101C70000220C1E770B4056A25F001050562846998
:101C8000056A114EB0420DD0B0F1804F0AD0A6F5D2
:101C90009436B04206D006F58066B04202D044F0D9
:101CA000010202E024F00304224322F0F0021B01AF
:101CB000DBB2134325F00A0501F00A0129438361D1
:101CC000016270BC704700BF002C014038B590F82D
:101CD0003C30012B58D00D460446012380F83C309F
:101CE000022380F83D30DAB1042A2AD0082A3AD0FB
:101CF000CB684A6809680068FFF746FD2268D36927
:101D000023F44063D3612268D369A96843EA0123BD
:101D1000D361012384F83D30002084F83C0038BDB5
:101D2000CB684A6809680068FFF7A4FF22689369D6
:101D300023F00C03936122689369A9680B439361B4
:101D4000E7E7CB684A6809680068FFF7D7FC2268B4
:101D5000936923F44063936122689369A96843EA15
:101D600001239361D5E7CB684A6809680068FFF7EB
:101D7000F2FC2268D36923F00C03D3612268D36993
:101D8000A9680B43D361C4E70220C8E710B401235C
:101D900003FA01F4036A23EA04030362036A8A4034
:101DA0001343036210BC704710B50446012200685B
:101DB000FFF7ECFF2368074A934206D022681368B6
:101DC00043F001031360002010BD5A6C42F400423E
:101DD0005A64F3E7002C014010B504460122006864
:101DE000FFF7D4FF2268136843F00103136000205B
:101DF00010BD10B504460C290DD8DFE801F0070C22
:101E00000C0C170C0C0C1D0C0C0C23000268D36876
:101E100043F00203D36001222068FFF7B7FF226876
:101E2000136843F001031360002010BD0268D368FB
:101E300043F00403D360EEE70268D36843F008037D
:101E4000D360E8E70268D36843F01003D360E2E7A9
:101E500000F1080343604FF0FF328260C36003610A
:101E600000230360704700230361704743684B60A1
:101E70009A688A6051609960086103680133036061
:101E8000704730B40D68B5F1FF3F02D000F1080291
:101E900002E0026904E01A4653681C68AC42FAD9B1
:101EA00053684B6099608A60516008610368013330
:101EB000036030BC70470369416882688A6041688A
:101EC00051605A68824205D00022026118680138C8
:101ED0001860704782685A60F6E700000B4B1B6879
:101EE000B3F1FF3F08D04FF0500383F31188BFF3E5
:101EF0006F8FBFF34F8FFEE74FF0500383F31188CE
:101F0000BFF36F8FBFF34F8FFEE700BF08000020C5
:101F100006480068006880F3088862B661B6BFF3BF
:101F20004F8FBFF36F8F00DF00BF000008ED00E0B0
:101F30004FF0807340F8043C21F0010140F8081C88
:101F4000034B40F80C3C40F8202C4038704700BF51
:101F5000DD1E00080000000000000000000000007E
:101F6000074B19680868B0E8F00F80F30988BFF3E1
:101F70006F8F4FF0000080F311884EF00D0E704708
:101F8000A42C00204FF0500383F31188BFF36F8F10
:101F9000BFF34F8F0A4A136801331360012B00D03F
:101FA0007047084B1B6813F0FF0FF9D04FF0500338
:101FB00083F31188BFF36F8FBFF34F8FFEE700BF2E
:101FC0000800002004ED00E0094B1B6843B94FF006
:101FD000500383F31188BFF36F8FBFF34F8FFEE77A
:101FE000013B034A13600BB983F31188704700BFAC
:101FF00008000020000000000000000000000000B9
:10200000EFF30980BFF36F8F0D4B1A6820E9F00FD3
:1020100010602DE908404FF0500080F31188FFF761
:102020007BFA4FF0000080F31188BDE80840196882
:102030000868B0E8F00F80F30988BFF36F8F70472E
:10204000A42C002008B54FF0500383F31188BFF390
:102050006F8FBFF34F8FFFF7EDF818B1034B4FF0C1
:1020600080521A60002383F3118808BD04ED00E05C
:10207000064B1B68064AA2FB03239B09013B054A4A
:102080001360054B07221A60704700BF0000002054
:10209000D34D621014E000E010E000E000B583B022
:1020A0001F4B1A78D2B20192FF221A701B78DBB252
:1020B0008DF803309DF8033003F05003194A137074
:1020C000194B07221A609DF8033013F0800F0AD0D5
:1020D000154A1368013B13609DF803305B00DBB2C7
:1020E0008DF80330EFE7104A13681B0203F4E06336
:1020F0001360019BDBB20A4A13700C4B1A6842F45E
:1021000070021A601A6842F070421A60FFF7B0FF5E
:10211000074B00221A60FFF7FBFEFFF7DFFE00BF50
:1021200000E400E0D02D0020D42D002020ED00E0C0
:102130000800002000B583B0204B9A6942F00102EC
:102140009A619B6903F001030193019B0320FEF751
:10215000F7F8002211466FF00B00FEF703F900229A
:1021600011466FF00A00FEF7FDF8002211466FF0ED
:102170000900FEF7F7F8002211466FF00400FEF7A1
:10218000F1F8002211466FF00300FEF7EBF8002291
:102190000F216FF00100FEF7E5F800220F214FF04C
:1021A000FF30FEF7DFF8064A536823F0E06343F0A0
:1021B0008063536003B05DF804FB00BF0010024071
:1021C000000001400268174B9A4200D0704710B5DA
:1021D00086B003F560439A6942F480529A619B6924
:1021E00003F480530193019B28230293022303935A
:1021F000032305930C4C02A92046FDF7B1FF1023E1
:10220000029300230393049302A92046FDF7A8FF3D
:10221000064A536843F0E06343F00103536006B09D
:1022200010BD00BF00300140000C01400000014023
:102230000368B3F1804F00D0704782B003F50433D8
:10224000DA6942F00102DA61DB6903F0010301930C
:10225000019B02B07047000002680E4B9A4200D00A
:10226000704700B587B003F50333DA6942F0020224
:10227000DA61DB6903F002030193019B40230293BF
:1022800000230393049302A90348FDF769FF07B0F5
:102290005DF804FB00040040000801400368B3F14E
:1022A000804F00D0704700B585B00723009302230C
:1022B0000193039369460348FDF752FF05B05DF8AB
:1022C00004FB00BF000801400268144B9A4200D092
:1022D000704710B586B003F558439A6942F48042BE
:1022E0009A619B6903F480430193019B4FF400734F
:1022F00002930223039303230593094C02A920466A
:10230000FDF72EFF4FF480630293002303930493A1
:1023100002A92046FDF724FF06B010BD0038014099
:1023200000080140F0B589B01F4B9A6942F02002C5
:102330009A619A6902F020020192019A9A6942F028
:1023400004029A619A6902F004020292029A9A695E
:1023500042F008029A619B6903F008030393039B10
:10236000124F00224FF480513846FDF7E3FF104C26
:1023700000224FF400412046FDF7DCFF4FF480536C
:102380000493012605960225079504A93846FDF712
:10239000E7FE4FF4004304930596079504A92046F1
:1023A000FDF7DEFE09B0F0BD00100240000C014058
:1023B000000801402DE9F8430546214B1B689C6B42
:1023C000C4EBC404C4EB04341E4BA3FB0434E40B81
:1023D000A4F24154C4F30B04204600F0EFFD00FBCF
:1023E00005F0DFF8689089FB0023C717C7EBA31738
:1023F0004FEAE50808F480584744BFB2204600F091
:10240000E3FD00FB05F089FB0023C617C6EBA3160E
:102410004644B6B2204600F0E7FD00FB05F089FB1C
:102420000039C017C0EBA910404480B2064B1B68AE
:10243000FF005F63F6009E63C000D863BDE8F883C9
:10244000302E002001800080082F0020D34D621024
:1024500010B584B0000240F4804000B20143ADF8F2
:102460000E100D4C00224FF400412046FDF762FF94
:10247000FF230093012303AA0DF10E01074800F08A
:1024800040FC01224FF400412046FDF753FFBDF808
:102490000C0004B010BD00BF00080140B02E0020A9
:1024A00070B584B00002ADF80E00184C00224FF455
:1024B00000412046FDF73EFF154DFF260096012303
:1024C00003AA0DF10E01284600F01BFC01224FF477
:1024D00000412046FDF72EFF0022ADF80E204FF4FC
:1024E00000412046FDF726FF0096012303AA0DF1C7
:1024F0000E01284600F005FC01224FF40041204661
:10250000FDF718FFBDF80C0004B070BD00080140D5
:10251000B02E0020F0B59FB04FF480561A960127D8
:102520001B9703231D93334D1AA92846FDF718FE68
:10253000314B324A1A60324C04212046FFF759FCD5
:1025400000212046FFF748FC2E4C00212046FFF7D3
:102550002BFC04212046FFF727FC08212046FFF72B
:1025600023FC0020FFF726FF3A4631462846FDF7B8
:10257000E1FE6420FDF781FFC0211E20FFF768FF08
:10258000C0211E20FFF764FF46211F20FFF760FFD8
:102590002020FFF785FF00240BE001224FF480513B
:1025A0001448FDF7C7FE07E001344FF47A70FFF7D7
:1025B00001FFB4F5FA6FF0D040F6FF739C42F3D1FF
:1025C00000224FF480510B48FDF7B4FE2020FFF7A6
:1025D00067FF02460C4901A800F06EFD01A8FDF757
:1025E00097FD4FF0FF3382B201A9084800F0BAFA14
:1025F0000024D9E7000C01402C2E00205C39000893
:10260000302E0020082F002064390008702E002092
:1026100008B50268034B9A4200D008BDFDF778FF69
:10262000FBE700BF00080040FEE7000000B58DB0EA
:1026300029482A4B03600023436083604FF6FF72F2
:10264000C26003618361FFF75BFA00282BD104238A
:10265000079350230893002309930A930B9307A928
:102660001D48FFF7FDF818BB0022039201230493D5
:102670000592069203A91848FFF728FBE8B9022340
:1026800003930493042203A91348FFF71FFBC8B95F
:1026900000230193029301A90F48FEF79DFAB0B9F8
:1026A0000DB05DF804FB40F23F110D48FFF7BCFF91
:1026B00040F249110A48FFF7B7FF4FF4A9710848E3
:1026C000FFF7B2FF40F259110548FFF7ADFF4FF495
:1026D000B0710348FFF7A8FF302E0020000400402F
:1026E0005039000808B51048104B03604FF482734E
:1026F0004360002383604FF40062C26002220261E3
:10270000012242614FF4007282612022C2610362A1
:10271000436283620A23C36200F00FFC00B908BD64
:10272000F8210348FFF780FFB02E00200030014061
:102730005039000808B50B480B4B03604FF4E133E8
:10274000436000238360C36003610C2242618361A4
:10275000C36100F0D8F900B908BD40F27311034815
:10276000FFF762FF702E002000380140503900084A
:1027700000B58BB02B484FF08043036000234360CB
:10278000836047F6FF72C26003618361FFF79EF9C1
:1027900070BB00230893099308A92248FEF71CFA8E
:1027A00058BB7023019347F23053029302230393E3
:1027B0000022059201A91B48FFF7EEF910BB4FF468
:1027C0007A73029304220DEB02011648FFF7E4F935
:1027D000E8B94EF660230293082201A91148FFF7D9
:1027E000DBF9C8B90F48FFF759FD0BB05DF804FBE2
:1027F0004FF486710C48FFF717FF40F213110A4897
:10280000FFF712FF4FF48E710748FFF70DFF4FF4EB
:1028100091710548FFF708FF4FF494710248FFF7E4
:1028200003FF00BF082F00205039000800B591B009
:10283000012206924FF480330793002108910A92F7
:1028400002220D920E934FF4E0130F9306A8FDF7AA
:1028500087FE08BB0F2301930221029100230393FB
:102860004FF480620492059301A8FEF7A1F8B8B96D
:10287000FEF75CF90C4BA3FB00308009FDF7B2FDBD
:102880000420FDF7C5FD00220F214FF0FF30FDF7BA
:1028900069FD11B05DF804FBC8210448FFF7C4FED0
:1028A000D6210248FFF7C0FED34D62105039000810
:1028B00000B587B0FDF71AFEFFF7B8FFFFF732FD4E
:1028C000FFF7B4FEFFF70EFFFFF734FFFFF750FFEF
:1028D00001AC074D0FCD0FC42B682360002101A868
:1028E000FDF7B1FD034B1860FDF7A8FDFEE700BF43
:1028F0001C390008282E00202DE9F84305460268FF
:10290000136923F44053C1680B4313618368026960
:102910001343426913430168CA6822F4B05222F09B
:102920000C021343CB600268536923F4407381693E
:102930000B4353610268594B9A4257D0FEF7FCF89B
:1029400000EB800000EB80006C68A400B0FBF4F4A6
:10295000534FA7FB043464092601FEF7EDF800EBA2
:10296000800000EB80006C68A400B0FBF4F9FEF777
:10297000E3F800EB800000EB80006C68A400B0FB83
:10298000F4F4A7FB043464094FF0640808FB1494C2
:1029900024013234A7FB0434640904F0F004344405
:1029A000FEF7CAF800EB800000EB80006E68B6000E
:1029B000B0FBF6F6FEF7C0F800EB800000EB8000FD
:1029C0006B689B00B0FBF3F0A7FB0030400908FBED
:1029D00010684FEA081808F13208A7FB0837C7F358
:1029E00043172B6827449F60BDE8F883FEF7B4F8CF
:1029F00000EB800000EB80006C68A400B0FBF4F4F6
:102A0000274FA7FB043464092601FEF7A5F800EB65
:102A1000800000EB80006C68A400B0FBF4F9FEF7C6
:102A20009BF800EB800000EB80006C68A400B0FB1A
:102A3000F4F4A7FB043464094FF0640808FB149411
:102A400024013234A7FB0434640904F0F004344454
:102A5000FEF782F800EB800000EB80006E68B600A5
:102A6000B0FBF6F6FEF778F800EB800000EB800094
:102A70006B689B00B0FBF3F0A7FB0030400908FB3C
:102A800010684FEA081808F13208A7FB0837C7F3A7
:102A900043172B6827449F60A6E700BF003801401A
:102AA0001F85EB512DE9F04105460F461646984625
:102AB000069C2B681B6837EA03030CBF0123002325
:102AC000B3421DD1B4F1FF3FF3D02CB1FDF72CFD83
:102AD000A0EB0800A042ECD92A68D36823F4D07395
:102AE000D3602A68536923F001035361202385F8DA
:102AF000393085F83A30002385F83830032000E07B
:102B00000020BDE8F08158B310B5044690F8393084
:102B10000BB3242384F839302268D36823F400539C
:102B2000D3602046FFF7E8FE2268136923F4904340
:102B300013612268536923F02A0353612268D36822
:102B400043F40053D3600020E063202384F839303D
:102B500084F83A3010BD80F83830FFF7B5FBD8E77D
:102B6000012070472DE9F04182B01E4690F83930BF
:102B7000DBB2202B55D104460D469046002955D096
:102B8000002A55D090F83830012B53D0012380F81B
:102B900038300023C363212380F83930FDF7C4FCAB
:102BA0000746A4F82480A4F8268010E000963B464F
:102BB000002280212046FFF775FF00283CD12B889A
:102BC0002268C3F3080353602369C3B90235E38C59
:102BD0009BB2B3B1E38C013B9BB2E384A368B3F532
:102BE000805FE3D000963B46002280212046FFF71D
:102BF00059FF18BB15F8012B23685A60E7E7013528
:102C0000E5E700963B46002240212046FFF74AFFB9
:102C10000346A8B9202284F83920002284F83820FD
:102C200000E00223184602B0BDE8F0810123F9E775
:102C30000123F7E70223F5E70323F3E70323F1E793
:102C40000323EFE7F8B505460F4616461C463BE062
:102C50002CB1FDF769FC069BC01AA04234D32A6848
:102C6000536823F0E00353606B68B3F5827F0BD0A9
:102C7000AB6AB3F5005F14D0012385F8513000230F
:102C800085F85030032027E0AB68B3F5004F02D041
:102C9000B3F5806FECD12A68136823F0400313600A
:102CA000E6E72A68136823F400531B041B0C136027
:102CB0002A68136843F400531360DDE70123B3422D
:102CC00009D0B4F1FF3FC3D12B689B6837EA0303F7
:102CD000F4D00023F3E70020F8BD10B582B004461D
:102CE00000920B4600228021FFF7ACFF034610B98B
:102CF000184602B010BD636D43F0200363650323E3
:102D0000F6E72DE9F04385B098460C9D90F85030D9
:102D1000012B00F0108104460F461646012380F86F
:102D20005030FDF701FC814694F85130DBB2626807
:102D3000012B0AD0B2F5827F40F0E880A268002A19
:102D400040F0EF80042B40F0EE80002F00F0ED808B
:102D5000002E00F0EC80B8F1000F00F0EA8094F84B
:102D60005130DBB2012B2BD000236365A663A4F89E
:102D70003E80A4F83C802763A4F83680A4F8348011
:102D80002364636423681A6812F0400F03D11A6841
:102D900042F040021A60E368B3F5006F14D0636834
:102DA0001BB1E38E9BB2012B07D1236817F8012BCF
:102DB0001A73E38E013B9BB2E3864FF0010861E09A
:102DC000052384F85130CFE763681BB1E38E9BB2D3
:102DD000012B07D1236837F8022BDA60E38E013B21
:102DE0009BB2E3864FF0010813E0E38F9BB26BB117
:102DF00023689A6812F0010F08D0DB6826F8023BBE
:102E0000E38F013B9BB2E3874FF00108B5F1FF3F31
:102E10001CD1E38E9BB21BB9E38F9BB2002B55D024
:102E2000B8F1000FE1D0E38E9BB2002BDDD0236818
:102E30009A6812F0020FD8D037F8022BDA60E38ECE
:102E4000013B9BB2E3864FF00008CEE7FDF76CFB39
:102E5000A0EB0900A842DCD3032358E0E38F9BB228
:102E60006BB123689A6812F0010F08D0DB6806F88E
:102E7000013BE38F013B9BB2E3874FF00108B5F1C3
:102E8000FF3F1BD1E38E9BB213B9E38F9BB2EBB133
:102E9000B8F1000FE2D0E38E9BB2002BDED02368A6
:102EA0009A6812F0020FD9D017F8012B1A73E38E2B
:102EB000013B9BB2E3864FF00008CFE7FDF734FB00
:102EC000A0EB0900A842DDD3032320E0CDF8009059
:102ED0002B46012202212046FFF7B4FE08B103234E
:102EE00015E04A4629462046FFF7F7FE034648B953
:102EF000A26862B903922268D16803919268039232
:102F0000039A04E020236365012300E002230122E9
:102F100084F85120002284F85020184605B0BDE8FE
:102F2000F0830223F3E70223F1E70123EFE7012314
:102F3000EDE70123EBE70223EFE700283CD010B5D3
:102F400004460023836290F85130002B31D00223D5
:102F500084F851302268136823F0400313606368DB
:102F6000A2681343E268134322691343626913435F
:102F7000A26902F400721343E2691343226A134305
:102F8000A16A22680B431360638B03F00403616A38
:102F900022680B4353602368E26A1A612268D3698E
:102FA00023F40063D36100206065012384F851306D
:102FB00010BDFFF707F9CAE701207047014B33F84E
:102FC000100070470C00002000F6AB204342C0F315
:102FD0000B00C3F30B0358BF5842024B33F81000E9
:102FE000704700BF0C00002000F255504342C0F370
:102FF0000B00C3F30B0358BF5842024B33F81000C9
:10300000704700BF0C000020002103E00B4B5B5811
:10301000435004310A480B4B42189A42F6D30A4AED
:1030200002E0002342F8043B084B9A42F9D3FDF733
:1030300037FA00F00FF8FFF73BFC7047B83900088B
:103040000000002070200020702000204C2F002065
:10305000FEE7000070B500260C4D0D4C641BA4105B
:10306000A64209D100F044FC00260A4D0A4C641B1C
:10307000A410A64205D170BD55F8043B984701360F
:10308000EEE755F8043B98470136F2E7B0390008FF
:10309000B0390008B0390008B43900080A44914238
:1030A00000F1FF3300D1704710B511F8014B914288
:1030B00003F8014FF9D110BD0EB46FF0004100B517
:1030C0009CB01DAB029006900791049108480949F5
:1030D00053F8042B0591006802A9019300F068F8E9
:1030E0000022029B1A701CB05DF804EB03B070471D
:1030F0000C2000200802FFFF2DE9F0478E68824671
:103100009E420C469146984638D8B1F80CC01CF443
:10311000906F31D062692568096902EB42026F1A2B
:1031200002EBD272013355103B449D4238BF1D461D
:103130001CF4806F30D0294600F032FB064650B9AF
:103140000C234FF0FF30CAF80030A38943F040034E
:10315000A381BDE8F0873A462169FFF79FFFA38965
:1031600023F4906343F08003A38126613E442660EC
:1031700046466561ED1BA560464500D94646324688
:103180004946206800F0A6FAA36800209B1BA360B4
:1031900023681E442660DCE72A4600F05BFB0646F7
:1031A0000028E2D12169504600F0AEFAC8E70000DD
:1031B0002DE9F04F1E468B899DB01B0607460D4634
:1031C00014460ED50B6963B9402100F0E9FA286076
:1031D000286120B90C233B604FF0FF30C9E0402349
:1031E0006B610023099320238DF8293030234FF0A1
:1031F000010ADFF898918DF82A30039623461E467F
:1032000013F8012B0AB1252AF9D1B6EB040B0BD028
:103210005B46224629463846FFF76EFF013000F034
:10322000A380099B5B4409933378002B00F09C80BA
:1032300000234FF0FF32CDE90523013604930793B5
:103240008DF853301A933446052214F8011B4F4869
:1032500000F032FA049BC0B9D90644BF20228DF891
:1032600053201A0744BF2B228DF8532032782A2A84
:1032700013D0344600200A26079A214611F8013B54
:10328000303B092B4BD970B914E0A0EB09000AFAC6
:1032900000F0184304902646D5E7039A111D1268E2
:1032A0000391002A01DB079204E0524243F002033B
:1032B0000792049323782E2B0CD163782A2B33D1D9
:1032C000039B02341A1D1B680392002BB8BF4FF0FA
:1032D000FF3305932E4E03222178304600F0ECF99F
:1032E00038B14023801B03FA00F0049B01340343F0
:1032F000049314F8011B062226488DF8281000F0CC
:10330000DBF9002838D0244B13BB039B073323F091
:10331000070308330393099B434409936EE706FBB5
:10332000023201200C46A8E700230A261946013480
:103330000593204610F8012B303A092A03D9002BB7
:10334000C8D00591C6E706FB012101230446F0E73A
:1033500003AB00932A46114B04A93846AFF3008013
:10336000B0F1FF3F8046D6D1AB895B063FF534AF65
:1033700009981DB0BDE8F08F03AB00932A46074BB8
:1033800004A9384600F082F8EAE700BF7C3900085B
:10339000823900088639000800000000F930000872
:1033A0002DE9F04791461F468A680B69064693420D
:1033B000B8BF1346C9F8003091F843200C46DDF839
:1033C000208012B10133C9F800302368990642BF4A
:1033D000D9F800300233C9F80030256815F0060529
:1033E00007D104F1190AE368D9F800209B1AAB420F
:1033F00029DC94F843302268003318BF0123920679
:103400002ED404F1430239463046C047013021D062
:103410002368E56803F00603042B18BF0025D9F8DC
:1034200000204FF0000908BFAD1AA368226908BF49
:1034300025EAE5759342C4BF9B1AED181A344D4531
:103440001AD1002008E00123524639463046C047D1
:10345000013003D14FF0FF30BDE8F0870135C2E7FE
:103460003020E11881F843005A1C94F8451022449A
:10347000023382F84310C4E701232246394630461E
:10348000C0470130E6D009F10109D8E72DE9F04342
:1034900006460C4601F14300097E85B06E29984628
:1034A00017460C9B00F0BB8024D8632939D00AD87A
:1034B000002900F0C480582900F0928004F14205F0
:1034C00084F8421035E0642901D06929F6D12568D5
:1034D0001A6815F0800F02F104012CD012681960EF
:1034E000002A03DA2D23524284F84330DFF8C0C1AA
:1034F0000A233FE0732900F0A68008D86F2921D065
:103500007029DBD1226842F02002226003E0752995
:1035100018D07829D2D17822DFF898C184F84520D4
:1035200062E01A6804F14205111D1960136884F8FD
:103530004230012394E0126815F0400F196018BF63
:1035400012B2CDE7D4F800C01A681CF0800F02F167
:1035500004051D6001D0126803E01CF0400FFAD092
:1035600012886F290CBF08230A23DFF844C1002109
:1035700084F843106568002DA8BF2168A560A4BF2A
:1035800021F0040121600AB9002D46D00546B2FBA6
:10359000F3F103FB112E1CF80EE0934205F801ED48
:1035A00039D9082B0BD12368DA0708D5236962685B
:1035B0009A42DEBF302305F8013C05F1FF35401B80
:1035C0002061CDF800803B4603AA21463046FFF734
:1035D000E7FE013049D14FF0FF3005B0BDE8F08380
:1035E000DFF8CCC084F845101D68216855F8042B1D
:1035F0001D600D060BD5CD0744BF41F020012160B1
:103600001AB9236823F0200323601023AFE74B0689
:1036100048BF92B2EFE70A46B9E70546C1E71A6824
:10362000D4F800C0151D61691CF0800F1D6013687F
:1036300001D0196003E01CF0400FFAD0198000237C
:1036400005462361BDE71A68111D19601568002140
:103650006268284600F030F808B1401B606063687B
:103660002361002384F84330ABE723692A463946B7
:103670003046C0470130AED023689B0713D4E068C2
:10368000039B9842B8BF1846A7E701234A4639462C
:103690003046C04701309ED00135E368039A9B1A3B
:1036A000AB42F2DCEBE7002504F11909F5E700BFB6
:1036B0008D3900089E39000810B5C9B20244904205
:1036C000034601D1002303E01C7801308C42F6D17F
:1036D000184610BD884210B501EB020302D983429F
:1036E0001C4607D8421E994208D011F8014B02F837
:1036F000014FF8E783189A1A9A4200D110BD14F8C6
:10370000011D03F8011DF7E738B50546002943D030
:1037100051F8043C0C1F002BB8BFE41800F0D0F89F
:103720001E4A1368104633B9636014602846BDE82A
:10373000384000F0C6B8A3420BD921686218934202
:1037400001BF1A685B685218226063600460EDE78D
:1037500013465A680AB1A242FAD919685818A04209
:103760000BD120680144581882421960DED11068DC
:103770005268014419605A60D8E702D90C232B60C3
:10378000D4E7206821188A4201BF116852680918DD
:10379000216062605C60C9E738BD00BFD82D0020A1
:1037A000F8B5CD1C25F0030508350C2D38BF0C25C8
:1037B000002D064601DBA94203D90C23336000200B
:1037C000F8BD00F07DF821490A6814469CB9204FE5
:1037D0003B6823B92146304600F062F8386029463C
:1037E000304600F05DF8431C23D10C233046336093
:1037F00000F067F8E3E723685B1B17D40B2B03D9B2
:1038000023601C44256004E06368A2420CBF0B6087
:103810005360304600F055F804F10B00231D20F0F2
:103820000700C21ACCD01B1AA350C9E7224664680D
:10383000CCE7C41C24F00304A042E3D0211A304694
:1038400000F02EF80130DDD1CFE700BFD82D0020E9
:10385000DC2D0020F8B5074614460E4621B9114666
:10386000BDE8F840FFF79CBF22B9FFF74DFF2546A2
:103870002846F8BD00F026F8A0420FD2214638466F
:10388000FFF78EFF05460028F2D031462246FFF7AB
:1038900005FC31463846FFF737FFE9E73546E7E7ED
:1038A00038B50023054C05460846236000F012F8A1
:1038B000431C02D1236803B12B6038BD482F002080
:1038C0007047704751F8043C181F002BBCBF0B58C1
:1038D000C0187047044A05491368002B08BF0B46FF
:1038E0001844106018467047E02D0020502F00202B
:1038F000F8B500BFF8BC08BC9E467047F8B500BFDD
:08390000F8BC08BC9E467047AC
:1039080002030405060708090A0B0C0D0E0F101018
:1039180001020000703900081525000800000000A9
:10392800000000008000000000000000000000000F
:10393800010203040607080900000000010203044D
:1039480049444C45000000005372632F6D61696E55
:103958002E6300006E6F6E6500000000416E676C9C
:10396800653A2025640A000064656661756C7454C4
:1039780061736B00232D302B2000686C4C0065664A
:1039880067454647003031323334353637383941A8
:1039980042434445460030313233343536373839BE
:0839A8006162636465660000C2
:0439B00045010008C5
:0439B40021010008E5
:1039B80000A24A0401000000AAAAAAAA0008030853
:1039C800060809080C080F081208150819081C0829
:1039D8001F082208250828082B082F083208350850
:1039E80038083B083E084108450848084B084E0877
:1039F8005108540857085B085E086108640867089E
:103A08006A086D087108740877087A087D088008C4
:103A1800830886088A088D089008930896089908EC
:103A28009C08A008A308A608A908AC08AF08B20813
:103A3800B508B908BC08BF08C208C508C808CB083B
:103A4800CE08D208D508D808DB08DE08E108E40863
:103A5800E708EB08EE08F108F408F708FA08FD088B
:103A68000009040907090A090D09100913091609AB
:103A780019091C0920092309260929092C092F09D4
:103A88003209350938093C093F09420945094809FD
:103A98004B094E095109540957095B095E09610927
:103AA800640967096A096D09700973097609790952
:103AB8007D0980098309860989098C098F0992097A
:103AC800950998099B099E09A209A509A809AB09A6
:103AD800AE09B109B409B709BA09BD09C009C309D2
:103AE800C609C909CC09D009D309D609D909DC09FD
:103AF800DF09E209E509E809EB09EE09F109F4092A
:103B0800F709FA09FD09000A030A060A090A0D0A53
:103B1800100A130A160A190A1C0A1F0A220A250A79
:103B2800280A2B0A2E0A310A340A370A3A0A3D0AA9
:103B3800400A430A460A490A4C0A4F0A520A550AD9
:103B4800580A5B0A5E0A610A640A670A6A0A6D0A09
:103B5800700A730A760A790A7C0A7F0A820A850A39
:103B6800880A8B0A8E0A910A940A970A9A0A9D0A69
:103B7800A00AA30AA60AA90AAC0AAE0AB10AB40A9C
:103B8800B70ABA0ABD0AC00AC30AC60AC90ACC0AD1
:103B9800CF0AD20AD50AD80ADB0ADE0AE10AE30A02
:103BA800E60AE90AEC0AEF0AF20AF50AF80AFB0A39
:103BB800FE0A010B040B070B090B0C0B0F0B120B66
:103BC800150B180B1B0B1E0B210B240B260B290B9B
:103BD8002C0B2F0B320B350B380B3B0B3D0B400BD3
:103BE800430B460B490B4C0B4F0B510B540B570B0C
:103BF8005A0B5D0B600B630B650B680B6B0B6E0B45
:103C0800710B740B760B790B7C0B7F0B820B850B7E
:103C1800870B8A0B8D0B900B930B950B980B9B0BBB
:103C28009E0BA10BA40BA60BA90BAC0BAF0BB10BF6
:103C3800B40BB70BBA0BBD0BBF0BC20BC50BC80B34
:103C4800CA0BCD0BD00BD30BD60BD80BDB0BDE0B73
:103C5800E10BE30BE60BE90BEB0BEE0BF10BF40BB3
:103C6800F60BF90BFC0BFF0B010C040C070C090CF1
:103C78000C0C0F0C120C140C170C1A0C1C0C1F0C2F
:103C8800220C240C270C2A0C2D0C2F0C320C350C72
:103C9800370C3A0C3D0C3F0C420C450C470C4A0CB7
:103CA8004C0C4F0C520C540C570C5A0C5C0C5F0CFF
:103CB800620C640C670C690C6C0C6F0C710C740C46
:103CC800770C790C7C0C7E0C810C840C860C890C8E
:103CD8008B0C8E0C900C930C960C980C9B0C9D0CDA
:103CE800A00CA20CA50CA80CAA0CAD0CAF0CB20C25
:103CF800B40CB70CB90CBC0CBE0CC10CC30CC60C74
:103D0800C90CCB0CCE0CD00CD30CD50CD80CDA0CBF
:103D1800DD0CDF0CE20CE40CE70CE90CEB0CEE0C10
:103D2800F00CF30CF50CF80CFA0CFD0CFF0C020D62
:103D3800040D070D090D0B0D0E0D100D130D150DAE
:103D4800180D1A0D1C0D1F0D210D240D260D280D03
:103D58002B0D2D0D300D320D340D370D390D3C0D59
:103D68003E0D400D430D450D470D4A0D4C0D4E0DB2
:103D7800510D530D560D580D5A0D5D0D5F0D610D0A
:103D8800640D660D680D6A0D6D0D6F0D710D740D66
:103D9800760D780D7B0D7D0D7F0D810D840D860DC3
:103DA800880D8A0D8D0D8F0D910D940D960D980D22
:103DB8009A0D9D0D9F0DA10DA30DA50DA80DAA0D82
:103DC800AC0DAE0DB10DB30DB50DB70DB90DBC0DE4
:103DD800BE0DC00DC20DC40DC60DC90DCB0DCD0D48
:103DE800CF0DD10DD30DD60DD80DDA0DDC0DDE0DAE
:103DF800E00DE20DE50DE70DE90DEB0DED0DEF0D15
:103E0800F10DF30DF50DF70DFA0DFC0DFE0D000E7D
:103E1800020E040E060E080E0A0E0C0E0E0E100EE2
:103E2800120E140E160E180E1B0E1D0E1F0E210E4E
:103E3800230E250E270E290E2B0E2D0E2F0E310EBA
:103E4800330E350E370E390E3B0E3C0E3E0E400E2D
:103E5800420E440E460E480E4A0E4C0E4E0E500EA2
:103E6800520E540E560E580E5A0E5B0E5D0E5F0E15
:103E7800610E630E650E670E690E6B0E6C0E6E0E8C
:103E8800700E720E740E760E780E790E7B0E7D0E05
:103E98007F0E810E830E840E860E880E8A0E8C0E7F
:103EA8008E0E8F0E910E930E950E960E980E9A0EFC
:103EB8009C0E9E0E9F0EA10EA30EA50EA60EA80E7A
:103EC800AA0EAC0EAD0EAF0EB10EB20EB40EB60EFB
:103ED800B80EB90EBB0EBD0EBE0EC00EC20EC30E7E
:103EE800C50EC70EC80ECA0ECC0ECD0ECF0ED10E03
:103EF800D20ED40ED60ED70ED90EDB0EDC0EDE0E89
:103F0800DF0EE10EE30EE40EE60EE70EE90EEA0E12
:103F1800EC0EEE0EEF0EF10EF20EF40EF50EF70E9D
:103F2800F90EFA0EFC0EFD0EFF0E000F020F030F26
:103F3800050F060F080F090F0B0F0C0F0E0F0F0FB1
:103F4800110F120F140F150F160F180F190F1B0F43
:103F58001C0F1E0F1F0F210F220F230F250F260FD7
:103F6800280F290F2A0F2C0F2D0F2F0F300F310F6D
:103F7800330F340F350F370F380F3A0F3B0F3C0F05
:103F88003E0F3F0F400F420F430F440F450F470F9F
:103F9800480F490F4B0F4C0F4D0F4F0F500F510F3C
:103FA800520F540F550F560F570F590F5A0F5B0FDB
:103FB8005C0F5E0F5F0F600F610F620F640F650F7C
:103FC800660F670F680F6A0F6B0F6C0F6D0F6E0F20
:103FD8006F0F710F720F730F740F750F760F770FC6
:103FE800790F7A0F7B0F7C0F7D0F7E0F7F0F800F6D
:103FF800810F820F840F850F860F870F880F890F17
:104008008A0F8B0F8C0F8D0F8E0F8F0F900F910FC4
:10401800920F930F940F950F960F970F980F990F74
:104028009A0F9B0F9C0F9D0F9E0F9F0FA00FA10F24
:10403800A20FA30FA40FA50FA50FA60FA70FA80FD8
:10404800A90FAA0FAB0FAC0FAD0FAE0FAE0FAF0F8E
:10405800B00FB10FB20FB30FB40FB40FB50FB60F47
:10406800B70FB80FB90FB90FBA0FBB0FBC0FBD0F01
:10407800BD0FBE0FBF0FC00FC10FC10FC20FC30FBF
:10408800C40FC40FC50FC60FC70FC70FC80FC90F7E
:10409800CA0FCA0FCB0FCC0FCC0FCD0FCE0FCE0F40
:1040A800CF0FD00FD00FD10FD20FD20FD30FD40F05
:1040B800D40FD50FD60FD60FD70FD80FD80FD90FCB
:1040C800D90FDA0FDB0FDB0FDC0FDC0FDD0FDD0F95
:1040D800DE0FDF0FDF0FE00FE00FE10FE10FE20F60
:1040E800E20FE30FE30FE40FE40FE50FE50FE60F30
:1040F800E60FE70FE70FE80FE80FE90FE90FEA0F00
:10410800EA0FEB0FEB0FEC0FEC0FEC0FED0FED0FD1
:10411800EE0FEE0FEF0FEF0FEF0FF00FF00FF00FA6
:10412800F10FF10FF20FF20FF20FF30FF30FF30F7E
:10413800F40FF40FF40FF50FF50FF50FF60FF60F58
:10414800F60FF70FF70FF70FF70FF80FF80FF80F35
:10415800F80FF90FF90FF90FF90FFA0FFA0FFA0F15
:10416800FA0FFB0FFB0FFB0FFB0FFB0FFC0FFC0FF6
:10417800FC0FFC0FFC0FFD0FFD0FFD0FFD0FFD0FDA
:10418800FD0FFD0FFE0FFE0FFE0FFE0FFE0FFE0FC1
:10419800FE0FFE0FFF0FFF0FFF0FFF0FFF0FFF0FA9
:1041A800FF0FFF0FFF0FFF0FFF0FFF0FFF0FFF0F97
:1041B800FF0FFF0FFF0FFF0FFF0FFF0F0010FF0F85
:1041C800FF0FFF0FFF0FFF0FFF0FFF0FFF0FFF0F77
:1041D800FF0FFF0FFF0FFF0FFF0FFF0FFF0FFF0F67
:1041E800FF0FFF0FFF0FFE0FFE0FFE0FFE0FFE0F5C
:1041F800FE0FFE0FFE0FFD0FFD0FFD0FFD0FFD0F54
:10420800FD0FFD0FFC0FFC0FFC0FFC0FFC0FFB0F4D
:10421800FB0FFB0FFB0FFB0FFA0FFA0FFA0FFA0F4A
:10422800F90FF90FF90FF90FF80FF80FF80FF80F4A
:10423800F70FF70FF70FF70FF60FF60FF60FF50F4B
:10424800F50FF50FF40FF40FF40FF30FF30FF30F4F
:10425800F20FF20FF20FF10FF10FF00FF00FF00F56
:10426800EF0FEF0FEF0FEE0FEE0FED0FED0FEC0F5F
:10427800EC0FEC0FEB0FEB0FEA0FEA0FE90FE90F6A
:10428800E80FE80FE70FE70FE60FE60FE50FE50F7A
:10429800E40FE40FE30FE30FE20FE20FE10FE10F8A
:1042A800E00FE00FDF0FDF0FDE0FDD0FDD0FDC0F9C
:1042B800DC0FDB0FDB0FDA0FD90FD90FD80FD80FB0
:1042C800D70FD60FD60FD50FD40FD40FD30FD20FC9
:1042D800D20FD10FD00FD00FCF0FCE0FCE0FCD0FE3
:1042E800CC0FCC0FCB0FCA0FCA0FC90FC80FC70FFF
:1042F800C70FC60FC50FC40FC40FC30FC20FC10F1E
:10430800C10FC00FBF0FBE0FBD0FBD0FBC0FBB0F3E
:10431800BA0FB90FB90FB80FB70FB60FB50FB40F63
:10432800B40FB30FB20FB10FB00FAF0FAE0FAE0F88
:10433800AD0FAC0FAB0FAA0FA90FA80FA70FA60FB1
:10434800A50FA50FA40FA30FA20FA10FA00F9F0FDA
:104358009E0F9D0F9C0F9B0F9A0F990F980F970F09
:10436800960F950F940F930F920F910F900F8F0F39
:104378008E0F8D0F8C0F8B0F8A0F890F880F870F69
:10438800860F850F840F820F810F800F7F0F7E0F9E
:104398007D0F7C0F7B0F7A0F790F770F760F750FD4
:1043A800740F730F720F710F6F0F6E0F6D0F6C0F0D
:1043B8006B0F6A0F680F670F660F650F640F620F48
:1043C800610F600F5F0F5E0F5C0F5B0F5A0F590F85
:1043D800570F560F550F540F520F510F500F4F0FC5
:1043E8004D0F4C0F4B0F490F480F470F450F440F08
:1043F800430F420F400F3F0F3E0F3C0F3B0F3A0F4A
:10440800380F370F350F340F330F310F300F2F0F91
:104418002D0F2C0F2A0F290F280F260F250F230FDA
:10442800220F210F1F0F1E0F1C0F1B0F190F180F24
:10443800160F150F140F120F110F0F0F0E0F0C0F71
:104448000B0F090F080F060F050F030F020F000FC0
:10445800FF0EFD0EFC0EFA0EF90EF70EF50EF40E19
:10446800F20EF10EEF0EEE0EEC0EEA0EE90EE70E6E
:10447800E60EE40EE30EE10EDF0EDE0EDC0EDB0EC2
:10448800D90ED70ED60ED40ED20ED10ECF0ECD0E1B
:10449800CC0ECA0EC80EC70EC50EC30EC20EC00E75
:1044A800BE0EBD0EBB0EB90EB80EB60EB40EB20ED1
:1044B800B10EAF0EAD0EAC0EAA0EA80EA60EA50E2E
:1044C800A30EA10E9F0E9E0E9C0E9A0E980E960E8F
:1044D800950E930E910E8F0E8E0E8C0E8A0E880EF0
:1044E800860E840E830E810E7F0E7D0E7B0E790E56
:1044F800780E760E740E720E700E6E0E6C0E6B0EBB
:10450800690E670E650E630E610E5F0E5D0E5B0E23
:104518005A0E580E560E540E520E500E4E0E4C0E8B
:104528004A0E480E460E440E420E400E3E0E3C0EFB
:104538003B0E390E370E350E330E310E2F0E2D0E63
:104548002B0E290E270E250E230E210E1F0E1D0ED3
:104558001B0E180E160E140E120E100E0E0E0C0E4A
:104568000A0E080E060E040E020E000EFE0DFC0DBD
:10457800FA0DF70DF50DF30DF10DEF0DED0DEB0D3A
:10458800E90DE70DE50DE20DE00DDE0DDC0DDA0DB0
:10459800D80DD60DD30DD10DCF0DCD0DCB0DC90D29
:1045A800C60DC40DC20DC00DBE0DBC0DB90DB70DA5
:1045B800B50DB30DB10DAE0DAC0DAA0DA80DA50D21
:1045C800A30DA10D9F0D9D0D9A0D980D960D940D9F
:1045D800910D8F0D8D0D8A0D880D860D840D810D21
:1045E8007F0D7D0D7B0D780D760D740D710D6F0DA2
:1045F8006D0D6A0D680D660D640D610D5F0D5D0D25
:104608005A0D580D560D530D510D4E0D4C0D4A0DAA
:10461800470D450D430D400D3E0D3C0D390D370D31
:10462800340D320D300D2D0D2B0D280D260D240DBA
:10463800210D1F0D1C0D1A0D180D150D130D100D44
:104648000E0D0B0D090D070D040D020DFF0CFD0CD1
:10465800FA0CF80CF50CF30CF00CEE0CEB0CE90C66
:10466800E70CE40CE20CDF0CDD0CDA0CD80CD50CF2
:10467800D30CD00CCE0CCB0CC90CC60CC30CC10C83
:10468800BE0CBC0CB90CB70CB40CB20CAF0CAD0C16
:10469800AA0CA80CA50CA20CA00C9D0C9B0C980CA9
:1046A800960C930C900C8E0C8B0C890C860C840C3D
:1046B800810C7E0C7C0C790C770C740C710C6F0CD3
:1046C8006C0C690C670C640C620C5F0C5C0C5A0C6B
:1046D800570C540C520C4F0C4C0C4A0C470C450C04
:1046E800420C3F0C3D0C3A0C370C350C320C2F0C9D
:1046F8002D0C2A0C270C240C220C1F0C1C0C1A0C39
:10470800170C140C120C0F0C0C0C090C070C040CD5
:10471800010CFF0BFC0BF90BF60BF40BF10BEE0B7A
:10472800EB0BE90BE60BE30BE10BDE0BDB0BD80B1A
:10473800D60BD30BD00BCD0BCA0BC80BC50BC20BBA
:10474800BF0BBD0BBA0BB70BB40BB10BAF0BAC0B5C
:10475800A90BA60BA40BA10B9E0B9B0B980B950BFF
:10476800930B900B8D0B8A0B870B850B820B7F0BA2
:104778007C0B790B760B740B710B6E0B6B0B680B48
:10478800650B630B600B5D0B5A0B570B540B510BEE
:104798004F0B4C0B490B460B430B400B3D0B3B0B94
:1047A800380B350B320B2F0B2C0B290B260B240B3C
:1047B800210B1E0B1B0B180B150B120B0F0B0C0BE5
:1047C800090B070B040B010BFE0AFB0AF80AF50A92
:1047D800F20AEF0AEC0AE90AE60AE30AE10ADE0A43
:1047E800DB0AD80AD50AD20ACF0ACC0AC90AC60AED
:1047F800C30AC00ABD0ABA0AB70AB40AB10AAE0A9D
:10480800AC0AA90AA60AA30AA00A9D0A9A0A970A44
:10481800940A910A8E0A8B0A880A850A820A7F0AF4
:104828007C0A790A760A730A700A6D0A6A0A670AA4
:10483800640A610A5E0A5B0A580A550A520A4F0A54
:104848004C0A490A460A430A400A3D0A3A0A370A04
:10485800340A310A2E0A2B0A280A250A220A1F0AB4
:104868001C0A190A160A130A100A0D0A090A060A66
:10487800030A000AFD09FA09F709F409F109EE0922
:10488800EB09E809E509E209DF09DC09D909D609D4
:10489800D309D009CC09C909C609C309C009BD098A
:1048A800BA09B709B409B109AE09AB09A809A5093C
:1048B800A2099E099B099809950992098F098C09F3
:1048C80089098609830980097D09790976097309A7
:1048D80070096D096A096709640961095E095B095C
:1048E8005709540951094E094B0948094509420914
:1048F8003F093C093809350932092F092C092909CA
:104908002609230920091C09190916091309100980
:104918000D090A09070904090009FD08FA08F7083A
:10492800F408F108EE08EB08E708E408E108DE08F7
:10493800DB08D808D508D208CE08CB08C808C508AF
:10494800C208BF08BC08B908B508B208AF08AC0867
:10495800A908A608A308A0089C089908960893081F
:1049680090088D088A088608830880087D087A08D8
:104978007708740871086D086A0867086408610890
:104988005E085B085708540851084E084B08480849
:10499800450841083E083B083808350832082F0802
:1049A8002B082808250822081F081C0819081508BC
:1049B80012080F080C080908060803080008FC0775
:1049C800F907F607F307F007ED07EA07E607E30735
:1049D800E007DD07DA07D707D407D007CD07CA07EE
:1049E800C707C407C107BE07BA07B707B407B107A7
:1049F800AE07AB07A807A407A1079E079B07980760
:104A0800950792078E078B078807850782077F0718
:104A18007C077907750772076F076C0769076607D0
:104A280063075F075C0759075607530750074D0789
:104A38004A074607430740073D073A073707340741
:104A480031072D072A072707240721071E071B07F9
:104A58001807140711070E070B07080705070207B1
:104A6800FF06FB06F806F506F206EF06EC06E90671
:104A7800E606E306DF06DC06D906D606D306D00628
:104A8800CD06CA06C706C306C006BD06BA06B706DF
:104A9800B406B106AE06AB06A806A406A1069E0695
:104AA8009B069806950692068F068C06890686064A
:104AB80082067F067C0679067606730670066D0602
:104AC8006A066706640661065D065A0657065406B6
:104AD80051064E064B064806450642063F063C066A
:104AE8003906360633062F062C062906260623061F
:104AF80020061D061A061706140611060E060B06D2
:104B0800080605060206FF05FC05F905F605F20587
:104B1800EF05EC05E905E605E305E005DD05DA0541
:104B2800D705D405D105CE05CB05C805C505C205F1
:104B3800BF05BC05B905B605B305B005AD05AA05A1
:104B4800A705A405A1059E059B0598059505920551
:104B58008F058C0589058605830580057D057A0501
:104B68007705740571056E056B05680565056205B1
:104B78005F055C0559055605530551054E054B055E
:104B88004805450542053F053C0539053605330509
:104B980030052D052A052705240521051E051C05B8
:104BA80019051605130510050D050A050705040561
:104BB8000105FE04FB04F804F604F304F004ED0414
:104BC800EA04E704E404E104DE04DB04D904D604BF
:104BD800D304D004CD04CA04C704C404C204BF0467
:104BE800BC04B904B604B304B004AE04AB04A8040E
:104BF800A504A2049F049C049A04970494049104B5
:104C08008E048B0489048604830480047D047A045A
:104C18007804750472046F046C046A0467046404FD
:104C280061045E045B0459045604530450044E04A2
:104C38004B0448044504420440043D043A04370444
:104C4800350432042F042C042904270424042104E5
:104C58001E041C0419041604140411040E040B0485
:104C68000904060403040004FE03FB03F803F60327
:104C7800F303F003ED03EB03E803E503E303E003C9
:104C8800DD03DB03D803D503D203D003CD03CA0366
:104C9800C803C503C203C003BD03BA03B803B50301
:104CA800B303B003AD03AB03A803A503A303A00399
:104CB8009D039B0398039603930390038E038B0332
:104CC80088038603830381037E037B0379037603CA
:104CD800740371036F036C0369036703640362035E
:104CE8005F035D035A0357035503520350034D03F3
:104CF8004B0348034603430341033E033C03390384
:104D08003603340331032F032C032A032703250317
:104D1800220320031D031B031803160314031103A6
:104D28000F030C030A030703050302030003FD0234
:104D3800FB02F802F602F402F102EF02EC02EA02C8
:104D4800E702E502E302E002DE02DB02D902D70253
:104D5800D402D202CF02CD02CB02C802C602C302DD
:104D6800C102BF02BC02BA02B802B502B302B10264
:104D7800AE02AC02A902A702A502A202A0029E02EC
:104D88009B02990297029502920290028E028B0270
:104D9800890287028402820280027E027B027902F3
:104DA80077027502720270026E026B026902670274
:104DB8006502620260025E025C025A0257025502F4
:104DC800530251024E024C024A0248024602430272
:104DD80041023F023D023B023902360234023202EE
:104DE80030022E022C022902270225022302210268
:104DF8001F021D021A0218021602140212021002E1
:104E08000E020C020A020802050203020102FF0157
:104E1800FD01FB01F901F701F501F301F101EF01D2
:104E2800ED01EB01E901E701E401E201E001DE0146
:104E3800DC01DA01D801D601D401D201D001CE01BA
:104E4800CC01CA01C801C601C401C301C101BF0127
:104E5800BD01BB01B901B701B501B301B101AF0192
:104E6800AD01AB01A901A701A501A401A201A001FF
:104E78009E019C019A019801960194019301910168
:104E88008F018D018B0189018701860184018201CF
:104E980080017E017C017B01790177017501730135
:104EA800710170016E016C016A0169016701650198
:104EB8006301610160015E015C015A0159015701FA
:104EC80055015301520150014E014D014B01490159
:104ED800470146014401420141013F013D013C01B6
:104EE8003A013801370135013301320130012E0111
:104EF8002D012B012901280126012401230121016B
:104F080020011E011C011B011901180116011501C0
:104F18001301110110010E010D010B010A01080115
:104F280006010501030102010001FF00FD00FC006C
:104F3800FA00F900F700F600F400F300F100F000C1
:104F4800EE00ED00EB00EA00E900E700E600E4000F
:104F5800E300E100E000DE00DD00DC00DA00D9005B
:104F6800D700D600D500D300D200D000CF00CE00A5
:104F7800CC00CB00CA00C800C700C500C400C300ED
:104F8800C100C000BF00BD00BC00BB00BA00B80033
:104F9800B700B600B400B300B200B000AF00AE0076
:104FA800AD00AB00AA00A900A800A600A500A400B7
:104FB800A300A100A0009F009E009D009B009A00F6
:104FC8009900980097009500940093009200910032
:104FD80090008E008D008C008B008A00890088006C
:104FE80086008500840083008200810080007F00A5
:104FF8007E007D007B007A007900780077007600DB
:105008007500740073007200710070006F006E000C
:105018006D006C006B006A0069006800670066003C
:105028006500640063006200610060005F005E006C
:105038005D005C005B005A005A0059005800570098
:1050480056005500540053005200510051005000C2
:105058004F004E004D004C004B004B004A004900E9
:10506800480047004600460045004400430042000F
:105078004200410040003F003E003E003D003C0031
:105088003B003B003A003900380038003700360052
:105098003500350034003300330032003100310070
:1050A80030002F002F002E002D002D002C002B008B
:1050B8002B002A00290029002800270027002600A5
:1050C80026002500240024002300230022002200BB
:1050D8002100200020001F001F001E001E001D00D0
:1050E8001D001C001C001B001B001A001A001900E0
:1050F80019001800180017001700160016001500F0
:1051080015001400140013001300130012001200FD
:10511800110011001000100010000F000F000F0008
:105128000E000E000D000D000D000C000C000C0010
:105138000B000B000B000A000A000A000900090016
:105148000900080008000800080007000700070019
:105158000700060006000600060005000500050019
:105168000500040004000400040004000300030018
:105178000300030003000200020002000200020014
:10518800020002000100010001000100010001000D
:105198000100010000000000000000000000000005
:1051A80000000000000000000000000000000000F7
:1051B80000000000000000000000000000000000E7
:1051C80000000000000000000000000000000000D7
:1051D80000000000000000000000000000000000C7
:1051E80000000000000001000100010001000100B2
:1051F800010001000100020002000200020002009A
:10520800020002000300030003000300030004007F
:105218000400040004000400050005000500050062
:105228000600060006000600070007000700070042
:1052380008000800080008000900090009000A0021
:105248000A000A000B000B000B000C000C000C00FD
:105258000D000D000D000E000E000F000F000F00D6
:1052680010001000100011001100120012001300AD
:105278001300130014001400150015001600160082
:105288001700170018001800190019001A001A0052
:105298001B001B001C001C001D001D001E001E0022
:1052A8001F001F00200020002100220022002300F0
:1052B80023002400240025002600260027002700BC
:1052C8002800290029002A002B002B002C002D0083
:1052D8002D002E002F002F00300031003100320049
:1052E800330033003400350035003600370038000D
:1052F800380039003A003B003B003C003D003E00CE
:105308003E003F004000410042004200430044008C
:105318004500460046004700480049004A004B0047
:105328004B004C004D004E004F0050005100510002
:1053380052005300540055005600570058005900B9
:105348005A005A005B005C005D005E005F00600070
:105358006100620063006400650066006700680021
:1053680069006A006B006C006D006E006F007000D1
:105378007100720073007400750076007700780081
:1053880079007A007B007D007E007F00800081002C
:1053980082008300840085008600880089008A00D6
:1053A8008B008C008D008E0090009100920093007D
:1053B800940095009700980099009A009B009D0022
:1053C8009E009F00A000A100A300A400A500A600C5
:1053D800A800A900AA00AB00AD00AE00AF00B00065
:1053E800B200B300B400B600B700B800BA00BB0002
:1053F800BC00BD00BF00C000C100C300C400C500A0
:10540800C700C800CA00CB00CC00CE00CF00D00037
:10541800D200D300D500D600D700D900DA00DC00CE
:10542800DD00DE00E000E100E300E400E600E70064
:10543800E900EA00EB00ED00EE00F000F100F300F7
:10544800F400F600F700F900FA00FC00FD00FF0088
:105458000001020103010501060108010A010B010F
:105468000D010E011001110113011501160118019A
:1054780019011B011C011E01200121012301240126
:105488002601280129012B012D012E0130013201AD
:1054980033013501370138013A013C013D013F0133
:1054A8004101420144014601470149014B014D01B7
:1054B8004E015001520153015501570159015A013A
:1054C8005C015E01600161016301650167016901B9
:1054D8006A016C016E017001710173017501770138
:1054E80079017B017C017E018001820184018601B2
:1054F800870189018B018D018F019101930194012D
:10550800960198019A019C019E01A001A201A401A3
:10551800A501A701A901AB01AD01AF01B101B3011B
:10552800B501B701B901BB01BD01BF01C101C3018B
:10553800C401C601C801CA01CC01CE01D001D20103
:10554800D401D601D801DA01DC01DE01E001E20173
:10555800E401E701E901EB01ED01EF01F101F301DC
:10556800F501F701F901FB01FD01FF010102030249
:10557800050208020A020C020E02100212021402AC
:10558800160218021A021D021F0221022302250216
:10559800270229022C022E0230023202340236027D
:1055A80039023B023D023F024102430246024802E1
:1055B8004A024C024E0251025302550257025A0245
:1055C8005C025E02600262026502670269026B02A7
:1055D8006E02700272027502770279027B027E0205
:1055E800800282028402870289028B028E02900264
:1055F80092029502970299029B029E02A002A202C1
:10560800A502A702A902AC02AE02B102B302B5021A
:10561800B802BA02BC02BF02C102C302C602C80273
:10562800CB02CD02CF02D202D402D702D902DB02CA
:10563800DE02E002E302E502E702EA02EC02EF0220
:10564800F102F402F602F802FB02FD020003020373
:10565800050307030A030C030F03110314031603BE
:1056680018031B031D0320032203250327032A0312
:105678002C032F0331033403360339033C033E0361
:1056880041034303460348034B034D0350035203AE
:10569800550357035A035D035F03620364036703FB
:1056A80069036C036F0371037403760379037B0347
:1056B8007E0381038303860388038B038E03900391
:1056C8009303960398039B039D03A003A303A503D9
:1056D800A803AB03AD03B003B303B503B803BA0320
:1056E800BD03C003C203C503C803CA03CD03D00367
:1056F800D203D503D803DB03DD03E003E303E503AB
:10570800E803EB03ED03F003F303F603F803FB03ED
:10571800FE0300040304060409040B040E04110428
:105728001404160419041C041E0421042404270468
:1057380029042C042F043204350437043A043D04A8
:1057480040044204450448044B044E0450045304E6
:10575800560459045B045E046104640467046A0423
:105768006C046F047204750478047A047D04800460
:105778008304860489048B048E049104940497049A
:105788009A049C049F04A204A504A804AB04AE04D4
:10579800B004B304B604B904BC04BF04C204C4040E
:1057A800C704CA04CD04D004D304D604D904DB0446
:1057B800DE04E104E404E704EA04ED04F004F3047D
:1057C800F604F804FB04FE040105040507050A05B0
:1057D8000D0510051305160519051C051E052105DF
:1057E800240527052A052D05300533053605390515
:1057F8003C053F054205450548054B054E05510545
:105808005305560559055C055F056205650568057C
:105818006B056E057105740577057A057D058005AC
:105828008305860589058C058F05920595059805DC
:105838009B059E05A105A405A705AA05AD05B0050C
:10584800B305B605B905BC05BF05C205C505C8053C
:10585800CB05CE05D105D405D705DA05DD05E0056C
:10586800E305E605E905EC05EF05F205F605F9059A
:10587800FC05FF050206050608060B060E061106BE
:10588800140617061A061D062006230626062906EC
:105898002C062F063306360639063C063F06420616
:1058A800450648064B064E065106540657065A0644
:1058B8005D066106640667066A066D06700673066D
:1058C800760679067C067F068206860689068C0699
:1058D8008F069206950698069B069E06A106A406C4
:1058E800A806AB06AE06B106B406B706BA06BD06EC
:1058F800C006C306C706CA06CD06D006D306D60616
:10590800D906DC06DF06E306E606E906EC06EF063E
:10591800F206F506F806FB06FF0602070507080764
:105928000B070E071107140718071B071E07210787
:10593800240727072A072D073107340737073A07AF
:105948003D074007430746074A074D0750075307D7
:10595800560759075C075F076307660769076C07FF
:105968006F077207750779077C077F078207850726
:1059780088078B078E079207950798079B079E074E
:10598800A107A407A807AB07AE07B107B407B70775
:10599800BA07BE07C107C407C707CA07CD07D0079C
:1059A800D407D707DA07DD07E007E307E607EA07C2
:1059B800ED07F007F307F607F907FC0710200020AA
:1059C80000000000000000000000000000000000CF
:1059D80000000000000000000000000000000000BF
:1059E80000000000000000000000000000000000AF
:1059F800000000000000000000000000000000009F
:105A0800000000000000000000000000000000008E
:105A1800000000000000000000000000000000007E
:0400000508003009B6
:00000001FF
