:020000040800F2
:1000000000500020BD4500082526000827260008CE
:10001000292600082B2600082D26000800000000D5
:10002000000000000000000000000000E1380008AF
:100030002F26000800000000813900083126000842
:100040000546000805460008054600080546000864
:100050000546000805460008054600080546000854
:100060000546000805460008054600080546000844
:100070000546000805460008054600080546000834
:100080000546000805460008054600080546000824
:100090000546000805460008054600080546000814
:1000A0000546000805460008054600080546000804
:1000B00005460008054600083926000805460008E0
:1000C00005460008054600080546000805460008E4
:1000D00005460008054600080546000805460008D4
:1000E0000546000805460008054600080000000017
:1000F0000000000000000000000000000000000000
:0C01000000000000000000005FF808F1A3
:10011000044B05481B1A062B02D9044B03B11847A0
:10012000704700BF732000207020002000000000F6
:1001300005490648091A891001EBD171491002D00E
:10014000034B03B118477047702000207020002037
:100150000000000010B5064C237843B9FFF7D8FF24
:10016000044B13B10448AFF300800123237010BD8A
:1001700070200020000000000846000808B5084B69
:100180001BB108490848AFF300800848036813B959
:10019000BDE80840CCE7064B002BF9D09847F7E7BD
:1001A0000000000074200020084600087020002095
:1001B0000000000070402DE964609FE564509FE5F9
:1001C000066065E04661B0E10040A0130500000A4A
:1001D000014084E2043095E40FE0A0E113FF2FE139
:1001E000040056E1F9FFFF1A3C609FE53C509FE593
:1001F000066065E0031100FA4661B0E10040A0131B
:100200000500000A014084E2043095E40FE0A0E11B
:1002100013FF2FE1040056E1F9FFFF1A7040BDE81B
:100220001EFF2FE1D4460008D4460008D846000837
:10023000D44600080F0052E3F0402DE92900009A4F
:10024000003081E1030013E33100001A02E0A0E175
:1002500010C080E2103081E2107013E50C6013E5ED
:10026000085013E5044013E510E04EE20F005EE392
:1002700010700CE50C600CE508500CE504400CE532
:10028000103083E210C08CE2F2FFFF8A103042E2AD
:100290000F30C3E30F6002E2103083E2030056E345
:1002A000031081E0033080E01B00009A0140A0E1D0
:1002B00006C0A0E104E043E204C04CE2045094E430
:1002C00003005CE30450AEE5FAFFFF8A04C046E297
:1002D00003C0CCE304C08CE20C3083E00C1081E05E
:1002E000032002E2000000EA0030A0E1000052E337
:1002F0000500000A013043E2022081E001C0D1E4A0
:10030000020051E101C0E3E5FBFFFF1AF040BDE848
:100310001EFF2FE10030A0E1F5FFFFEA0620A0E17B
:10032000F1FFFFEA0C002DE930402DE902E1E0E3A6
:10033000825FA0E30040E0E374D04DE284C08DE230
:100340000C30A0E180209DE508108DE518108DE5AA
:1003500008108DE2B451CDE110E08DE51CE08DE593
:10036000B641CDE104C08DE5DD0000EB0020A0E347
:1003700008309DE50020C3E574D08DE23040BDE833
:1003800008D08DE21EFF2FE10E002DE90010A0E144
:1003900030402DE902E1E0E3825FA0E30040E0E3CA
:1003A00070D04DE24C309FE580C08DE27C209DE511
:1003B00008108DE518108DE5000093E508108DE21A
:1003C0000C30A0E1B451CDE110E08DE51CE08DE5ED
:1003D000B641CDE104C08DE5C10000EB0020A0E3F3
:1003E00008309DE50020C3E570D08DE23040BDE8C7
:1003F0000CD08DE21EFF2FE100000020F84F2DE908
:10040000085091E5030055E10140A0E10370A0E12F
:100410000290A0E11000008ABC30D1E1120D13E37C
:100420000F00001A0560A0E1000094E50620A0E19D
:100430000910A0E1420300EB0000A0E3083094E5BE
:10044000002094E5035065E0062082E0085084E532
:10045000002084E5F84FBDE81EFF2FE10350A0E126
:10046000EFFFFFEA101091E5008094E5146094E539
:10047000088061E0866086E000A0A0E1A66F86E0CB
:10048000010088E2C660A0E1070080E0060050E1BC
:100490000620A0E10060A0810620A081010B13E3EB
:1004A0000C00000A0210A0E10A00A0E1AD0300EB7D
:1004B00000B050E21700000A0820A0E1101094E5F7
:1004C0005BFFFFEBBC30D4E1123DC3E3803083E33C
:1004D000BC30C4E1030000EA0A00A0E1F40300EB31
:1004E00000B050E20800000A08008BE0068068E0D7
:1004F000146084E50750A0E110B084E5000084E5B5
:10050000088084E50760A0E1C7FFFFEA101094E5CA
:100510000A00A0E1550300EB0C30A0E300308AE5AF
:10052000BC30D4E1403083E30000E0E3BC30C4E100
:10053000C7FFFFEAF04F2DE9083092E5000053E3D2
:100540000CD04DE20280A0E16000000A00A0A0E310
:100550000A40A0E1000054E30090A0E10150A0E1B6
:10056000006092E5000091E5083091E53800000A4E
:10057000030054E103B0A0E10370A0E13D00003AA4
:10058000BC30D5E1120D13E32300000A101085E200
:10059000820091E8877087E000B061E0A77F87E084
:1005A000010084E2C770A0E10B0080E0070050E189
:1005B0000720A0E10070A0810720A081010B13E3B8
:1005C0002F00000A0210A0E10900A0E1650300EB82
:1005D000003050E23100000A0B20A0E1101095E538
:1005E00004308DE512FFFFEBBC20D5E1122DC2E3F4
:1005F000802082E3BC20C5E104309DE50B0083E050
:1006000007B06BE008B085E5147085E504B0A0E1A3
:100610000470A0E1103085E5000085E50720A0E129
:100620000A10A0E1C60200EB082098E5083095E525
:10063000000095E5024064E003306BE0070080E0D5
:10064000000054E3083085E5000085E5084088E5B2
:100650001E00000A044096E5000054E300A096E561
:10066000086086E2FAFFFF0A030054E103B0A0E14C
:100670000370A0E1C1FFFF2A04B0A0E10470A0E173
:10068000E5FFFFEA0900A0E1890300EB003050E23A
:10069000D9FFFF1A101095E50900A0E1F30200EB65
:1006A0000C30A0E30020A0E30000E0E3003089E587
:1006B000BC30D5E1403083E3BC30C5E1082088E59B
:1006C000042088E50CD08DE2F04FBDE81EFF2FE13D
:1006D0000000A0E3040088E50CD08DE2F04FBDE8F7
:1006E0001EFF2FE1F04F2DE901A0A0E1BC10D1E1E8
:1006F00074D04DE2800011E30240A0E10C308DE5A2
:1007000000B0A0E10200000A10309AE5000053E3B7
:10071000B600000A0030A0E32010A0E33020A0E3E0
:100720000370A0E10450A0E124308DE52910CDE54F
:100730002A20CDE5E4629FE50030D5E5250053E3AE
:10074000000053130580A0E10500000A0130F8E520
:10075000000053E325005313FBFFFF1A054058E048
:100760005400001A0030D8E5000053E35E00000A90
:100770000030E0E310708DE51C708DE518708DE59C
:100780005370CDE568708DE5018088E214308DE509
:100790000140A0E3020000EA000066E0140083E1EB
:1007A00010008DE50010D8E50520A0E36C029FE560
:1007B0001E0200EB000050E30850A0E110309DE560
:1007C000018088E2F3FFFF1A100013E32020A0133A
:1007D0005320CD15080013E32B20A0130010D5E5FE
:1007E0005320CD152A0051E35D00000A302041E27C
:1007F000090052E31C309D950600008A0110F5E5C2
:10080000033183E0833082E0302041E2090052E38B
:10081000F9FFFF9A1C308DE52E0051E33F00000ADE
:100820000320A0E3F8019FE5000200EB000050E385
:100830000600000A4020A0E3E4119FE510309DE58A
:10084000000061E0120083E110008DE5015085E2B7
:100850000030D5E50620A0E30310A0E1C4019FE528
:100860002830CDE5F10100EB000050E3015085E2B6
:100870005500000AB0319FE5000053E32100000A53
:100880000C308DE200308DE50A20A0E19C319FE51F
:1008900010108DE20B00A0E100F020E30090A0E139
:1008A000010079E31000000A24309DE5093083E05F
:1008B00024308DE59FFFFFEA0520A0E10430A0E190
:1008C0000A10A0E10B00A0E1CBFEFFEB010070E3FA
:1008D0000500000A24309DE5044083E00030D8E59F
:1008E000000053E324408DE5A0FFFF1ABC30DAE19D
:1008F000400013E30000E01324009D0574D08DE256
:10090000F04FBDE81EFF2FE10C309DE5073083E27C
:100910000730C3E3083083E20C308DE5E1FFFFEAE6
:100920000110D5E52A0051E31A00000A302041E207
:10093000090052E3015085E214708DE5B7FFFF8A8C
:100940000030A0E30110F5E5033183E0833082E05D
:10095000302041E2090052E3F9FFFF9A14308DE59F
:10096000AEFFFFEA0C209DE5001092E5000051E388
:10097000001061B2042082E2023083B31C108DA506
:100980001C108DB50C208DE50110D5E510308DB50E
:10099000015085E29FFFFFEA0C309DE5002093E5C2
:1009A000000052E314208DE50020E0B3043083E220
:1009B0000C308DE5023085E20210D5A50210D5B5C8
:1009C00014208DB50350A0E194FFFFEA0C308DE2B6
:1009D00000308DE50A20A0E150309FE510108DE237
:1009E0000B00A0E1870000EB0090A0E1ABFFFFEA65
:1009F0004010A0E35B0200EB000050E30C30A003CA
:100A000000008AE510008AE50000E00300308B0555
:100A1000B9FFFF0A4030A0E314308AE53CFFFFEA4B
:100A200098460008A0460008A44600080000000000
:100A3000FC030008F0472DE90140A0E1101091E50A
:100A400008C094E50C0051E10C10A0B10290A0E1A7
:100A5000001082E54320D4E5000052E3011081122A
:100A6000001089150370A0E1003094E5200013E325
:100A70000060A0E120809DE55200000A002099E579
:100A8000022082E2002089E5003094E5060013E3AD
:100A90000310A0E11900001A0C1094E5012062E097
:100AA000000052E30310A0D1140000DA0050A0E3CC
:100AB00019A084E2040000EA0C3094E5002099E5D6
:100AC000033062E0050053E10B0000DA0130A0E3DF
:100AD0000A20A0E10710A0E10600A0E10FE0A0E1DC
:100AE00018FF2FE1010070E3015085E2F1FFFF1ACA
:100AF0000000E0E3F047BDE81EFF2FE1001094E5A1
:100B00004330D4E5003093E20130A013200011E31C
:100B10000700000A3010A0E3032084E04310C2E580
:100B2000012083E24510D4E5022084E04310C2E5B1
:100B3000023083E2432084E20710A0E10600A0E136
:100B40000FE0A0E118FF2FE1010070E3E7FFFF0ACB
:100B5000003094E5063003E2043053E20130A01384
:100B6000002099E50C9094E5099062E0A93F93E19B
:100B7000102094E5083094E51900001A020053E1B2
:100B80001A0000CA000059E31B00000A0050A0E34D
:100B90001A4084E2010000EA090055E11600000A4B
:100BA0000130A0E30420A0E10710A0E10600A0E1CD
:100BB0000FE0A0E118FF2FE1010070E3015085E292
:100BC000F4FFFF1AC9FFFFEA060013E300209905AE
:100BD000B0FFFF0A4330D4E5003093E20130A013A8
:100BE000D3FFFFEA020053E10090A0C3020000DA45
:100BF000033062E0039089E0E3FFFFEA0000A0E336
:100C0000F047BDE81EFF2FE1F04F2DE90140A0E1C4
:100C10001810D1E51CD04DE20390A0E16E0051E325
:100C2000433084E20C308DE50070A0E10280A0E149
:100C300040309DE53C00000A0A00008A630051E351
:100C4000CB00000AA800008A000051E33F00000A20
:100C5000580051E3CF00001A4510C4E5002094E588
:100C6000C0A39FE50C0000EA730051E3B000000A46
:100C70006B00008A6F0051E3CB00000A700051E363
:100C8000C400001A002094E5202082E3002084E5BF
:100C90007810A0E390A39FE54510C4E5001093E50C
:100CA000800012E3040081E2000083E58400001A62
:100CB000400012E38200000AB0B0D1E11060A0E36E
:100CC000010012E3202082130020841500005BE362
:100CD000002094052020C203002084050020A0E30A
:100CE0004320C4E5042094E5000052E3082084E595
:100CF000770000BA001094E500005BE30410C1E344
:100D0000001084E55700001A000052E343508402AB
:100D10007100001A080056E35F00000A0C309DE5E0
:100D200003B065E010B084E50B0000EA002094E514
:100D3000800012E3A900000A002093E5041082E27B
:100D4000001083E5141094E5003092E5001083E56F
:100D50000030A0E3103084E5435084E200908DE53C
:100D60000830A0E114208DE20410A0E10700A0E10A
:100D70002FFFFFEB010070E32000000A0520A0E137
:100D8000103094E50810A0E10700A0E10FE0A0E119
:100D900019FF2FE1010070E31800000A003094E50C
:100DA000020013E30C0094E514309DE51700000ADF
:100DB000002063E0000052E3140000DA0050A0E3DA
:100DC000196084E2040000EA0C0094E514309DE50B
:100DD000002063E0050052E10C0000DA0130A0E3DE
:100DE0000620A0E10810A0E10700A0E10FE0A0E1CB
:100DF00019FF2FE1010070E3015085E2F1FFFF1AB6
:100E00000000E0E31CD08DE2F04FBDE81EFF2FE1B3
:100E1000000053E10300A0A11CD08DE2F04FBDE81B
:100E20001EFF2FE1750051E35F00000A780051E3D7
:100E30005800001A002094E594FFFFEA2D00A0E37B
:100E4000041094E5000051E300B06BE24300C4E5F8
:100E5000081084E51C0000BA0A60A0E30420C2E385
:100E6000002084E5BCA19FE5435084E20B00A0E193
:100E70000610A0E1D80100FA0120DAE70B00A0E19A
:100E8000012065E50610A0E1CE0100FA00B050E2B5
:100E9000F5FFFF1A080056E39FFFFF1A003094E5A4
:100EA000010013E39CFFFF0A103094E5042094E551
:100EB000030052E13030A0D3013045D5015045D276
:100EC00095FFFFEA00B091E57BFFFFEA0A60A0E32F
:100ED00050A19FE500005BE3E2FFFF1A0030DAE576
:100EE000425084E24230C4E589FFFFEA640051E3E6
:100EF0000100000A690051E32600001A002094E571
:100F0000001093E5800012E3040081E2000083E515
:100F10000100001A400012E34000001A00B091E501
:100F200000005BE3C4FFFFBA0A60A0E3F4A09FE502
:100F30006BFFFFEA002093E5041082E2001083E5D6
:100F4000005092E50010A0E3042094E50500A0E124
:100F5000360000EB000050E30430940500306510CB
:100F600004308415103084E50030A0E34330C4E53C
:100F700079FFFFEA0110A0E3002093E5040082E27C
:100F8000002092E5425084E2000083E54220C4E55F
:100F9000101084E5F3FFFFEA0130A0E34210C4E53E
:100FA000103084E5425084E2EEFFFFEA002094E531
:100FB000800012E31200000A002093E5041082E290
:100FC000001083E500B092E51860D4E56F0056E3A9
:100FD00050A09FE50A60A0130860A0033EFFFFEA4F
:100FE000400012E3002093E5041082E2001083E544
:100FF000141094E5003092E5B010C3110010830581
:1010000052FFFFEA400012E3002093E5041082E261
:10101000001083E5B0B0D21100B09205E9FFFFEAFD
:10102000F0B0D1E1BDFFFFEAAC460008C0460008C1
:10103000030010E330402DE9FFE001E23A00000A2E
:10104000000052E3013042E21F00000A0020D0E518
:101050000E0052E11D00000A012080E2060000EAB5
:10106000000053E31800000A00C0D0E50E005CE168
:10107000012082E2013043E21400000A030012E37F
:101080000200A0E1F5FFFF1A030053E31100008AFC
:10109000000053E32600000A0020D0E50E0052E1D4
:1010A0000A00000A033080E0012080E2030000EA29
:1010B0000010D0E50E0051E1012082E20300000A99
:1010C000020053E10200A0E1F8FFFF1A0000A0E3D4
:1010D0003040BDE81EFF2FE100C0A0E10154A0E1B7
:1010E000FF5C05E20E5085E1055885E100109CE5A6
:1010F00044209FE5051021E0022081E03C409FE56F
:101100000120C2E1024004E0000054E30C00A0E131
:1011100004C08CE2DFFFFF1A043043E2030053E314
:101120000C00A0E1F0FFFF8AD8FFFFEA0230A0E147
:10113000D4FFFFEA0300A0E1E4FFFFEAFFFEFEFEAA
:1011400080808080010050E170402DE90C00009A01
:10115000023081E0030050E10900002A000052E360
:10116000021080E00400000A032062E001C073E581
:10117000020053E101C061E5FBFFFF1A7040BDE8CA
:101180001EFF2FE10F0052E30A00008A0030A0E1A9
:10119000000052E3F8FFFF0A013043E2022081E041
:1011A00001C0D1E4010052E101C0E3E5FBFFFF1AF9
:1011B0007040BDE81EFF2FE1003081E1030013E322
:1011C0002600001A02E0A0E110C080E2103081E2A7
:1011D000104013E510400CE50C4013E50C400CE505
:1011E000084013E508400CE510E04EE2044013E52A
:1011F0000F005EE304400CE5103083E210C08CE287
:10120000F2FFFF8A103042E20F30C3E30F6002E2C8
:10121000103083E2030056E3031081E0033080E0E6
:101220001000009A0140A0E106C0A0E104E043E202
:1012300004C04CE2045094E403005CE30450AEE5C7
:10124000FAFFFF8A04C046E203C0CCE304C08CE28C
:101250000C3083E00C1081E0032002E2CBFFFFEAB8
:101260000030A0E1CBFFFFEA0620A0E1C7FFFFEAC4
:10127000000051E31EFF2F01043011E5041041E28C
:10128000000053E3031081B0D4309FE5002093E5C4
:10129000000052E30500000A010052E10700009A35
:1012A000000091E500C081E00C0052E12700000A37
:1012B000042081E5001083E51EFF2FE10320A0E15B
:1012C000043092E500C093E201C0A013010053E195
:1012D00000C0A08300005CE3F7FFFF1A00C092E5A6
:1012E00004E02DE50CE082E001005EE10D00000A63
:1012F0000C30A083003080850800008A000091E552
:1013000000C081E00C0053E100C093050430930558
:1013100000008C000900810804308115041082E56A
:1013200004E09DE41EFF2FE10200A0E1001091E522
:1013300001C08CE00CC080E6000053E10A00930875
:101340000CC0810000C0820504308205F3FFFFEA73
:1013500000C092E5042092E500008CE0050081E8E1
:10136000D3FFFFEA8C20002070402DE9035081E27A
:101370000350C5E3085085E20C0055E30C50A03340
:10138000050051E10010A0930110A083A53F91E159
:101390000060A0E13600001A10119FE5002091E5E1
:1013A000000052E30A00000A003092E5053053E0E5
:1013B0000400004A330000EA003094E5053053E0B1
:1013C0001700005A0420A0E1044092E5000054E315
:1013D000F8FFFF1A041091E5000051E3CC409FE5AF
:1013E0002E00000A0510A0E10600A0E1520000EB6B
:1013F000010070E31E00000A034080E20340C4E3E2
:10140000040050E10400000A041060E00600A0E1BE
:10141000490000EB010070E31500000A005084E56C
:10142000030000EA0B0053E30900009A003084E552
:101430000350A4E70B0084E20700C0E3043084E219
:10144000033050E000206312032084177040BDE891
:101450001EFF2FE1020054E1043094150430821580
:10146000F3FFFF1A0230A0E10240A0E1003081E565
:10147000EFFFFFEA0C30A0E30000A0E3003086E5B8
:101480007040BDE81EFF2FE10B0053E3043092953E
:101490000240A091F4FFFF9A0240A0E1E2FFFFEAC0
:1014A0000600A0E1240000EB040084E5CCFFFFEA85
:1014B0008C200020F0412DE9004051E20250A0E1D3
:1014C0001A00000A000052E31500000A0060A0E1C3
:1014D0002A0000EB000055E10400A0910100008A01
:1014E000F041BDE81EFF2FE10510A0E10600A0E1DC
:1014F0009CFFFFEB007050E20700A001F7FFFF0A1E
:101500000520A0E10410A0E149FBFFEB0600A0E1EB
:101510000410A0E155FFFFEB0700A0E1F041BDE89A
:101520001EFF2FE151FFFFEB0500A0E1EBFFFFEAFB
:101530000210A0E18BFFFFEBE8FFFFEA0030A0E321
:1015400070402DE930409FE50050A0E10100A0E18E
:10155000003084E5100000EB010070E30100000A98
:101560007040BDE81EFF2FE1003094E5000053E31A
:10157000003085157040BDE81EFF2FE1482F002088
:10158000040011E5000050E3001081B0043011B5F3
:10159000030080B0040040E21EFF2FE11C209FE505
:1015A000003092E518109FE5000053E30130A001E0
:1015B000000083E0000082E50300A0E11EFF2FE1B0
:1015C00094200020502F0020002902D0B0FBF1F021
:1015D000704708B14FF0FF3000F008B80029F8D08C
:1015E0000246B0FBF1F000FB11217047704700BFCD
:1015F00080F0004002E000BF81F0004142001FBFC8
:101600005FEA410392EA030F7FEA226C7FEA236CD0
:101610006AD04FEA1262D2EB1363C1BFD2184140C5
:1016200048404140B8BF5B42192B88BF704710F05B
:10163000004F40F4000020F07F4018BF404211F0FE
:10164000004F41F4000121F07F4118BF494292EA66
:10165000030F3FD0A2F1010241FA03FC10EB0C0092
:10166000C3F1200301FA03F100F0004302D549421F
:1016700060EB4000B0F5000F13D3B0F1807F06D3CC
:1016800040084FEA310102F10102FE2A51D2B1F1C4
:10169000004F40EBC25008BF20F0010040EA0300B9
:1016A0007047490040EB000010F4000FA2F1010266
:1016B000EDD1B0FA80FCACF1080CB2EB0C0200FAF0
:1016C0000CF0AABF00EBC25052421843BCBFD0403E
:1016D0001843704792F0000F81F4000106BF80F4B8
:1016E00000000132013BB5E74FEA41037FEA226C7B
:1016F00018BF7FEA236C21D092EA030F04D092F046
:10170000000F08BF0846704790EA010F1CBF002079
:10171000704712F07F4F04D1400028BF40F00040D6
:10172000704712F100723CBF00F50000704700F0F6
:10173000004343F0FE4040F4000070477FEA22621D
:1017400016BF08467FEA23630146420206BF5FEAEE
:10175000412390EA010F40F4800070474FF00003EE
:1017600004E000BF10F0004348BF40425FEA000CB5
:1017700008BF704743F0964301464FF000001CE05D
:1017800050EA010208BF70474FF000030AE000BFB3
:1017900050EA010208BF704711F0004302D54042F1
:1017A00061EB41015FEA010C02BF84460146002063
:1017B00043F0B64308BFA3F18053A3F50003BCFA7E
:1017C0008CF2083AA3EBC25310DB01FA02FC63442B
:1017D00000FA02FCC2F12002BCF1004F20FA02F232
:1017E00043EB020008BF20F00100704702F1200225
:1017F00001FA02FCC2F1200250EA4C0021FA02F286
:1018000043EB020008BF20EADC7070474FF0FF0C8A
:101810001CEAD0521EBF1CEAD15392EA0C0F93EA85
:101820000C0F6FD01A4480EA010C400218BF5FEA27
:1018300041211ED04FF0006343EA501043EA51119A
:10184000A0FB01310CF00040B1F5000F3EBF490094
:1018500041EAD3715B0040EA010062F17F02FD2A98
:101860001DD8B3F1004F40EBC25008BF20F001007B
:10187000704790F0000F0CF0004C08BF49024CEA92
:10188000502040EA51207F3AC2BFD2F1FF0340EA24
:10189000C250704740F400004FF00003013A5DDC95
:1018A00012F1190FDCBF00F000407047C2F10002D6
:1018B000410021FA02F1C2F1200200FA02FC5FEAC3
:1018C000310040F1000053EA4C0308BF20EADC700D
:1018D000704792F0000F00F0004C02BF400010F47F
:1018E000000F013AF9D040EA0C0093F0000F01F02C
:1018F000004C02BF490011F4000F013BF9D041EA4E
:101900000C018FE70CEAD15392EA0C0F18BF93EA4F
:101910000C0F0AD030F0004C18BF31F0004CD8D179
:1019200080EA010000F00040704790F0000F17BF00
:1019300090F0004F084691F0000F91F0004F14D046
:1019400092EA0C0F01D142020FD193EA0C0F03D19E
:101950004B0218BF084608D180EA010000F00040A1
:1019600040F0FE4040F40000704740F0FE4040F47C
:10197000400070474FF0FF0C1CEAD0521EBF1CEA1B
:10198000D15392EA0C0F93EA0C0F69D0A2EB030239
:1019900080EA010C49024FEA402037D04FF08053D3
:1019A00043EA111143EA10130CF000408B4238BF98
:1019B0005B0042F17D024FF4000C8B4224BF5B1AA6
:1019C00040EA0C00B3EB510F24BFA3EB510340EAF4
:1019D0005C00B3EB910F24BFA3EB910340EA9C00A2
:1019E000B3EBD10F24BFA3EBD10340EADC001B0112
:1019F00018BF5FEA1C1CE0D1FD2A3FF650AF8B42B6
:101A000040EBC25008BF20F0010070470CF0004CC2
:101A10004CEA50207F32C2BFD2F1FF0340EAC250ED
:101A2000704740F400004FF00003013A37E792F0AE
:101A3000000F00F0004C02BF400010F4000F013A0C
:101A4000F9D040EA0C0093F0000F01F0004C02BF07
:101A5000490011F4000F013BF9D041EA0C0195E770
:101A60000CEAD15392EA0C0F08D142027FF47DAF09
:101A700093EA0C0F7FF470AF084676E793EA0C0FF9
:101A800004D14B023FF44CAF08466EE730F0004CF7
:101A900018BF31F0004CCAD130F000427FF45CAF87
:101AA00031F000437FF43CAF5FE700BF4FF0FF3CF5
:101AB00006E000BF4FF0010C02E000BF4FF0010C48
:101AC0004DF804CD4FEA40024FEA41037FEA226C11
:101AD00018BF7FEA236C11D001B052EA530C18BF33
:101AE00090EA010F58BFB2EB030088BFC81738BF98
:101AF0006FEAE17018BF40F0010070477FEA226C86
:101B000002D15FEA402C05D17FEA236CE4D15FEA81
:101B1000412CE1D05DF8040B704700BF84460846B5
:101B20006146FFE70FB5FFF7C9FF002848BF10F176
:101B3000000F0FBD4DF808EDFFF7F4FF0CBF0120BB
:101B400000205DF808FB00BF4DF808EDFFF7EAFF45
:101B500034BF012000205DF808FB00BF4DF808ED00
:101B6000FFF7E0FF94BF012000205DF808FB00BFF5
:101B70004DF808EDFFF7D2FF94BF012000205DF87B
:101B800008FB00BF4DF808EDFFF7C8FF34BF012088
:101B900000205DF808FB00BF42000ED2B2F1FE4FFC
:101BA0000BD34FF09E03B3EB126209D44FEA00232C
:101BB00043F0004323FA02F070474FF000007047F3
:101BC00012F1610F01D1420202D14FF0FF30704794
:101BD0004FF00000704700BFF0B583B000263446D8
:101BE00071E0002D00F0A180012D00D1CE68FF2B07
:101BF00000F2AF808646FF2B00F2AE80A500DEF833
:101C000000200F27AF4022EA070206FA05F52A4313
:101C1000CEF800204A6812F0805F53D0634A95697D
:101C200045F001059561926902F001020192019A65
:101C3000A508AF1C5E4A52F8272004F00307BF0036
:101C40004FF00F0E0EFA07FE22EA0E02DFF870E1E7
:101C5000704500F088800EF5806E704500F086803B
:101C60000EF5806E704500F084800EF5806E704534
:101C700076D04FF0040E0EFA07F73A4302354C4F78
:101C800047F825204A6812F4803F75D0494D2A68EC
:101C90001A432A604A6812F4003F73D0454D6A68BF
:101CA0001A436A604A6812F4801F71D0414DAA68D5
:101CB0001A43AA604A6812F4001F6FD03D4DEA68CB
:101CC0001343EB6001340F2C6ED80122A2400B6845
:101CD00013409A42F6D14D68122D30D00BD8022D08
:101CE0002AD07FF67EAF032D2FD0112D7FF47FAF4A
:101CF000CE6804367BE7304FBD4216D00CD92F4F4B
:101D0000BD4212D007F58037BD420ED0A7F580172F
:101D1000BD427FF46CAF08E0A7F58017BD4204D048
:101D200007F58037BD427FF462AF8D687DB1012D2C
:101D300008D0426108265AE7CE68083657E7CE68D1
:101D40000C3654E70261082651E700264FE70426C7
:101D50004DE700F1040E4EE7A4F10805AD004EE793
:101D60004FF0030E87E74FF0000E84E74FF0010EAF
:101D700081E74FF0020E7EE70E4D2A6822EA030249
:101D80002A6087E70B4D6A6822EA03026A6089E7E6
:101D9000084DAA6822EA0302AA608BE7054DEA68AB
:101DA00022EA0303EB608DE703B0F0BD00100240B0
:101DB000000001400004014000002110000031102B
:101DC0000008014012B909040161704701617047C0
:101DD000074AD36823F4E0631B041B0C000200F4E1
:101DE000E060184340F0BF6040F40030D0607047BE
:101DF00000ED00E030B4164BDB68C3F30223C3F1FF
:101E00000704042C28BF04241D1D062D17D9033BED
:101E1000012505FA04F4013C2140994005FA03F339
:101E2000013B1340194300280BDB0901C9B200F143
:101E3000604000F5614080F8001330BC704700231B
:101E4000E6E700F00F000901C9B2024B1954F4E7AC
:101E500000ED00E014ED00E0420900F01F00012356
:101E600003FA00F0014B43F82200704700E100E064
:101E70000138B0F1807F0AD2064B5860F021064A43
:101E800082F823100020986007221A607047012012
:101E9000704700BF10E000E000ED00E0042805D02E
:101EA000054A136823F0040313607047024A13685D
:101EB00043F004031360704710E000E0842801D071
:101EC000033070470020704708B500F05DFE002029
:101ED00008BDF0B585B00F46446805680669B0F9DD
:101EE0000800FFF7EBFF03AB019300903B46B2B253
:101EF0002946204600F016FE012802D1039805B0BD
:101F0000F0BD0020FBE708B501F020F8012801D062
:101F100001F058FD08BD00000F4B1A6842F00102A5
:101F20001A6059680D4A0A405A601A6822F0847291
:101F300022F480321A601A6822F480221A605A68E9
:101F400022F4FE025A604FF41F029A604FF00062C2
:101F5000034B9A60704700BF001002400000FFF87A
:101F600000ED00E008B5074A136843F01003136062
:101F70000320FFF72DFF002000F0AAFC01F09AFDDE
:101F8000002008BD00200240034A1168034B1B7863
:101F90000B441360704700BFE42D00206800002050
:101FA000014B1868704700BFE42D002082B0084B39
:101FB0001B68084AA2FB03235B0A00FB03F00190A5
:101FC00000BF019B5A1E0192002BF9D102B070474D
:101FD00064000020D34D621070B582B004460368DF
:101FE00013F0010F3DD0AC4B5B6803F00C03042BE6
:101FF0002ED0A94B5B6803F00C03082B23D0636839
:10200000B3F5803F51D0002B55D103F1804303F548
:1020100004331A6822F480321A601A6822F480228B
:102020001A606368002B60D0FFF7BAFF05469A4B31
:102030001B6813F4003F14D1FFF7B2FF401B642864
:10204000F5D90320AFE1944B5B6813F4803FD6D001
:10205000914B1B6813F4003F03D06368002B00F022
:102060009F81236813F0020F65D08B4B5B6813F0E0
:102070000C0F4ED0884B5B6803F00C03082B43D049
:102080002369002B79D00122844B1A60FFF788FF67
:102090000546814B1B6813F0020F65D1FFF780FFE7
:1020A000401B0228F5D903207DE17B4A136843F4E5
:1020B00080331360B5E7B3F5A02F09D0764B1A68CB
:1020C00022F480321A601A6822F480221A60A8E78B
:1020D00003F18043A3F53C331A6842F480221A606E
:1020E0001A6842F480321A609BE7FFF759FF0546F1
:1020F000694B1B6813F4003FB3D0FFF751FF401B3F
:102100006428F5D903204EE1634B5B6813F4803FEC
:10211000B6D1614B1B6813F0020F04D02369012B69
:1021200001D001203FE15C4A136823F0F8036169A4
:1021300043EAC1031360236813F0080F32D0A36988
:10214000002B6ED00122564B1A60FFF729FF05467F
:10215000514B5B6A13F0020F21D1FFF721FF401BA7
:102160000228F5D903201EE14B4A136823F0F80337
:10217000616943EAC1031360DDE70022474B1A603F
:10218000FFF70EFF0546444B1B6813F0020FD2D039
:10219000FFF706FF401B0228F5D9032003E10120C9
:1021A000FFF704FF236813F0040F00F099803A4B07
:1021B000DB6913F0805F46D1374BDA6942F0805219
:1021C000DA61DB6903F080530193019B0125354BF4
:1021D0001B6813F4807F38D0E368012B49D0002BB3
:1021E0004DD103F1804303F504331A6A22F0010252
:1021F0001A621A6A22F004021A62E368002B5DD0A8
:10220000FFF7CEFE0646244B1B6A13F0020F66D181
:10221000FFF7C6FE801B41F288339842F3D90320B2
:10222000C1E000221E4B1A60FFF7BAFE05461A4BAA
:102230005B6A13F0020FB5D0FFF7B2FE401B022815
:10224000F5D90320AFE00025C1E7164A136843F42F
:1022500080731360FFF7A4FE0646124B1B6813F44D
:10226000807FB9D1FFF79CFE801B6428F5D903203D
:1022700099E0094A136A43F001031362BDE7052B95
:1022800012D0054B1A6A22F001021A621A6A22F071
:1022900004021A62B1E700BF00100240000042428F
:1022A0008004424200700040414B1A6A42F004022E
:1022B0001A621A6A42F001021A629EE7FFF770FE84
:1022C00006463B4B1B6A13F0020F08D0FFF768FE6F
:1022D000801B41F288339842F3D9032063E0E5B9CB
:1022E000E369002B5ED0324A526802F00C02082AE1
:1022F0005BD0022B17D000222E4B1A60FFF750FE46
:1023000004462B4B1B6813F0007F47D0FFF748FEB5
:10231000001B0228F5D9032045E0254AD36923F0A4
:102320008053D361DCE70022224B1A60FFF738FEAE
:1023300005461F4B1B6813F0007F06D0FFF730FEE9
:10234000401B0228F5D903202DE0236AB3F5803F16
:102350001AD017494B6823F47413226A606A024347
:1023600013434B600122134B1A60FFF719FE04461A
:102370000F4B1B6813F0007F0ED1FFF711FE001BFF
:102380000228F5D903200EE0094A536823F40033EC
:10239000A1680B435360DCE7002004E0002002E06A
:1023A000012000E0002002B070BD0120FBE700BF6B
:1023B000001002406000424210B586B0154C94E80F
:1023C0000F000DF1180E0EE90F00238AADF804304E
:1023D000114B5B6803F00C02082A18D1C3F3834247
:1023E000724412F8102C13F4803F03D10B4800FB09
:1023F00002F00DE0084B5B68C3F34043734413F8ED
:10240000143C074800FB02F0B0FBF3F000E0044886
:1024100006B010BD204600080010024000093D0033
:1024200000127A00594B1B6803F007038B420CD251
:10243000564A136823F007030B431360136803F035
:102440000703994201D00120704770B5036813F06B
:10245000020F06D04E4A536823F0F00384682343EA
:1024600053600D460446036813F0010F52D04368D1
:10247000012B23D0022B28D0454A126812F0020FFC
:1024800000F0828042494A6822F0030213434B6005
:10249000FFF786FD06466368012B1DD0022B2AD06C
:1024A0003B4B5B6813F00C0F34D0FFF779FD801BBA
:1024B00041F288339842F3D9032070BD344A126840
:1024C00012F4003FDED1012070BD314A126812F0D3
:1024D000007FD7D1012070BD2D4B5B6803F00C034A
:1024E000042B17D0FFF75CFD801B41F28833984224
:1024F000F2D9032070BD264B5B6803F00C03082B58
:1025000008D0FFF74DFD801B41F288339842F2D985
:10251000032070BD1D4B1B6803F007039D420CD2C6
:102520001A4A136823F007032B431360136803F060
:1025300007039D4201D0012070BD236813F0040FF2
:1025400006D0134A536823F4E063E1680B435360F9
:10255000236813F0080F07D00D4A536823F4605323
:10256000216943EAC1035360FFF726FF084B5B680C
:10257000C3F30313074AD35CD840074B186000200D
:1025800000F0A6F9002070BD012070BD00200240BF
:10259000001002404846000864000020014B186803
:1025A000704700BF6400002008B5FFF7F7FF044B39
:1025B0005B68C3F30223034AD35CD84008BD00BF65
:1025C000001002405846000808B5FFF7E7FF044B2B
:1025D0005B68C3F3C223034AD35CD84008BD00BF85
:1025E00000100240584600080F2303600B4B5A6846
:1025F00002F0030242605A6802F0F00282605A68F8
:1026000002F4E062C2605B68DB0803F4E06303612C
:10261000034B1B6803F007030B6070470010024078
:10262000002002407047FEE7FEE7FEE7FEE7704746
:1026300008B5FFF768FC08BD08B5024800F003FEC6
:1026400008BD00BFE82D002090F83C30012B22D0BF
:1026500030B4012280F83C20022380F83D30046829
:10266000636823F070036360046863680D682B433C
:1026700063600468A36823F08003A3600468A36810
:1026800049680B43A36080F83D20002380F83C306C
:10269000184630BC704702207047704770470000F2
:1026A000124A12F0070F1ED0D11D21F00701C1F50B
:1026B000406313440A460E480260002141601344FF
:1026C000083B23F007030B48036059601960991A0F
:1026D00051601360084B1960084B19604FF00042BD
:1026E000074B1A6070474FF44063E4E79C200020DA
:1026F000A82C002098200020A42C0020A02C002032
:102700009C2C002010B4124B1A6882421AD35968CC
:102710005C18A04203D140680144596018464168E2
:102720004418A24212D10B4C2468A2420CD0526829
:10273000114441601A6812680260984200D0186023
:1027400010BC70471346DFE70460F6E70260F4E769
:10275000A82C00209820002070B5044600F052FA02
:102760003A4B1B68BBB13A4B1B681C4263D1ACB1FE
:10277000083414F0070F11D024F00704083404F0D3
:1027800007035BB14FF0500383F31188BFF36F8FE2
:10279000BFF34F8FFEE7FFF783FFE4E7002C4CD039
:1027A0002C4B1B689C424AD82B4B1D6801E02B46E2
:1027B00015466A68944202D92A68002AF7D1234A4A
:1027C000126895423DD01E6808362A681A606B6808
:1027D0001B1B102B10D9281910F0070F08D04FF031
:1027E000500383F31188BFF36F8FBFF34F8FFEE762
:1027F00043606C60FFF786FF6A6816490B689B1A96
:102800000B60164909688B4201D214490B60104BCA
:102810001B6813436B6000232B6000F08BFA16F0EB
:10282000070F10D04FF0500383F31188BFF36F8F61
:10283000BFF34F8FFEE70026EFE70026EDE7002607
:10284000EBE70026E9E7304670BD00BF9820002086
:102850009C2C0020A02C0020A82C0020A42C0020C0
:1028600080B338B50446A0F1080550F8042C164989
:1028700009680A4208D14FF0500383F31188BFF36F
:102880006F8FBFF34F8FFEE750F8080C40B14FF049
:10289000500383F31188BFF36F8FBFF34F8FFEE7B1
:1028A00022EA010244F8042C00F0ACF954F8041CAC
:1028B000064A13680B4413602846FFF723FF00F015
:1028C00039FA38BD704700BF9C2C0020A02C002096
:1028D00000B589B0002201461E20FFF78BFA1E20AA
:1028E000FFF7BAFA154BDA6942F00402DA61DB69E4
:1028F00003F004030193019B02A903A8FFF774FEF0
:10290000FFF752FE43000E48A0FB03239B0C013B44
:102910000C480D4A026040F2E732C2604360002377
:102920000361836000F088FD18B1012009B05DF8F3
:1029300004FB044800F057FCF8E700BF0010024019
:1029400083DE1B43E82D0020000800400A4B1B6873
:102950001B684BB901234BB9074B1B68DB68DB686D
:102960005A68064B1A6070470023F4E74FF0FF32B5
:10297000024B1A60704700BFB42C00208C2D002041
:1029800010B50446006BFFF76BFF2046FFF768FFAA
:1029900010BD2DE9F04780469946089D099F0A9C85
:1029A000266B02F18042013A06EB820626F007060A
:1029B00000230F2B07D8C85CE21882F83400CA5CE9
:1029C0000AB10133F5E7002384F84330062D00D91E
:1029D0000625E56265644FF0000AC4F848A0201D92
:1029E00000F019FF04F1180000F015FF2461C5F193
:1029F0000705A5616462C4F84CA084F850A04A465B
:102A00004146304600F054FF206007B13C60BDE80D
:102A1000F087000038B5002407E004EB840293003F
:102A20000E48184400F0ECFE0134062CF5D90C4D8C
:102A3000284600F0E5FE0B4C204600F0E1FE0A4877
:102A400000F0DEFE094800F0DBFE094800F0D8FE89
:102A5000084B1D60084B1C6038BD00BFBC2C00201B
:102A6000602D0020742D0020942D0020C02D00200A
:102A7000AC2D0020B42C0020B82C002010B504464A
:102A800000F040FF204A1368013313601F4B1B689E
:102A9000002B31D01E4B1B683BB91C4B1B68DA6AFC
:102AA000E36A9A4201D8194B1C601A4A1368013331
:102AB0001360E36A01229A401749086802430A60DA
:102AC00003EB83039A00211D1448104400F0A6FE76
:102AD00000F03AFF0E4B1B686BB10C4B1B68DA6AB7
:102AE000E36A9A4207D24FF080520D4B1A60BFF34F
:102AF0004F8FBFF36F8F10BD044B1C601368012B09
:102B0000D3D1FFF787FFD0E7482D0020B02C00205D
:102B1000A82D0020582D00205C2D0020BC2C00206A
:102B200004ED00E02DE9F04385B006460F4615465A
:102B300098469000FFF710FE00B381465420FFF73F
:102B40000BFE0446B0B1C0F83090CCB10023039323
:102B500002940D9B01930C9B009343462A463946F1
:102B60003046FFF716FF2046FFF788FF012005B02B
:102B7000BDE8F0834846FFF773FEE6E70024E4E78C
:102B80004FF0FF30F3E7000000B583B0174B01931F
:102B900000230093802216491648FFF7C3FF01283F
:102BA00005D0B0F1FF3F17D003B05DF804FB4FF044
:102BB000500383F31188BFF36F8FBFF34F8F4FF034
:102BC000FF320D4B1A6001220C4B1A6000220C4B95
:102BD0001A6000F023FFE7E74FF0500383F31188FA
:102BE000BFF36F8FBFF34F8FFEE700BF882D00202C
:102BF000604600088D2E00088C2D0020A82D002096
:102C0000D42D0020024A136801331360704700BFBF
:102C1000542D0020F8B53C4B1B68002B68D13B4B72
:102C20001D6801351D60C5B9394B1B681B6843B170
:102C30004FF0500383F31188BFF36F8FBFF34F8FB3
:102C4000FEE7334A1168334B186810601960324A46
:102C5000136801331360FFF779FE304B1B689D4208
:102C60003AD200242E4B1B68DB6A03EB83039A00E5
:102C70002C4B9B58012B40D901243EE00124244BCE
:102C80001B681B6853B3002353BB214B1B68DB68D5
:102C9000DE6873689D4228D3371D384600F0CAFDB0
:102CA000B36A1BB106F1180000F0C4FDF36A0122FB
:102CB0009A401D49086802430A6003EB83039A00A7
:102CC00039461848104400F0A9FDF26A144B1B68FD
:102CD000DB6A9A42D2D2D2E70024D0E70123D3E7BD
:102CE0004FF0FF320D4B1A60BCE70C4A1360B9E796
:102CF0000E4A13680133136000240D4B1B6803B1A7
:102D000001242046F8BD00BF542D0020D42D002002
:102D1000B42C0020B82C0020902D00208C2D0020F9
:102D2000B02C0020BC2C00205C2D0020502D002059
:102D3000D82D002038B5354B1B6843B94FF05003F0
:102D400083F31188BFF36F8FBFF34F8FFEE700F05F
:102D5000D9FD2E4B1A68013A1A601B68002B50D11E
:102D60002B4B1B6823B9002400F0EEFD204638BD34
:102D70000024284B1B681BB3264BDB68DC6804F17E
:102D8000180000F057FD251D284600F053FDE36AAA
:102D900001229A402049086802430A6003EB83033A
:102DA0009A0029461D48104400F038FDE26A1C4B89
:102DB0001B68DB6A9A42DCD301221A4B1A60D8E7FF
:102DC0000CB1FFF7C3FD184B1C6874B9154B1B6899
:102DD000CBB14FF08052154B1A60BFF34F8FBFF34A
:102DE0006F8F0124C0E7013C07D0FFF713FF0028D5
:102DF000F9D001220B4B1A60F5E700220A4B1A604A
:102E0000E4E70024B0E70024AEE700BF542D002023
:102E1000482D0020942D00205C2D0020BC2C00208B
:102E2000B02C0020D82D0020502D002004ED00E013
:102E3000134B1B6813B310B5FFF7E4FE114B1C686E
:102E4000FFF778FF24B90E4B1B68002BF4D110BD9F
:102E500000F058FD0B4BDB68DC68201D00F0EAFC3D
:102E6000094A1368013B1360054A1368013B13606C
:102E700000F06AFD2046FFF783FDE4E7704700BFDE
:102E80004C2D0020C02D0020482D002008B5FFF754
:102E9000CFFF064B1B68012BF9D94FF08052044B32
:102EA0001A60BFF34F8FBFF36F8FF0E7BC2C002089
:102EB00004ED00E0204B1B68C3B900221F4B1A60D1
:102EC0001F4B1B68B3FA83F3DBB2C3F11F0303EBA1
:102ED00083018A001B498A5862B94FF0500383F37B
:102EE0001188BFF36F8FBFF34F8FFEE70122134BA3
:102EF0001A60704710B413489A00D418A100014416
:102F00004C6864684C601A4491000831084484425B
:102F10000AD003EB83039A000A4B13445B68DA6818
:102F2000094B1A6010BC7047606803EB8302910084
:102F3000044A0A445060ECE7542D0020D82D0020AC
:102F40005C2D0020BC2C0020B02C0020054B1B6801
:102F500023B1054B1B681BB9022070470120704745
:102F600000207047A82D0020542D002030B4036AA3
:102F700023F001030362036A4468826922F073024A
:102F80000D682A4323F002038D682B430D4DA842A0
:102F900009D00C4DA8420DD0446082614A6842635A
:102FA000036230BC704723F00803CD682B4323F045
:102FB0000403EEE724F440744D692C438D692C43DF
:102FC000EAE700BF002C014030B4036A23F48073A9
:102FD0000362036A4468C26922F073020D682A43DF
:102FE00023F400738D6843EA05230F4DA84209D0EE
:102FF0000D4DA8420ED04460C2614A68C2630362AC
:1030000030BC704723F40063CD6843EA052323F402
:103010008063EDE724F440544D6944EA05148D695A
:1030200044EA0514E7E700BF002C014030B4036A0E
:1030300023F480530362036A4468C26922F4E642BF
:103040000D6842EA052223F400538D6843EA0533F4
:10305000074DA84206D04460C2614A680264036218
:1030600030BC704724F480444D6944EA8514F2E78B
:10307000002C014010B4036A046A24F001040462C5
:10308000846924F0F00444EA021223F00A030B439B
:103090008261036210BC704730B4046A24F01004EB
:1030A00004628469056A24F4407444EA022222F42A
:1030B00070421B039BB21A4325F0A005090101F0E1
:1030C000A0010D438261056230BC704710B4036AF1
:1030D00023F0100303628469036A24F4704444EA11
:1030E000023223F0A00343EA01138261036210BCA1
:1030F000704730B4046A24F480740462C469056AB9
:1031000024F00304224322F0F0021B01DBB21A4335
:1031100025F42065090201F420610D43C2610562B6
:1031200030BC704730B4046A24F480540462C4692B
:10313000056A24F4407444EA022222F470421B031C
:103140009BB21A4325F40055090301F400510D43C5
:10315000C261056230BC704710B4846824F47F44B7
:1031600042EA032319430C43846010BC704710B536
:103170000268936823F070034C68234323F007032D
:103180000C68234393604B68502B1FD00AD9602BE7
:1031900022D0702B25D10B698A68C9680068FFF7B7
:1031A000DBFF10BD402B10D103681C6A1A6A22F0A5
:1031B00001021A620268936923F0F003096943EA85
:1031C0000113936103681C6210BD10BD0A69896810
:1031D0000068FFF74FFF10BD0A6989680068FFF7B4
:1031E00075FF10BD70470268D36843F00103D360D8
:1031F0000268136843F0010313600020704738B57C
:1032000090F83C30012B01D1022038BD0446012545
:1032100080F83C50022380F83D30FFF7A8FF226879
:10322000D36823F04003D3602268D36823F480433B
:10323000D36084F83D50002084F83C0038BD7047CE
:1032400070477047704710B5044603681A6912F05A
:10325000020F11D0DA6812F0020F0DD06FF00202E7
:103260001A610123037703689B6913F0030F70D081
:10327000FFF7E6FF0023237723681A6912F0040F93
:1032800012D0DA6812F0040F0ED06FF004021A6147
:103290000223237723689B6913F4407F5FD0204685
:1032A000FFF7CEFF0023237723681A6912F0080F77
:1032B00012D0DA6812F0080F0ED06FF008021A610F
:1032C000042323772368DB6913F0030F4ED02046D5
:1032D000FFF7B6FF0023237723681A6912F0100F57
:1032E00012D0DA6812F0100F0ED06FF010021A61CF
:1032F000082323772368DB6913F4407F3DD0204601
:10330000FFF79EFF0023237723681A6912F0010F4D
:1033100003D0DA6812F0010F36D123681A6912F06F
:10332000800F03D0DA6812F0800F34D123681A6955
:1033300012F0400F03D0DA6812F0400F32D1236848
:103340001A6912F0200F03D0DA6812F0200F30D182
:1033500010BDFFF774FF2046FFF773FF8AE7204692
:10336000FFF76DFF2046FFF76CFF9BE72046FFF756
:1033700066FF2046FFF765FFACE72046FFF75FFFDB
:103380002046FFF75EFFBDE76FF001021A6120469D
:1033900000F08EFDC1E76FF080021A612046FFF752
:1033A0007DF9C3E76FF040021A612046FFF74AFF3C
:1033B000C5E76FF020021A612046FFF76EF9C7E7F4
:1033C00003681C4A904227D0B0F1804F24D0A2F568
:1033D0009432904220D002F5806290421CD0154A6F
:1033E00090421ED0B0F1804F1BD0A2F59432904293
:1033F00017D002F58062904213D023F080034A690F
:10340000134303608B68C3620B688362094B984265
:103410000CD001234361704723F070034A681343C3
:10342000DDE723F44073CA681343E6E70B690363DF
:10343000EFE700BF002C0140A8B110B5044690F89A
:103440003D305BB1022384F83D30211D2068FFF739
:10345000B7FF012384F83D30002010BD80F83C30D8
:10346000FFF7C0FEEEE701207047A8B110B5044693
:1034700090F83D305BB1022384F83D30211D206877
:10348000FFF79EFF012384F83D30002010BD80F837
:103490003C3000F08DFBEEE701207047A8B110B57D
:1034A000044690F83D305BB1022384F83D30211D85
:1034B0002068FFF785FF012384F83D30002010BD10
:1034C00080F83C3000F088FBEEE7012070470000F8
:1034D00030B4036A23F010030362036A446882690C
:1034E00022F4E6420D6842EA052223F020038D68AB
:1034F00043EA05130E4DA84209D00D4DA8420ED047
:10350000446082614A688263036230BC704723F082
:103510008003CD6843EA051323F04003EDE724F46C
:1035200040644D6944EA85048D6944EA8504E7E70F
:10353000002C014038B590F83C30012B66D00D4688
:103540000446012380F83C30022380F83D300C2AE9
:103550001AD8DFE802F007191919201919193419B6
:10356000191947000068FFF701FD2268936943F0CD
:10357000080393612268936923F00403936122682E
:10358000936929690B439361012384F83D3000203E
:1035900084F83C0038BD0068FFF79AFF2268936901
:1035A00043F4006393612268936923F48063936119
:1035B00022689369296943EA01239361E4E700687B
:1035C000FFF702FD2268D36943F00803D361226844
:1035D000D36923F00403D3612268D36929690B43BB
:1035E000D361D1E70068FFF721FD2268D36943F476
:1035F0000063D3612268D36923F48063D3612268B6
:10360000D369296943EA0123D361BDE7022038BDAC
:1036100070B4046A24F0010404628469056A164ED9
:10362000B0421ED0B0F1804F1DD0A6F59436B04206
:103630001BD006F58066B04211D00026BEB944F01A
:10364000010222F0F0021B01DBB2134325F00A0253
:1036500001F00A0111438361016270BC70470126C9
:10366000ECE70126EAE70126E8E70126E6E724F091
:1036700003042243E5E700BF002C014038B590F871
:103680003C30012B58D00D460446012380F83C30D5
:10369000022380F83D30DAB1042A2AD0082A3AD031
:1036A000CB684A6809680068FFF73CFD2268D36967
:1036B00023F44063D3612268D369A96843EA0123F4
:1036C000D361012384F83D30002084F83C0038BDEC
:1036D000CB684A6809680068FFF79AFF2268936917
:1036E00023F00C03936122689369A9680B439361EB
:1036F000E7E7CB684A6809680068FFF7CDFC2268F5
:10370000936923F44063936122689369A96843EA4B
:1037100001239361D5E7CB684A6809680068FFF721
:10372000E8FC2268D36923F00C03D3612268D369D3
:10373000A9680B43D361C4E7022038BD10B401234C
:1037400003FA01F4036A23EA04030362036A8A406A
:103750001343036210BC704710B504460122006891
:10376000FFF7ECFF2368074A934206D022681368EC
:1037700043F001031360002010BD5A6C42F4004274
:103780005A64F3E7002C014010B50446012200689A
:10379000FFF7D4FF2268136843F001031360002091
:1037A00010BD10B504460C290DD8DFE801F0070C58
:1037B0000C0C170C0C0C1D0C0C0C23000268D368AD
:1037C00043F00203D36001222068FFF7B7FF2268AD
:1037D000136843F001031360002010BD0268D36832
:1037E00043F00403D360EEE70268D36843F00803B4
:1037F000D360E8E70268D36843F01003D360E2E7E0
:1038000000F1080343604FF0FF328260C360036140
:1038100000230360704700230361704743684B60D7
:103820009A688A609A6851609960086103680133F8
:1038300003607047036942688168916082684168EB
:1038400051605A68904205D0002202611868013820
:103850001860704782685A60F6E700000B4B1B68DF
:10386000B3F1FF3F08D04FF0500383F31188BFF34B
:103870006F8FBFF34F8FFEE74FF0500383F3118834
:10388000BFF36F8FBFF34F8FFEE700BF6C000020C8
:1038900006480068006880F3088862B661B6BFF326
:1038A0004F8FBFF36F8F00DF00BF000008ED00E017
:1038B0004FF0807340F8043C21F0010140F8081CEF
:1038C000034B40F80C3C40F8202C4038704700BFB8
:1038D0005D3800080000000000000000000000004B
:1038E000074B19680868B0E8F00F80F30988BFF348
:1038F0006F8F4FF0000080F311884EF00D0E70476F
:10390000B02C00204FF0500383F31188BFF36F8F6A
:10391000BFF34F8F0A4A136801331360012B0DD197
:10392000084B1B6813F0FF0F08D04FF0500383F3D0
:103930001188BFF36F8FBFF34F8FFEE7704700BF53
:103940006C00002004ED00E0094B1B6843B94FF008
:10395000500383F31188BFF36F8FBFF34F8FFEE7E0
:10396000013B034A13600BB983F31188704700BF12
:103970006C000020000000000000000000000000BB
:10398000EFF30980BFF36F8F0D4B1A6820E9F00F3A
:1039900010602DE908404FF0500080F31188FFF7C8
:1039A00089FA4FF0000080F31188BDE808401968DB
:1039B0000868B0E8F00F80F30988BFF36F8F704795
:1039C000B02C002008B54FF0500383F31188BFF3EB
:1039D0006F8FBFF34F8FFFF71DF918B14FF0805273
:1039E000024B1A60002383F3118808BD04ED00E048
:1039F000064B1B68064AA2FB03239B09013B054AB1
:103A000013600722044B1A60704700BF6400002057
:103A1000D34D621014E000E010E000E000B583B088
:103A20001F4B1A78D2B20192FF221A701B78DBB2B8
:103A30008DF803309DF8033003F05003194A1370DA
:103A40000722194B1A6009E0174A1368013B1360FB
:103A50009DF803305B00DBB28DF803309DF8033036
:103A600013F0800FF0D1104A13681B0203F4E063D7
:103A70001360019BDBB20A4A13700C4B1A6842F4C4
:103A800070021A601A6842F070421A60FFF7B0FFC5
:103A90000022074B1A60FFF7FBFEFFF7DFFE00BFB7
:103AA00000E400E0DC2D0020E02D002020ED00E00F
:103AB0006C00002000B583B0204B9A6942F00102EF
:103AC0009A619B6903F001030193019B0320FEF7B8
:103AD0007FF9002211466FF00B00FEF78BF90022F0
:103AE00011466FF00A00FEF785F9002211466FF0CB
:103AF0000900FEF77FF9002211466FF00400FEF77F
:103B000079F9002211466FF00300FEF773F90022E5
:103B10000F216FF00100FEF76DF900220F214FF029
:103B2000FF30FEF767F9064A536823F0E06343F07D
:103B30008063536003B05DF804FB00BF00100240D7
:103B4000000001400268174B9A4200D0704710B540
:103B500086B003F560439A6942F480529A619B698A
:103B600003F480530193019B2823029302230393C0
:103B7000032305930C4C02A92046FEF72DF81023D1
:103B8000029300230393049302A92046FEF724F82E
:103B9000064A536843F0E06343F00103536006B004
:103BA00010BD00BF00300140000C0140000001408A
:103BB0000368B3F1804F00D0704782B003F504333F
:103BC000DA6942F00102DA61DB6903F00103019373
:103BD000019B02B0F0E7000002680E4B9A4200D051
:103BE000704700B587B003F50333DA6942F002028B
:103BF000DA61DB6903F002030193019B4023029326
:103C000000230393049302A90348FDF7E5FF07B0DF
:103C10005DF804FB00040040000801400368B3F1B4
:103C2000804F00D0704700B585B007230093022372
:103C30000193039369460348FDF7CEFF05B05DF895
:103C400004FB00BF000801400268144B9A4200D0F8
:103C5000704710B586B003F558439A6942F4804224
:103C60009A619B6903F480430193019B4FF40073B5
:103C700002930223039303230593094C02A92046D0
:103C8000FDF7AAFF4FF4806302930023039304938C
:103C900002A92046FDF7A0FF06B010BD0038014084
:103CA00000080140F0B589B01F4B9A6942F020022C
:103CB0009A619A6902F020020192019A9A6942F08F
:103CC00004029A619A6902F004020292029A9A69C5
:103CD00042F008029A619B6903F008030393039B77
:103CE000124F00224FF480513846FEF76BF8104C0B
:103CF00000224FF400412046FEF764F84FF4805351
:103D00000493012605960225079504A93846FDF778
:103D100063FF4FF4004304930596079504A92046DA
:103D2000FDF75AFF09B0F0BD00100240000C014041
:103D3000000801402DE9F0419AB00546304B1B6860
:103D40009C6BC4EBC404C4EB04342E4BA3FB0434BF
:103D5000E40B04F62514C4F30B04204600F008FC21
:103D6000FDF700FD2946FDF751FD064600212846D6
:103D7000FDF7EAFE00283FD14FF0000831464046EB
:103D8000FDF73CFCFDF708FF87B2204600F0F6FB8C
:103D9000FDF7E8FC2946FDF739FD01464046FDF7F1
:103DA0002DFCFDF7F9FE86B2204600F0F7FBFDF78B
:103DB000D9FC2946FDF72AFD01464046FDF71EFCC9
:103DC000FDF7EAFE80B2104B1B683F015F633601CE
:103DD0009E630001D8630A4B1B689A6B0B4901A8CC
:103DE000FCF7D2FA4FF0FF33642201A9084800F033
:103DF0000CFB1AB0BDE8F0814FF08B48BEE700BF66
:103E0000302E002001800080082F00207C46000812
:103E1000702E002010B584B04FF48053009301231E
:103E200001930323039369461C48FDF7D5FE1C4A02
:103E30001C4B1A601C4C04212046FFF7B2FC0021E9
:103E40002046FFF7A1FC194C00212046FFF784FC17
:103E500004212046FFF780FC08212046FFF77CFC68
:103E600000240BE001224FF480510C48FDF7AAFF1B
:103E700007E001344FF07E50FFF75CFFB4F5FA6FB6
:103E8000F0D040F6FF739C42F3D100224FF48051F2
:103E90000248FDF797FF0024EBE700BF000C01404C
:103EA000744600082C2E0020302E0020082F002001
:103EB00008B50268034B9A4200D008BDFEF764F8CB
:103EC000FBE700BF00080040FEE7000000B58DB032
:103ED00029482A4B03600023436083604FF6FF723A
:103EE000C26003618361FFF7D9FA00282BD1042354
:103EF000079350230893002309930A930B9307A970
:103F00001D48FFF77CF918BB00220392012304939C
:103F10000592069203A91848FFF7B0FBE8B90223FF
:103F200003930493042203A91348FFF7A7FBC8B91E
:103F300000230193029301A90F48FEF785FBB0B956
:103F40000DB05DF804FB4FF49F710D48FFF7BCFF07
:103F50004FF4A4710A48FFF7B7FF40F25111084827
:103F6000FFF7B2FF4FF4AC710548FFF7ADFF40F229
:103F70005F110348FFF7A8FF302E00200004004027
:103F80006846000808B51048104B03604FF4827370
:103F90004360002383604FF40062C260022202612A
:103FA000012242614FF4007282612022C2610362E9
:103FB000436283620A23C36200F098FA00B908BD25
:103FC000F7210348FFF780FFB02E002000300140AA
:103FD0006846000808B50B480B4B03604FF4E1330B
:103FE000436000238360C36003610C2242618361EC
:103FF000C36100F0DBF900B908BD4FF4B9710348A3
:10400000FFF762FF702E002000380140684600086C
:1040100000B58BB02B484FF0804303600023436012
:1040200083604FF6FF72C26003618361FFF71DFA80
:1040300070BB00230893099308A92248FEF704FBEC
:1040400058BB7023019347F230530293022303932A
:104050000022059201A91B48FFF76CFA10BB4FF430
:104060007A73029304220DEB02011648FFF762FAFD
:10407000E8B94EF660230293082201A91148FFF720
:1040800059FAC8B90F48FFF7C9FD0BB05DF804FB3A
:1040900040F20B110C48FFF717FF4FF489710A48E3
:1040A000FFF712FF40F21B110748FFF70DFF40F228
:1040B00021110548FFF708FF40F227110248FFF7DA
:1040C00003FF00BF082F00206846000800B591B02C
:1040D000012206924FF480330793002108910A923F
:1040E00002220D920E934FF4E0130F9306A8FDF7F2
:1040F00073FF08BB0F230193022102910023039356
:104100004FF480620492059301A8FEF78BF9B8B9C9
:10411000FEF744FA0C4BA3FB00308009FDF7A8FE24
:104120000420FDF7BBFE00220F214FF0FF30FDF70A
:1041300061FE11B05DF804FBC7210448FFF7C4FE1F
:10414000D5210248FFF7C0FED34D62106846000833
:1041500000B587B0FDF706FFFFF7B8FFFFF7A2FD38
:10416000FFF7B4FEFFF70EFFFFF734FFFFF750FF36
:1041700001AC074D0FCD0FC42B682360002101A8AF
:10418000FDF7A7FE034B1860FDF79EFEFEE700BF9C
:1041900034460008282E00202DE9F0470546026825
:1041A000136923F44053C1680B43136183680269A8
:1041B0001343426913430168CA6822F4B05222F0E3
:1041C0000C021343CB600268536923F44073816986
:1041D0000B435361D0F80080594B984557D0FEF7F8
:1041E000E3F900EB800000EB80006C68A400B0FBFA
:1041F000F4F4544FA7FB043464092601FEF7D4F904
:1042000000EB800000EB80006C68A400B0FBF4FAC7
:10421000FEF7CAF900EB800000EB80006C68A40098
:10422000B0FBF4F4A7FB043464094FF0640909FB04
:1042300014A424013234A7FB0434640904F0F0040C
:104240003444FEF7B1F900EB800000EB80006E68AB
:10425000B600B0FBF6F6FEF7A7F900EB800000EB26
:1042600080006B689B00B0FBF3F0A7FB00304009B7
:1042700009FB10694FEA091909F13209A7FB09374F
:10428000C7F343172744C8F80870BDE8F087FEF766
:104290009BF900EB800000EB80006C68A400B0FB91
:1042A000F4F4284FA7FB043464092601FEF78CF9C7
:1042B00000EB800000EB80006C68A400B0FBF4FA17
:1042C000FEF782F900EB800000EB80006C68A40030
:1042D000B0FBF4F4A7FB043464094FF0640909FB54
:1042E00014A424013234A7FB0434640904F0F0045C
:1042F0003444FEF769F900EB800000EB80006E6843
:10430000B600B0FBF6F6FEF75FF900EB800000EBBD
:1043100080006B689B00B0FBF3F3A7FB03235B09F2
:1043200009FB13694FEA091909F13209A7FB09379B
:10433000C7F343172744C8F80870BDE8F08700BFEB
:10434000003801401F85EB512DE9F04105460F462D
:1043500016469846069C2B681B6837EA03030CBF79
:1043600001230023B3421ED1B4F1FF3FF3D02CB19F
:10437000FDF716FEA0EB08008442ECD22A68D36851
:1043800023F4D073D3602A68536923F00103536187
:10439000202385F8393085F83A30002385F8383005
:1043A0000320BDE8F0810020BDE8F08158B310B5CE
:1043B000044690F839300BB3242384F8393022684E
:1043C000D36823F40053D3602046FFF7E5FE22684C
:1043D000136923F4904313612268536923F02A037D
:1043E00053612268D36843F40053D3600020E06334
:1043F000202384F8393084F83A3010BD80F8383002
:10440000FFF722FCD8E7012070472DE9F04182B088
:104410001E4690F83930DBB2202B04D00223184618
:1044200002B0BDE8F08104460D469046002955D003
:10443000002A55D090F83830012B01D10223EEE745
:10444000012380F838300023C363212380F83930FA
:10445000FDF7A6FD0746A4F82480A4F8268010E006
:1044600000963B46002280212046FFF76DFF002882
:1044700038D122682B88C3F3080353602369CBB972
:104480000235E38C9BB2BBB1E38C9BB2013B9BB288
:10449000E384A368B3F5805FE2D000963B46002238
:1044A00080212046FFF750FFF0B923682A785A6030
:1044B0000135E6E70135E4E700963B46002240215E
:1044C0002046FFF741FF034608B10323A7E7202258
:1044D00084F83920002284F83820A0E701239EE7E1
:1044E00001239CE703239AE7032398E700283CD0A5
:1044F00010B504460023836290F85130002B31D070
:10450000022384F851302268136823F040031360BB
:1045100022686368A1680B43E1680B4321690B4380
:1045200061690B43A16901F400710B43E1690B431D
:10453000216A0B43A16A0B4313602268638B03F06B
:104540000403616A0B4353602368E26A1A612268BC
:10455000D36923F40063D36100206065012384F8EC
:10456000513010BDFFF7EEFACAE701207047000096
:10457000014B33F8100070477000002000F6AB20AC
:104580004342C0F30B00C3F30B0358BF5842024B26
:1045900033F81000704700BF7000002000F2555043
:1045A0004342C0F30B00C3F30B0358BF5842024B06
:1045B00033F81000704700BF70000020002103E0B6
:1045C0000B4B5B58435004310A480B4B42189A423C
:1045D000F6D30A4A02E0002342F8043B084B9A4211
:1045E000F9D3FDF799FCFBF7E5FDFFF7B1FD704747
:1045F000DC46000800000020702000207020002011
:104600004C2F0020FEE70000F8B500BFF8BC08BC46
:104610009E467047F8B500BFF8BC08BC9E46704780
:1046200002030405060708090A0B0C0D0E0F1010F3
:104630000102000088460008153E00080000000046
:1046400000000000800000000000000000000000EA
:104650000102030406070809000000000102030428
:1046600049444C45000000005372632F6D61696E30
:104670002E6300006E6F6E65000000007468657444
:10468000613A20256C640A0064656661756C745437
:1046900061736B0043000000232D302B20000000CD
:1046A000686C4C0065666745464700003031323320
:1046B000343536373839414243444546000000001E
:1046C0003031323334353637383961626364656688
:0446D00000000000E6
:0446D4007D0100085C
:0446D8005501000880
:1046DC0004000020000000000000000000000000AA
:1046EC0000000000000000000000000000000000BE
:1046FC0000000000944600080000000000000000CC
:10470C00000000000000000000000000000000009D
:10471C00000000000000000000000000000000008D
:10472C00000000000000000000000000000000007D
:10473C000000000000A24A0401000000AAAAAAAAD4
:10474C0000080308060809080C080F0812081508C9
:10475C0019081C081F082208250828082B082F08F0
:10476C003208350838083B083E0841084508480817
:10477C004B084E085108540857085B085E0861083E
:10478C00640867086A086D087108740877087A0865
:10479C007D088008830886088A088D08900893088D
:1047AC00960899089C08A008A308A608A908AC08B4
:1047BC00AF08B208B508B908BC08BF08C208C508DC
:1047CC00C808CB08CE08D208D508D808DB08DE0804
:1047DC00E108E408E708EB08EE08F108F408F7082C
:1047EC00FA08FD080009040907090A090D0910094E
:1047FC001309160919091C09200923092609290975
:10480C002C092F093209350938093C093F0942099D
:10481C00450948094B094E095109540957095B09C7
:10482C005E096109640967096A096D0970097309F0
:10483C00760979097D0980098309860989098C091A
:10484C008F099209950998099B099E09A209A50946
:10485C00A809AB09AE09B109B409B709BA09BD0970
:10486C00C009C309C609C909CC09D009D309D6099D
:10487C00D909DC09DF09E209E509E809EB09EE09C8
:10488C00F109F409F709FA09FD09000A030A060AF5
:10489C00090A0D0A100A130A160A190A1C0A1F0A19
:1048AC00220A250A280A2B0A2E0A310A340A370A48
:1048BC003A0A3D0A400A430A460A490A4C0A4F0A78
:1048CC00520A550A580A5B0A5E0A610A640A670AA8
:1048DC006A0A6D0A700A730A760A790A7C0A7F0AD8
:1048EC00820A850A880A8B0A8E0A910A940A970A08
:1048FC009A0A9D0AA00AA30AA60AA90AAC0AAE0A39
:10490C00B10AB40AB70ABA0ABD0AC00AC30AC60A6F
:10491C00C90ACC0ACF0AD20AD50AD80ADB0ADE0A9F
:10492C00E10AE30AE60AE90AEC0AEF0AF20AF50AD6
:10493C00F80AFB0AFE0A010B040B070B090B0C0B04
:10494C000F0B120B150B180B1B0B1E0B210B240B37
:10495C00260B290B2C0B2F0B320B350B380B3B0B6F
:10496C003D0B400B430B460B490B4C0B4F0B510BA8
:10497C00540B570B5A0B5D0B600B630B650B680BE1
:10498C006B0B6E0B710B740B760B790B7C0B7F0B1B
:10499C00820B850B870B8A0B8D0B900B930B950B56
:1049AC00980B9B0B9E0BA10BA40BA60BA90BAC0B92
:1049BC00AF0BB10BB40BB70BBA0BBD0BBF0BC20BD0
:1049CC00C50BC80BCA0BCD0BD00BD30BD60BD80B0E
:1049DC00DB0BDE0BE10BE30BE60BE90BEB0BEE0B4E
:1049EC00F10BF40BF60BF90BFC0BFF0B010C040C8D
:1049FC00070C090C0C0C0F0C120C140C170C1A0CC9
:104A0C001C0C1F0C220C240C270C2A0C2D0C2F0C0C
:104A1C00320C350C370C3A0C3D0C3F0C420C450C4F
:104A2C00470C4A0C4C0C4F0C520C540C570C5A0C97
:104A3C005C0C5F0C620C640C670C690C6C0C6F0CDE
:104A4C00710C740C770C790C7C0C7E0C810C840C26
:104A5C00860C890C8B0C8E0C900C930C960C980C71
:104A6C009B0C9D0CA00CA20CA50CA80CAA0CAD0CBC
:104A7C00AF0CB20CB40CB70CB90CBC0CBE0CC10C0A
:104A8C00C30CC60CC90CCB0CCE0CD00CD30CD50C57
:104A9C00D80CDA0CDD0CDF0CE20CE40CE70CE90CA6
:104AAC00EB0CEE0CF00CF30CF50CF80CFA0CFD0CFA
:104ABC00FF0C020D040D070D090D0B0D0E0D100D45
:104ACC00130D150D180D1A0D1C0D1F0D210D240D98
:104ADC00260D280D2B0D2D0D300D320D340D370DEF
:104AEC00390D3C0D3E0D400D430D450D470D4A0D46
:104AFC004C0D4E0D510D530D560D580D5A0D5D0D9F
:104B0C005F0D610D640D660D680D6A0D6D0D6F0DF9
:104B1C00710D740D760D780D7B0D7D0D7F0D810D56
:104B2C00840D860D880D8A0D8D0D8F0D910D940DB4
:104B3C00960D980D9A0D9D0D9F0DA10DA30DA50D14
:104B4C00A80DAA0DAC0DAE0DB10DB30DB50DB70D75
:104B5C00B90DBC0DBE0DC00DC20DC40DC60DC90DD9
:104B6C00CB0DCD0DCF0DD10DD30DD60DD80DDA0D3E
:104B7C00DC0DDE0DE00DE20DE50DE70DE90DEB0DA5
:104B8C00ED0DEF0DF10DF30DF50DF70DFA0DFC0D0F
:104B9C00FE0D000E020E040E060E080E0A0E0C0E72
:104BAC000E0E100E120E140E160E180E1B0E1D0EDF
:104BBC001F0E210E230E250E270E290E2B0E2D0E49
:104BCC002F0E310E330E350E370E390E3B0E3C0EBA
:104BDC003E0E400E420E440E460E480E4A0E4C0E31
:104BEC004E0E500E520E540E560E580E5A0E5B0EA2
:104BFC005D0E5F0E610E630E650E670E690E6B0E19
:104C0C006C0E6E0E700E720E740E760E780E790E91
:104C1C007B0E7D0E7F0E810E830E840E860E880E0B
:104C2C008A0E8C0E8E0E8F0E910E930E950E960E86
:104C3C00980E9A0E9C0E9E0E9F0EA10EA30EA50E04
:104C4C00A60EA80EAA0EAC0EAD0EAF0EB10EB20E85
:104C5C00B40EB60EB80EB90EBB0EBD0EBE0EC00E07
:104C6C00C20EC30EC50EC70EC80ECA0ECC0ECD0E8C
:104C7C00CF0ED10ED20ED40ED60ED70ED90EDB0E11
:104C8C00DC0EDE0EDF0EE10EE30EE40EE60EE70E9A
:104C9C00E90EEA0EEC0EEE0EEF0EF10EF20EF40E25
:104CAC00F50EF70EF90EFA0EFC0EFD0EFF0E000FB0
:104CBC00020F030F050F060F080F090F0B0F0C0F38
:104CCC000E0F0F0F110F120F140F150F160F180FC9
:104CDC00190F1B0F1C0F1E0F1F0F210F220F230F5D
:104CEC00250F260F280F290F2A0F2C0F2D0F2F0FF2
:104CFC00300F310F330F340F350F370F380F3A0F8A
:104D0C003B0F3C0F3E0F3F0F400F420F430F440F22
:104D1C00450F470F480F490F4B0F4C0F4D0F4F0FBF
:104D2C00500F510F520F540F550F560F570F590F5D
:104D3C005A0F5B0F5C0F5E0F5F0F600F610F620FFE
:104D4C00640F650F660F670F680F6A0F6B0F6C0FA0
:104D5C006D0F6E0F6F0F710F720F730F740F750F46
:104D6C00760F770F790F7A0F7B0F7C0F7D0F7E0FED
:104D7C007F0F800F810F820F840F850F860F870F97
:104D8C00880F890F8A0F8B0F8C0F8D0F8E0F8F0F43
:104D9C00900F910F920F930F940F950F960F970FF3
:104DAC00980F990F9A0F9B0F9C0F9D0F9E0F9F0FA3
:104DBC00A00FA10FA20FA30FA40FA50FA50FA60F55
:104DCC00A70FA80FA90FAA0FAB0FAC0FAD0FAE0F0B
:104DDC00AE0FAF0FB00FB10FB20FB30FB40FB40FC4
:104DEC00B50FB60FB70FB80FB90FB90FBA0FBB0F7E
:104DFC00BC0FBD0FBD0FBE0FBF0FC00FC10FC10F3A
:104E0C00C20FC30FC40FC40FC50FC60FC70FC70FF8
:104E1C00C80FC90FCA0FCA0FCB0FCC0FCC0FCD0FB9
:104E2C00CE0FCE0FCF0FD00FD00FD10FD20FD20F7E
:104E3C00D30FD40FD40FD50FD60FD60FD70FD80F43
:104E4C00D80FD90FD90FDA0FDB0FDB0FDC0FDC0F0C
:104E5C00DD0FDD0FDE0FDF0FDF0FE00FE00FE10FD7
:104E6C00E10FE20FE20FE30FE30FE40FE40FE50FA6
:104E7C00E50FE60FE60FE70FE70FE80FE80FE90F76
:104E8C00E90FEA0FEA0FEB0FEB0FEC0FEC0FEC0F47
:104E9C00ED0FED0FEE0FEE0FEF0FEF0FEF0FF00F1B
:104EAC00F00FF00FF10FF10FF20FF20FF20FF30FF3
:104EBC00F30FF30FF40FF40FF40FF50FF50FF50FCD
:104ECC00F60FF60FF60FF70FF70FF70FF70FF80FA8
:104EDC00F80FF80FF80FF90FF90FF90FF90FFA0F88
:104EEC00FA0FFA0FFA0FFB0FFB0FFB0FFB0FFB0F69
:104EFC00FC0FFC0FFC0FFC0FFC0FFD0FFD0FFD0F4B
:104F0C00FD0FFD0FFD0FFD0FFE0FFE0FFE0FFE0F31
:104F1C00FE0FFE0FFE0FFE0FFF0FFF0FFF0FFF0F19
:104F2C00FF0FFF0FFF0FFF0FFF0FFF0FFF0FFF0F05
:104F3C00FF0FFF0FFF0FFF0FFF0FFF0FFF0FFF0FF5
:104F4C000010FF0FFF0FFF0FFF0FFF0FFF0FFF0FE3
:104F5C00FF0FFF0FFF0FFF0FFF0FFF0FFF0FFF0FD5
:104F6C00FF0FFF0FFF0FFF0FFF0FFE0FFE0FFE0FC8
:104F7C00FE0FFE0FFE0FFE0FFE0FFD0FFD0FFD0FC0
:104F8C00FD0FFD0FFD0FFD0FFC0FFC0FFC0FFC0FB9
:104F9C00FC0FFB0FFB0FFB0FFB0FFB0FFA0FFA0FB6
:104FAC00FA0FFA0FF90FF90FF90FF90FF80FF80FB5
:104FBC00F80FF80FF70FF70FF70FF70FF60FF60FB5
:104FCC00F60FF50FF50FF50FF40FF40FF40FF30FB9
:104FDC00F30FF30FF20FF20FF20FF10FF10FF00FBF
:104FEC00F00FF00FEF0FEF0FEF0FEE0FEE0FED0FC7
:104FFC00ED0FEC0FEC0FEC0FEB0FEB0FEA0FEA0FD2
:10500C00E90FE90FE80FE80FE70FE70FE60FE60FE0
:10501C00E50FE50FE40FE40FE30FE30FE20FE20FF0
:10502C00E10FE10FE00FE00FDF0FDF0FDE0FDD0F01
:10503C00DD0FDC0FDC0FDB0FDB0FDA0FD90FD90F15
:10504C00D80FD80FD70FD60FD60FD50FD40FD40F2C
:10505C00D30FD20FD20FD10FD00FD00FCF0FCE0F47
:10506C00CE0FCD0FCC0FCC0FCB0FCA0FCA0FC90F61
:10507C00C80FC70FC70FC60FC50FC40FC40FC30F80
:10508C00C20FC10FC10FC00FBF0FBE0FBD0FBD0FA1
:10509C00BC0FBB0FBA0FB90FB90FB80FB70FB60FC4
:1050AC00B50FB40FB40FB30FB20FB10FB00FAF0FEA
:1050BC00AE0FAE0FAD0FAC0FAB0FAA0FA90FA80F11
:1050CC00A70FA60FA50FA50FA40FA30FA20FA10F3B
:1050DC00A00F9F0F9E0F9D0F9C0F9B0F9A0F990F68
:1050EC00980F970F960F950F940F930F920F910F98
:1050FC00900F8F0F8E0F8D0F8C0F8B0F8A0F890FC8
:10510C00880F870F860F850F840F820F810F800FFA
:10511C007F0F7E0F7D0F7C0F7B0F7A0F790F770F30
:10512C00760F750F740F730F720F710F6F0F6E0F69
:10513C006D0F6C0F6B0F6A0F680F670F660F650FA3
:10514C00640F620F610F600F5F0F5E0F5C0F5B0FE0
:10515C005A0F590F570F560F550F540F520F510F1F
:10516C00500F4F0F4D0F4C0F4B0F490F480F470F60
:10517C00450F440F430F420F400F3F0F3E0F3C0FA4
:10518C003B0F3A0F380F370F350F340F330F310FEA
:10519C00300F2F0F2D0F2C0F2A0F290F280F260F32
:1051AC00250F230F220F210F1F0F1E0F1C0F1B0F7C
:1051BC00190F180F160F150F140F120F110F0F0FC9
:1051CC000E0F0C0F0B0F090F080F060F050F030F17
:1051DC00020F000FFF0EFD0EFC0EFA0EF90EF70E6D
:1051EC00F50EF40EF20EF10EEF0EEE0EEC0EEA0EC4
:1051FC00E90EE70EE60EE40EE30EE10EDF0EDE0E18
:10520C00DC0EDB0ED90ED70ED60ED40ED20ED10E6E
:10521C00CF0ECD0ECC0ECA0EC80EC70EC50EC30EC9
:10522C00C20EC00EBE0EBD0EBB0EB90EB80EB60E23
:10523C00B40EB20EB10EAF0EAD0EAC0EAA0EA80E81
:10524C00A60EA50EA30EA10E9F0E9E0E9C0E9A0EE0
:10525C00980E960E950E930E910E8F0E8E0E8C0E42
:10526C008A0E880E860E840E830E810E7F0E7D0EA6
:10527C007B0E790E780E760E740E720E700E6E0E0C
:10528C006C0E6B0E690E670E650E630E610E5F0E73
:10529C005D0E5B0E5A0E580E560E540E520E500EDC
:1052AC004E0E4C0E4A0E480E460E440E420E400E4A
:1052BC003E0E3C0E3B0E390E370E350E330E310EB4
:1052CC002F0E2D0E2B0E290E270E250E230E210E22
:1052DC001F0E1D0E1B0E180E160E140E120E100E97
:1052EC000E0E0C0E0A0E080E060E040E020E000E0A
:1052FC00FE0DFC0DFA0DF70DF50DF30DF10DEF0D87
:10530C00ED0DEB0DE90DE70DE50DE20DE00DDE0DFC
:10531C00DC0DDA0DD80DD60DD30DD10DCF0DCD0D75
:10532C00CB0DC90DC60DC40DC20DC00DBE0DBC0DEF
:10533C00B90DB70DB50DB30DB10DAE0DAC0DAA0D6C
:10534C00A80DA50DA30DA10D9F0D9D0D9A0D980DEA
:10535C00960D940D910D8F0D8D0D8A0D880D860D6A
:10536C00840D810D7F0D7D0D7B0D780D760D740DEB
:10537C00710D6F0D6D0D6A0D680D660D640D610D6F
:10538C005F0D5D0D5A0D580D560D530D510D4E0DF3
:10539C004C0D4A0D470D450D430D400D3E0D3C0D7A
:1053AC00390D370D340D320D300D2D0D2B0D280D03
:1053BC00260D240D210D1F0D1C0D1A0D180D150D8C
:1053CC00130D100D0E0D0B0D090D070D040D020D17
:1053DC00FF0CFD0CFA0CF80CF50CF30CF00CEE0CAD
:1053EC00EB0CE90CE70CE40CE20CDF0CDD0CDA0C3A
:1053FC00D80CD50CD30CD00CCE0CCB0CC90CC60CC9
:10540C00C30CC10CBE0CBC0CB90CB70CB40CB20C5C
:10541C00AF0CAD0CAA0CA80CA50CA20CA00C9D0CEE
:10542C009B0C980C960C930C900C8E0C8B0C890C82
:10543C00860C840C810C7E0C7C0C790C770C740C17
:10544C00710C6F0C6C0C690C670C640C620C5F0CAF
:10545C005C0C5A0C570C540C520C4F0C4C0C4A0C48
:10546C00470C450C420C3F0C3D0C3A0C370C350CE0
:10547C00320C2F0C2D0C2A0C270C240C220C1F0C7C
:10548C001C0C1A0C170C140C120C0F0C0C0C090C19
:10549C00070C040C010CFF0BFC0BF90BF60BF40BBB
:1054AC00F10BEE0BEB0BE90BE60BE30BE10BDE0B5D
:1054BC00DB0BD80BD60BD30BD00BCD0BCA0BC80BFD
:1054CC00C50BC20BBF0BBD0BBA0BB70BB40BB10B9F
:1054DC00AF0BAC0BA90BA60BA40BA10B9E0B9B0B40
:1054EC00980B950B930B900B8D0B8A0B870B850BE5
:1054FC00820B7F0B7C0B790B760B740B710B6E0B89
:10550C006B0B680B650B630B600B5D0B5A0B570B2E
:10551C00540B510B4F0B4C0B490B460B430B400BD5
:10552C003D0B3B0B380B350B320B2F0B2C0B290B7C
:10553C00260B240B210B1E0B1B0B180B150B120B24
:10554C000F0B0C0B090B070B040B010BFE0AFB0AD0
:10555C00F80AF50AF20AEF0AEC0AE90AE60AE30A83
:10556C00E10ADE0ADB0AD80AD50AD20ACF0ACC0A2B
:10557C00C90AC60AC30AC00ABD0ABA0AB70AB40ADB
:10558C00B10AAE0AAC0AA90AA60AA30AA00A9D0A85
:10559C009A0A970A940A910A8E0A8B0A880A850A33
:1055AC00820A7F0A7C0A790A760A730A700A6D0AE3
:1055BC006A0A670A640A610A5E0A5B0A580A550A93
:1055CC00520A4F0A4C0A490A460A430A400A3D0A43
:1055DC003A0A370A340A310A2E0A2B0A280A250AF3
:1055EC00220A1F0A1C0A190A160A130A100A0D0AA3
:1055FC00090A060A030A000AFD09FA09F709F4095F
:10560C00F109EE09EB09E809E509E209DF09DC0912
:10561C00D909D609D309D009CC09C909C609C309C6
:10562C00C009BD09BA09B709B409B109AE09AB097A
:10563C00A809A509A2099E099B099809950992092F
:10564C008F098C0989098609830980097D097909E3
:10565C007609730970096D096A096709640961099A
:10566C005E095B095709540951094E094B09480950
:10567C00450942093F093C093809350932092F0906
:10568C002C0929092609230920091C0919091609BD
:10569C00130910090D090A09070904090009FD0875
:1056AC00FA08F708F408F108EE08EB08E708E40834
:1056BC00E108DE08DB08D808D508D208CE08CB08EC
:1056CC00C808C508C208BF08BC08B908B508B208A4
:1056DC00AF08AC08A908A608A308A0089C0899085C
:1056EC009608930890088D088A0886088308800815
:1056FC007D087A087708740871086D086A086708CD
:10570C00640861085E085B085708540851084E0885
:10571C004B084808450841083E083B08380835083E
:10572C0032082F082B082808250822081F081C08F7
:10573C001908150812080F080C08090806080308B0
:10574C000008FC07F907F607F307F007ED07EA076F
:10575C00E607E307E007DD07DA07D707D407D0072A
:10576C00CD07CA07C707C407C107BE07BA07B707E3
:10577C00B407B107AE07AB07A807A407A1079E079C
:10578C009B079807950792078E078B078807850755
:10579C0082077F077C077907750772076F076C070D
:1057AC006907660763075F075C07590756075307C6
:1057BC0050074D074A074607430740073D073A077E
:1057CC003707340731072D072A0727072407210736
:1057DC001E071B071807140711070E070B070807EE
:1057EC0005070207FF06FB06F806F506F206EF06AC
:1057FC00EC06E906E606E306DF06DC06D906D60665
:10580C00D306D006CD06CA06C706C306C006BD061B
:10581C00BA06B706B406B106AE06AB06A806A406D1
:10582C00A1069E069B069806950692068F068C0688
:10583C008906860682067F067C067906760673063E
:10584C0070066D066A066706640661065D065A06F2
:10585C005706540651064E064B06480645064206A8
:10586C003F063C063906360633062F062C0629065B
:10587C002606230620061D061A0617061406110610
:10588C000E060B06080605060206FF05FC05F905C3
:10589C00F605F205EF05EC05E905E605E305E0057F
:1058AC00DD05DA05D705D405D105CE05CB05C80530
:1058BC00C505C205BF05BC05B905B605B305B005E0
:1058CC00AD05AA05A705A405A1059E059B05980590
:1058DC00950592058F058C05890586058305800540
:1058EC007D057A057705740571056E056B056805F0
:1058FC00650562055F055C0559055605530551059F
:10590C004E054B054805450542053F053C05390547
:10591C003605330530052D052A05270524052105F7
:10592C001E051C0519051605130510050D050A05A0
:10593C00070504050105FE04FB04F804F604F30452
:10594C00F004ED04EA04E704E404E104DE04DB04FF
:10595C00D904D604D304D004CD04CA04C704C404A7
:10596C00C204BF04BC04B904B604B304B004AE044E
:10597C00AB04A804A504A2049F049C049A049704F5
:10598C00940491048E048B0489048604830480049B
:10599C007D047A047804750472046F046C046A0440
:1059AC006704640461045E045B04590456045304E4
:1059BC0050044E044B0448044504420440043D0486
:1059CC003A043704350432042F042C042904270428
:1059DC00240421041E041C041904160414041104C8
:1059EC000E040B040904060403040004FE03FB0369
:1059FC00F803F603F303F003ED03EB03E803E5030D
:105A0C00E303E003DD03DB03D803D503D203D003A8
:105A1C00CD03CA03C803C503C203C003BD03BA0345
:105A2C00B803B503B303B003AD03AB03A803A503DD
:105A3C00A303A0039D039B03980396039303900376
:105A4C008E038B0388038603830381037E037B030E
:105A5C0079037603740371036F036C0369036703A3
:105A6C00640362035F035D035A0357035503520338
:105A7C0050034D034B0348034603430341033E03CA
:105A8C003C0339033603340331032F032C032A035D
:105A9C0027032503220320031D031B0318031603EE
:105AAC00140311030F030C030A030703050302037A
:105ABC000003FD02FB02F802F602F402F102EF020F
:105ACC00EC02EA02E702E502E302E002DE02DB029C
