:020000040800F2
:100000000050002019270008A50B0008A70B0008C6
:10001000A90B0008AB0B0008AD0B000800000000A6
:10002000000000000000000000000000A11C00080B
:10003000AF0B000800000000411D0008B10B0008D4
:100040006127000861270008612700086127000870
:100050006127000861270008612700086127000860
:100060006127000861270008612700086127000850
:100070006127000861270008612700086127000840
:100080006127000861270008612700086127000830
:100090006127000861270008612700086127000820
:1000A0006127000861270008612700086127000810
:1000B0006127000861270008B90B000861270008C4
:1000C00061270008612700086127000861270008F0
:1000D00061270008612700086127000861270008E0
:1000E0006127000861270008612700080000000060
:1000F0000000000000000000000000000000000000
:0C01000000000000000000005FF808F1A3
:1001100010B5054C227832B9044B13B10448AFF343
:1001200000800123237010BD70000020000000003B
:100130000030000808B5034B1BB103490348AFF377
:10014000008008BD0000000074000020003000089E
:10015000F0B482B000263546A0E0002B58D0012B29
:1001600010D1CE680EE0694FBB4251D048D9684FDC
:10017000BB424DD007F58037BB4249D0A7F5801769
:10018000BB4245D0FF2A57D88446FF2A57D8AC0037
:10019000DCF800300F27A74023EA070306FA04F42F
:1001A0002343CCF800304B6813F0805F75D0594B77
:1001B0009C6944F001049C619B6903F00103019375
:1001C000019BAC08A71C544B53F8273005F00307DC
:1001D000BF004FF00F0C0CFA07FC23EA0C0C4F4B3E
:1001E000984232D003F58063984270D003F5806363
:1001F00098426ED003F58063984224D0042325E012
:10020000A7F58017BB4203D007F58037BB42B9D1B1
:100210008B687BB1012B08D044610826B2E7CE6819
:100220000836AFE7CE680C36ACE704610826A9E7CC
:100230000026A7E70426A5E700F1040CA5E7A5F131
:100240000804A400A4E7032300E00023BB4043EA22
:100250000C030234304F47F824304B6813F4803FCE
:1002600039D02F4C2368134323604B6813F4003FAD
:1002700037D02B4C6368134363604B6813F4801FC3
:1002800035D0274CA3681343A3604B6813F4001FB9
:1002900033D0234CE3681A43E26001350F2D32D886
:1002A0000124AC400A6822409442F6D14B68122BDC
:1002B000B8D03FF658AF022BB1D07FF64EAF032B2C
:1002C000B6D0112B7FF45EAFCE6804365AE7012317
:1002D000BCE70223BAE7124C236823EA0203236037
:1002E000C3E70F4C636823EA02036360C5E70C4C65
:1002F000A36823EA0203A360C7E7094CE36823EA83
:100300000202E260C9E702B0F0BC704700002110B1
:1003100000003110001002400000014000080140C0
:10032000000401400AB1016170470904016170478E
:10033000074AD36823F4E0631B041B0C000200F49B
:10034000E060184340F0BF6040F40030D060704778
:1003500000ED00E030B4174BDB68C3F30223C3F1B8
:100360000704042C28BF04241D1D062D01D9033BBE
:1003700000E000234FF0FF3505FA04F421EA040100
:10038000994005FA03F322EA03031943002809DB25
:100390000901C9B200F1604000F5614080F8001326
:1003A00030BC704700F00F000901C9B2024B19546C
:1003B000F6E700BF00ED00E014ED00E000F01F02E2
:1003C000400901239340024A42F82030704700BFA1
:1003D00000E100E00138B0F1807F0AD2064B58609E
:1003E000064AF02182F823100020986007221A6044
:1003F00070470120704700BF10E000E000ED00E012
:10040000042805D0054A136823F0040313607047DD
:10041000024A136843F004031360704710E000E0E1
:10042000842801D0033070470020704708B500F0E1
:10043000B1FE002008BDF0B585B00F4644680568E0
:100440000669B0F90800FFF7EBFF03AB01930090DA
:100450003B46B2B22946204600F06AFE012802D18E
:10046000039805B0F0BD0020FBE708B5034600B9CE
:100470000123184600F0DEFF002008BD08B501F09A
:100480008DF8012800D108BD01F07CFCFBE70000DD
:100490000F4B1A6842F001021A6059680D4A0A406F
:1004A0005A601A6822F0847222F480321A601A6844
:1004B00022F480221A605A6822F4FE025A604FF435
:1004C0001F029A60044B4FF000629A60704700BFB1
:1004D000001002400000FFF800ED00E008B5074AF8
:1004E000136843F0100313600320FFF721FF00207F
:1004F00000F0B0FC01F0BEFC002008BD002002406E
:10050000034A1168034B1B780B441360704700BF0C
:10051000E40D002004000020014B1868704700BF64
:10052000E40D002082B0084B1B68084AA2FB03239D
:100530005B0A00FB03F0019000BF019B5A1E019271
:10054000002BF9D102B0704700000020D34D62109B
:1005500070B582B00446036813F0010F2CD0AB4B8A
:100560005B6803F00C03042B1DD0A84B5B6803F001
:100570000C03082B12D06368B3F5803F41D0002BE9
:1005800055D103F1804303F504331A6822F4803215
:100590001A601A6822F480221A6037E09B4B5B686D
:1005A00013F4803FE7D0994B1B6813F4003F03D04E
:1005B0006368002B00F0AE81236813F0020F75D042
:1005C000924B5B6813F00C0F5FD0904B5B6803F0AD
:1005D0000C03082B54D02369002B00F089808C4B2E
:1005E00001221A60FFF798FF0546884B1B6813F03D
:1005F000020F74D1FFF790FF401B0228F5D90320AA
:100600008DE1824A136843F480331360636843B317
:10061000FFF782FF05467D4B1B6813F4003FCBD1EB
:10062000FFF77AFF401B6428F5D9032077E1B3F583
:10063000A02F09D0754B1A6822F480321A601A680C
:1006400022F480221A60E1E703F18043A3F53C33F2
:100650001A6842F480221A601A6842F480321A60E2
:10066000D4E7FFF759FF0546684B1B6813F4003FBA
:10067000A2D0FFF751FF401B6428F5D903204EE1BB
:10068000624B5B6813F4803FA5D1604B1B6813F08D
:10069000020F03D02369012B40F03E815B4A1368AF
:1006A00023F0F803616943EAC1031360236813F080
:1006B000080F32D0A369002B5BD0564B01221A6081
:1006C000FFF72AFF0546514B5B6A13F0020F21D159
:1006D000FFF722FF401B0228F5D903201FE14B4AF8
:1006E000136823F0F803616943EAC1031360DDE78F
:1006F000474B00221A60FFF70FFF0546434B1B686C
:1007000013F0020FD2D0FFF707FF401B0228F5D9E4
:10071000032004E10120FFF705FF236813F0040F15
:1007200000F09880394BDB6913F0805F33D1374B91
:10073000DA6942F08052DA61DB6903F08053019399
:10074000019B0125344B1B6813F4807F25D0E3689F
:10075000012B36D0002B4CD103F1804303F5043339
:100760001A6A22F001021A621A6A22F004021A625C
:100770002CE0284B00221A60FFF7CEFE0546234BE3
:100780005B6A13F0020FC8D0FFF7C6FE401B0228B9
:10079000F5D90320C3E00025D4E71F4A136843F4CA
:1007A00080731360FFF7B8FE06461B4B1B6813F4FB
:1007B000807FCCD1FFF7B0FE801B6428F5D90320E1
:1007C000ADE0124A136A43F001031362E3687BB39E
:1007D000FFF7A2FE06460D4B1B6A13F0020F38D13D
:1007E000FFF79AFE801B41F288339842F3D9032029
:1007F00095E0052B12D0054B1A6A22F001021A620D
:100800001A6A22F004021A62E0E700BF00100240F8
:10081000000042428004424200700040424B1A6A8B
:1008200042F004021A621A6A42F001021A62CDE72B
:10083000FFF772FE06463C4B1B6A13F0020F08D00E
:10084000FFF76AFE801B41F288339842F3D90320F8
:1008500065E0E5B9E369002B60D0334A526802F0E5
:100860000C02082A5DD0022B17D0304B00221A60F0
:10087000FFF752FE04462C4B1B6813F0007F47D055
:10088000FFF74AFE001B0228F5D9032047E0264A5D
:10089000D36923F08053D361DCE7244B00221A6034
:1008A000FFF73AFE0546204B1B6813F0007F06D089
:1008B000FFF732FE401B0228F5D903202FE0236A00
:1008C000B3F5803F1AD018494B6823F47413226A99
:1008D000606A024313434B60144B01221A60FFF716
:1008E0001BFE0446104B1B6813F0007F0ED1FFF770
:1008F00013FE001B0228F5D9032010E00A4A5368B2
:1009000023F40033A1680B435360DCE7002006E0CA
:10091000002004E0012002E0012000E0002002B0FD
:1009200070BD0120FBE700BF0010024060004242A2
:1009300010B487B0164C94E80F000DF1180C0CE9B8
:100940000F00238AADF80430124B5B6803F00C02F1
:10095000082A03D0104807B010BC7047C3F3834285
:10096000624412F8102C13F4803F0CD0094B5B68E2
:10097000C3F34043634413F8143C074800FB02F000
:10098000B0FBF3F0E7E7054800FB02F0E3E700BF48
:10099000183000080010024000127A0000093D00E3
:1009A0005A4B1B6803F007038B420BD2574A13685C
:1009B00023F007030B431360136803F007038B4214
:1009C00040F09D8070B5036813F0020F06D0504AC6
:1009D000536823F0F0038468234353600D460446B4
:1009E000036813F0010F52D04368012B23D0022B70
:1009F00028D0474A126812F0020F00F08280444962
:100A00004A6822F0030213434B60FFF785FD064658
:100A10006368012B1DD0022B2AD03D4B5B6813F07D
:100A20000C0F34D0FFF778FD801B41F288339842D9
:100A3000F3D9032062E0364A126812F4003FDED197
:100A400001205BE0324A126812F0007FD7D101200A
:100A500054E02F4B5B6803F00C03042B17D0FFF717
:100A60005BFD801B41F288339842F2D9032045E0B8
:100A7000274B5B6803F00C03082B08D0FFF74CFDF5
:100A8000801B41F288339842F2D9032036E01F4B95
:100A90001B6803F00703AB420AD91C4A136823F012
:100AA00007032B431360136803F00703AB422AD1FB
:100AB000236813F0040F06D0154A536823F4E0634B
:100AC000E1680B435360236813F0080F07D0104A06
:100AD000536823F46053216943EAC1035360FFF76D
:100AE00027FF0B4B5B68C3F303130A4AD35CD84060
:100AF000094B1860002000F0ADF9002070BD012006
:100B000070470120FAE70120F8E700BF002002400B
:100B1000001002404030000800000020014B18681F
:100B2000704700BF0000002008B5FFF7F7FF044B37
:100B30005B68C3F30223034AD35CD84008BD00BFFF
:100B4000001002405030000808B5FFF7E7FF044BE3
:100B50005B68C3F3C223034AD35CD84008BD00BF1F
:100B600000100240503000080F2303600B4B5A68FE
:100B700002F0030242605A6802F0F00282605A6892
:100B800002F4E062C2605B68DB0803F4E0630361C7
:100B9000034B1B6803F007030B6070470010024013
:100BA000002002407047FEE7FEE7FEE7FEE77047E1
:100BB00008B5FFF763FC08BD08B5024800F0E6FD84
:100BC00008BD00BFE80D002090F83C30012B22D07A
:100BD00030B4012280F83C20022380F83D300468C4
:100BE000636823F070036360046863680D682B43D7
:100BF00063600468A36823F08003A3600468A368AB
:100C000049680B43A36080F83D20002380F83C3006
:100C1000184630BC7047022070477047704700008C
:100C2000124A12F0070F07D0D11D21F00701C1F5BC
:100C3000406313440A4601E04FF440630C480260ED
:100C4000002141601344083B23F007030948036077
:100C500059601960991A51601360074B1960074B6E
:100C60001960074B4FF000421A6070479000002057
:100C70009C0C00208C000020980C0020940C00207C
:100C8000900C002010B4134A00E01A461368834207
:100C9000FBD351685418844209D041684418A342D8
:100CA0000AD00360904200D0106010BC70474068CA
:100CB000014451601046F0E7074C2468A34206D077
:100CC0005B681944416013681B680360EAE70460CD
:100CD000E8E700BF9C0C00208C00002070B50446A3
:100CE00000F096FA3A4B1B68BBB13A4B1B681C42AA
:100CF00056D1ACB1083414F0070F11D024F007041A
:100D0000083404F007035BB14FF0500383F31188FC
:100D1000BFF36F8FBFF34F8FFEE7FFF781FFE4E76D
:100D2000002C3FD02C4B1B68A3424AD32B4B1D6891
:100D300001E02B4615466A68A24202D22A68002AC0
:100D4000F7D1234A1268AA423DD01E6808362A68A5
:100D50001A606B681B1B102B10D9281910F0070F95
:100D600008D04FF0500383F31188BFF36F8FBFF3A8
:100D70004F8FFEE743606C60FFF784FF6A68164997
:100D80000B689B1A0B60164909688B4201D2144903
:100D90000B60104B1B6813436B6000232B6002E059
:100DA000002600E0002600F0C7FA16F0070F0CD06E
:100DB0004FF0500383F31188BFF36F8FBFF34F8F52
:100DC000FEE70026EFE70026EDE7304670BD00BFE6
:100DD0008C000020900C0020940C00209C0C002023
:100DE000980C002080B338B50446A0F1080550F8EF
:100DF000042C164909680A4208D14FF0500383F3C6
:100E00001188BFF36F8FBFF34F8FFEE750F8080CC8
:100E100040B14FF0500383F31188BFF36F8FBFF3DE
:100E20004F8FFEE722EA010244F8042C00F0F0F9AB
:100E300054F8041C064A13680B4413602846FFF755
:100E400021FF00F079FA38BD704700BF900C0020F8
:100E5000940C002000B589B0002201461E20FFF747
:100E600079FA1E20FFF7AAFA144BDA6942F004025D
:100E7000DA61DB6903F004030193019B02A903A873
:100E8000FFF772FEFFF750FE0D4BA3FB00239B0CF8
:100E9000013B0C480C4A026040F2E732C2604360FA
:100EA00000230361836000F069FD18B1012009B0DF
:100EB0005DF804FB034800F039FCF8E7001002403D
:100EC00083DE1B43E80D002000080040084B1B6830
:100ED0001B6823B9074B4FF0FF321A607047044B71
:100EE0001B68DB68DB685A68024B1A60704700BFFA
:100EF000A80C0020800D002010B50446006BFFF701
:100F000071FF2046FFF76EFF10BD2DE9F0478046C8
:100F10009946089D099F0A9C266B02F18042013A7E
:100F200006EB820626F0070600230F2B06D8CA5CC4
:100F3000E01880F834200AB10133F6E7002384F882
:100F40004330062D00D90625E56265644FF0000A9E
:100F5000C4F848A0201D00F026FE04F1180000F09F
:100F600022FE2461C5F10705A5616462C4F84CA0A6
:100F700084F850A04A464146304600F079FE206091
:100F800007B13C60BDE8F08738B50024062C08D8CE
:100F900004EB840293000E48184400F0F9FD01347C
:100FA000F4E70C4D284600F0F3FD0B4C204600F012
:100FB000EFFD0A4800F0ECFD094800F0E9FD0948A2
:100FC00000F0E6FD084B1D60084B1C6038BD00BFFB
:100FD000B00C0020540D0020680D0020880D00206A
:100FE000B40D0020A00D0020A80C0020AC0C0020A7
:100FF00010B5044600F066FE204A13680133136002
:101000001F4B1B685BB11F4B1B686BB91C4B1B68EC
:10101000DA6AE36A9A4207D8194B1C6004E0184B5D
:101020001C601368012B26D0174A13680133136024
:10103000E36A01229A401549086802430A6003EBFB
:1010400083039A00211D1248104400F0AFFD00F008
:101050005BFE0C4B1B686BB1094B1B68DA6AE36AD9
:101060009A4207D20B4B4FF080521A60BFF34F8F5A
:10107000BFF36F8F10BDFFF787FFD5E73C0D002052
:10108000A40C00209C0D00204C0D0020500D0020D1
:10109000B00C002004ED00E070B504460E461D4B78
:1010A0001D681D4B1868043000F0A5FD50B91A4B9F
:1010B0001B68DA6A012303FA02F218490B6823EA73
:1010C00002030B60B4F1FF3F0DD02C44124B1B68A0
:1010D0005C60A54210D9124B18680F4B1968043197
:1010E00000F06FFD70BD002EEFD00B4B196804317E
:1010F0000C4800F05BFDF5E70B4B1868064B1968D0
:10110000043100F05EFD094B1B68A342EAD9074B8E
:101110001C60E7E7C80D0020A40C0020500D002043
:10112000AC0C0020A00D0020A80C0020800D002099
:101130002DE9F04385B0074688461446994690004D
:10114000FFF7CCFDE8B106465420FFF7C7FD054682
:1011500098B10663D5B10023039302950D9B0193CB
:101160000C9B00934B46224641463846FFF7CDFE86
:101170002846FFF73DFF012005E03046FFF732FE2D
:10118000E8E74FF0FF3005B0BDE8F0834FF0FF30E7
:10119000F9E7000000B583B0174B019300230093DB
:1011A000802216491648FFF7C3FF012805D0B0F189
:1011B000FF3F17D003B05DF804FB4FF0500383F3FB
:1011C0001188BFF36F8FBFF34F8F0E4B4FF0FF327D
:1011D0001A600D4B01221A600C4B00221A6000F0BD
:1011E000FDFDE7E74FF0500383F31188BFF36F8FE6
:1011F000BFF34F8FFEE700BF7C0D00205830000882
:10120000DD140008800D00209C0D0020C80D00207A
:10121000024A136801331360704700BF480D002075
:10122000F8B53A4B1B68002B64D1394B1D6801356A
:101230001D60C5B9374B1B681B6843B14FF05003A5
:1012400083F31188BFF36F8FBFF34F8FFEE7314AEF
:101250001168314B186810601960304A1368013307
:101260001360FFF733FE2E4B1B68AB4238D90024C6
:101270002C4B1B68DB6A03EB83039A002A4B9B58B9
:10128000012B3CD901243AE00124224B1B681B6846
:1012900043B3204B1B68DB68DE6873689D4226D32E
:1012A000371D384600F0A7FCB36A1BB106F11800E1
:1012B00000F0A1FCF36A01229A401C49086802432D
:1012C0000A6003EB83039A0039461748104400F084
:1012D0006DFCF26A134B1B68DB6A9A42D4D2D4E7E6
:1012E0000024D2E70E4B4FF0FF321A60C0E70C4AE1
:1012F0001360BDE70E4A13680133136000240D4BE1
:101300001B6803B101242046F8BD00BF480D002032
:10131000C80D0020A80C0020AC0C0020840D00207B
:10132000800D0020A40C0020B00C0020500D0020E7
:10133000440D0020CC0D002038B5354B1B6843B957
:101340004FF0500383F31188BFF36F8FBFF34F8FBC
:10135000FEE700F0B7FC2E4B1A68013A1A601B68D2
:10136000002B4DD12B4B1B680BB9002449E0002406
:10137000294B1B681BB3284BDB68DC6804F11800A1
:1013800000F039FC251D284600F035FCE36A0122F7
:101390009A402249086802430A6003EB83039A00DB
:1013A00029461F48104400F001FCE26A1D4B1B68EF
:1013B000DB6A9A42DCD31C4B01221A60D8E70CB1DD
:1013C000FFF784FD194B1C6874B9174B1B68E3B118
:1013D000174B4FF080521A60BFF34F8FBFF36F8FE0
:1013E00001240EE0013C07D0FFF71AFF0028F9D0D6
:1013F0000D4B01221A60F5E70C4B00221A60E4E75E
:10140000002400F081FC204638BD0024F9E700BF2D
:10141000480D00203C0D0020880D0020500D0020BC
:10142000B00C0020A40C0020CC0D0020440D0020A6
:1014300004ED00E010B5A8B104460F4B1B6843B1A2
:101440004FF0500383F31188BFF36F8FBFF34F8FBB
:10145000FEE7FFF7DDFE00212046FFF71DFEFFF748
:101460006BFF38B9054B4FF080521A60BFF34F8FB6
:10147000BFF36F8F10BD00BF480D002004ED00E0EA
:10148000134B1B681BB310B502E0114B1B68EBB18B
:10149000FFF7BEFE0F4B1C68FFF74EFF002CF4D089
:1014A00000F010FC0B4BDB68DC68201D00F0A3FB98
:1014B000094A1368013B1360054A1368013B136036
:1014C00000F022FC2046FFF717FDDEE710BD704755
:1014D000400D0020B40D00203C0D002008B5FFF7A2
:1014E000CFFF064B1B68012BF9D9054B4FF08052FB
:1014F0001A60BFF34F8FBFF36F8FF0E7B00C00207F
:1015000004ED00E0204B1B681BB1204B01221A6048
:1015100070471E4B00221A601D4B1B68B3FA83F301
:10152000DBB2C3F11F0303EB83018A0019498A5818
:1015300042B94FF0500383F31188BFF36F8FBFF3AD
:101540004F8FFEE710B413489A00D418A10001444D
:101550004C6864684C601A44910008310844844225
:101560000AD003EB83039A000A4B13445B68DA68E2
:10157000094B1A6010BC7047606803EB830291004E
:10158000044A0A445060ECE7480D0020CC0D0020CE
:10159000500D0020B00C0020A40C0020054B1B684F
:1015A00033B1054B1B680BB1002070470220704718
:1015B000012070479C0D0020480D002010B4036AE4
:1015C000046A24F001040462846924F0F00444EA0B
:1015D000021223F00A030B438261036210BC7047BE
:1015E00030B4046A24F0100404628469056A24F4A7
:1015F000407444EA022222F470421B039BB21A4355
:1016000025F0A005090101F0A001294382610162D2
:1016100030BC704710B4036A23F01003036284697E
:10162000036A24F4704444EA023223F0A00343EA3C
:1016300001138261036210BC704730B4046A24F461
:1016400080740462C469056A24F00304224322F012
:10165000F0021B01DBB21A4325F42065090201F4F4
:1016600020612943C261016230BC704730B4046A12
:1016700024F480540462C469056A24F4407444EA82
:10168000022222F470421B039BB21A4325F4005538
:10169000090301F400512943C261016230BC704763
:1016A00010B4846824F47F4442EA03230B432343A9
:1016B000836010BC704710B50468A26822F0700205
:1016C0004B68134323F007030A681343A3604B6876
:1016D000502B1ED00AD9602B21D0702B05D10B695D
:1016E0008A68C9680068FFF7DBFF10BD402BFCD19A
:1016F00003681C6A1A6A22F001021A62026893697E
:1017000023F0F003096943EA0113936103681C6243
:10171000EBE70A6989680068FFF750FFE5E70A69A7
:1017200089680068FFF776FFDFE770470268D368D3
:1017300043F00103D3600268136843F001031360B0
:101740000020704738B590F83C30012B18D0044683
:10175000012580F83C50022380F83D30FFF7ABFFB5
:101760002268D36823F04003D3602268D36823F44F
:101770008043D36084F83D50002084F83C0038BD9D
:101780000220FCE7704770477047704710B5044669
:1017900003681A6912F0020F11D0DA6812F0020F12
:1017A0000DD06FF002021A610123037703689B6971
:1017B00013F0030F70D0FFF7E6FF002323772368B1
:1017C0001A6912F0040F12D0DA6812F0040F0ED06A
:1017D0006FF004021A610223237723689B6913F4D4
:1017E000407F5FD02046FFF7CEFF0023237723689A
:1017F0001A6912F0080F12D0DA6812F0080F0ED032
:101800006FF008021A61042323772368DB6913F061
:10181000030F4ED02046FFF7B6FF0023237723683F
:101820001A6912F0100F12D0DA6812F0100F0ED0F1
:101830006FF010021A61082323772368DB6913F421
:10184000407F3DD02046FFF79EFF0023237723688B
:101850001A6912F0010F03D0DA6812F0010F36D1C5
:1018600023681A6912F0800F03D0DA6812F0800F33
:1018700034D123681A6912F0400F03D0DA6812F0ED
:10188000400F32D123681A6912F0200F03D0DA68B2
:1018900012F0200F30D110BDFFF774FF2046FFF784
:1018A00073FF8AE72046FFF76DFF2046FFF76CFFC6
:1018B0009BE72046FFF766FF2046FFF765FFACE792
:1018C0002046FFF75FFF2046FFF75EFFBDE76FF0A2
:1018D00001021A61204600F02FFCC1E76FF0800280
:1018E0001A612046FFF79AF9C3E76FF040021A61C8
:1018F0002046FFF74AFFC5E76FF020021A61204635
:10190000FFF78BF9C7E7000003681B4A90420AD033
:10191000B0F1804F07D0A2F59432904203D002F587
:101920008062904203D123F070034A681343124A45
:1019300090420AD0B0F1804F07D0A2F59432904285
:1019400003D002F58062904203D123F44073CA6849
:10195000134323F080034A69134303608B68C36217
:101960000B688362044B984202D0012343617047A5
:101970000B690363F9E700BF002C0140B0B110B55B
:10198000044690F83D3063B1022384F83D3021468F
:1019900051F8040BFFF7B8FF012384F83D30002015
:1019A00010BD80F83C30FFF7C0FEEDE70120704726
:1019B000B0B110B5044690F83D3063B1022384F80D
:1019C0003D30214651F8040BFFF79EFF012384F8B8
:1019D0003D30002010BD80F83C3000F0C9FAEDE742
:1019E0000120704770B4056A25F00105056284691D
:1019F000056A114EB0420DD0B0F1804F0AD0A6F565
:101A00009436B04206D006F58066B04202D044F06B
:101A1000010202E024F00304224322F0F0021B0141
:101A2000DBB2134325F00A0501F00A012943836163
:101A3000016270BC704700BF002C014038B590F8BF
:101A40003C30012B58D00D460446012380F83C3031
:101A5000022380F83D30DAB1042A2AD0082A3AD08D
:101A6000CB684A6809680068FFF700FE2268D369FE
:101A700023F44063D3612268D369A96843EA012350
:101A8000D361012384F83D30002084F83C0038BD48
:101A9000CB684A6809680068FFF7A4FF2268936969
:101AA00023F00C03936122689369A9680B43936147
:101AB000E7E7CB684A6809680068FFF791FD22688C
:101AC000936923F44063936122689369A96843EAA8
:101AD00001239361D5E7CB684A6809680068FFF77E
:101AE000ACFD2268D36923F00C03D3612268D3696B
:101AF000A9680B43D361C4E70220C8E710B40123EF
:101B000003FA01F4036A23EA04030362036A8A40C6
:101B10001343036210BC704710B5044601220068ED
:101B2000FFF7ECFF2268136843F001031360002005
:101B300010BD10B504460C290DD8DFE801F0070CE4
:101B40000C0C170C0C0C1D0C0C0C23000268D36839
:101B500043F00203D36001222068FFF7CFFF226821
:101B6000136843F001031360002010BD0268D368BE
:101B700043F00403D360EEE70268D36843F0080340
:101B8000D360E8E70268D36843F01003D360E2E76C
:101B900000F1080343604FF0FF328260C3600361CD
:101BA00000230360704700230361704743684B6064
:101BB0009A688A6051609960086103680133036024
:101BC000704730B40D68B5F1FF3F02D000F1080254
:101BD00002E0026904E01A4653681C68AC42FAD974
:101BE00053684B6099608A605160086103680133F3
:101BF000036030BC70470369416882688A6041684D
:101C000051605A68824205D000220261186801388A
:101C10001860704782685A60F6E700000B4B1B683B
:101C2000B3F1FF3F08D04FF0500383F31188BFF3A7
:101C30006F8FBFF34F8FFEE74FF0500383F3118890
:101C4000BFF36F8FBFF34F8FFEE700BF0800002088
:101C500006480068006880F3088862B661B6BFF382
:101C60004F8FBFF36F8F00DF00BF000008ED00E073
:101C70004FF0807340F8043C21F0010140F8081C4B
:101C8000034B40F80C3C40F8202C4038704700BF14
:101C90001D1C000800000000000000000000000003
:101CA000074B19680868B0E8F00F80F30988BFF3A4
:101CB0006F8F4FF0000080F311884EF00D0E7047CB
:101CC000A40C00204FF0500383F31188BFF36F8FF3
:101CD000BFF34F8F0A4A136801331360012B00D002
:101CE0007047084B1B6813F0FF0FF9D04FF05003FB
:101CF00083F31188BFF36F8FBFF34F8FFEE700BFF1
:101D00000800002004ED00E0094B1B6843B94FF0C8
:101D1000500383F31188BFF36F8FBFF34F8FFEE73C
:101D2000013B034A13600BB983F31188704700BF6E
:101D3000080000200000000000000000000000007B
:101D4000EFF30980BFF36F8F0D4B1A6820E9F00F96
:101D500010602DE908404FF0500080F31188FFF724
:101D6000D1FB4FF0000080F31188BDE808401968EE
:101D70000868B0E8F00F80F30988BFF36F8F7047F1
:101D8000A40C002008B54FF0500383F31188BFF373
:101D90006F8FBFF34F8FFFF743FA18B1034B4FF02C
:101DA00080521A60002383F3118808BD04ED00E01F
:101DB000064B1B68064AA2FB03239B09013B054A0D
:101DC0001360054B07221A60704700BF0000002017
:101DD000D34D621014E000E010E000E000B583B0E5
:101DE0001F4B1A78D2B20192FF221A701B78DBB215
:101DF0008DF803309DF8033003F05003194A137037
:101E0000194B07221A609DF8033013F0800F0AD097
:101E1000154A1368013B13609DF803305B00DBB289
:101E20008DF80330EFE7104A13681B0203F4E063F8
:101E30001360019BDBB20A4A13700C4B1A6842F420
:101E400070021A601A6842F070421A60FFF7B0FF21
:101E5000074B00221A60FFF7FBFEFFF7DFFE00BF13
:101E600000E400E0D00D0020D40D002020ED00E0C3
:101E70000800002000B583B0204B9A6942F00102AF
:101E80009A619B6903F001030193019B0320FEF714
:101E90004FFA002211466FF00B00FEF75BFA0022AA
:101EA00011466FF00A00FEF755FA002211466FF056
:101EB0000900FEF74FFA002211466FF00400FEF70A
:101EC00049FA002211466FF00300FEF743FA0022A0
:101ED0000F216FF00100FEF73DFA00220F214FF0B5
:101EE000FF30FEF737FA064A536823F0E06343F009
:101EF0008063536003B05DF804FB00BF0010024034
:101F0000000001400268174B9A4200D0704710B59C
:101F100086B003F560439A6942F480529A619B69E6
:101F200003F480530193019B28230293022303931C
:101F3000032305930C4C02A92046FEF709F9102350
:101F4000029300230393049302A92046FEF700F9AD
:101F5000064A536843F0E06343F00103536006B060
:101F600010BD00BF00300140000C014000000140E6
:101F700002680E4B9A4200D0704700B587B003F557
:101F80000333DA6942F00202DA61DB6903F002032B
:101F90000193019B4023029300230393049302A91E
:101FA0000348FEF7D5F807B05DF804FB00040040D5
:101FB000000801400268144B9A4200D0704710B5E7
:101FC00086B003F558439A6942F480429A619B694E
:101FD00003F480430193019B4FF4007302930223A7
:101FE000039303230593094C02A92046FEF7B0F89A
:101FF0004FF48063029300230393049302A92046C5
:10200000FEF7A6F806B010BD0038014000080140F8
:10201000F0B589B01E4B9A6942F020029A619A6924
:1020200002F020020192019A9A6942F004029A6138
:102030009A6902F004020292029A9A6942F0080236
:102040009A619B6903F008030393039B114F0022DD
:1020500007213846FEF766F90F4C00224FF48051F5
:102060002046FEF75FF90723049301260596022513
:10207000079504A93846FEF76BF84FF48053049394
:102080000596079504A92046FEF762F809B0F0BD51
:102090000010024000080140000C014010B59EB045
:1020A0004FF480531A9301231B9303231D931AA902
:1020B0001B48FEF74DF81B4B1B4A1A601B4C0421B2
:1020C0002046FFF736FD00212046FFF725FD0024BE
:1020D00007E001224FF480511148FEF723F905E093
:1020E00001340120FEF7C1F9642CF2D0B4F5167F5B
:1020F000F6D100224FF480510948FEF713F90B4B3B
:102100001B685A6B9B6B0A4901A800F05DFB4FF0FE
:10211000FF33642201A9074800F04CFA0024DFE7EE
:10212000000C01402C0E00206C300008300E002006
:1021300074300008700E002008B50268034B9A4204
:1021400000D008BDFEF7DCF9FBE700BF0008004047
:10215000FEE7000000B58DB029482A4B036000233C
:10216000436083604FF6FF72C26003618361FFF7D3
:102170001FFC00282BD1042307935023089300232E
:1021800009930A930B9307A91D48FFF7DBFA18BBC5
:1021900000220392012304930592069203A9184892
:1021A000FFF74CFCE8B9022303930493042203A92C
:1021B0001348FFF743FCC8B900230193029301A918
:1021C0000F48FEF701FDB0B90DB05DF804FB40F219
:1021D00003110D48FFF7BCFF40F20D110A48FFF74D
:1021E000B7FF4FF48B710848FFF7B2FF40F21D11A3
:1021F0000548FFF7ADFF4FF492710348FFF7A8FFC2
:10220000300E0020000400406030000808B50E4881
:102210000E4B03604FF48273436000238360C360FE
:10222000036143614FF400728261C36103624362E0
:1022300083620A23C36200F02DFA00B908BDEE21C3
:102240000348FFF785FF00BFB00E002000300140BB
:102250006030000808B50B480B4B03604FF4E133C6
:10226000436000238360C36003610C224261836189
:10227000C36100F070F900B908BD40F2371103489E
:10228000FFF766FF700E0020003801406030000844
:1022900000B591B00223069301230A9310230B93F8
:1022A00000230D9306A8FEF753F9F0B90F2301930D
:1022B0000021029103910491059101A8FEF770FBA2
:1022C000B8B9FEF72BFC0D4BA3FB00308009FEF7DD
:1022D00081F80420FEF794F800220F214FF0FF3020
:1022E000FEF738F811B05DF804FBBE210448FFF793
:1022F0002FFFCC210248FFF72BFF00BFD34D621008
:102300006030000800B587B0FEF7E8F8FFF7C0FFBF
:10231000FFF77EFEFFF71EFFFFF778FFFFF79AFF3C
:1023200001AC074D0FCD0FC42B682360002101A81D
:10233000FEF781F8034B1860FEF778F8FEE700BF60
:102340002C300008280E00202DE9F84305460268CD
:10235000136923F44053C1680B4313618368026916
:102360001343426913430168CA6822F4B05222F051
:102370000C021343CB600268536923F440738169F4
:102380000B4353610268594B9A4257D0FEF7CCFB7E
:1023900000EB800000EB80006C68A400B0FBF4F45C
:1023A000534FA7FB043464092601FEF7BDFB00EB85
:1023B000800000EB80006C68A400B0FBF4F9FEF72D
:1023C000B3FB00EB800000EB80006C68A400B0FB66
:1023D000F4F4A7FB043464094FF0640808FB149478
:1023E00024013234A7FB0434640904F0F0043444BB
:1023F000FEF79AFB00EB800000EB80006E68B600F1
:10240000B0FBF6F6FEF790FB00EB800000EB8000DF
:102410006B689B00B0FBF3F0A7FB0030400908FBA2
:1024200010684FEA081808F13208A7FB0837C7F30D
:1024300043172B6827449F60BDE8F883FEF784FBB1
:1024400000EB800000EB80006C68A400B0FBF4F4AB
:10245000274FA7FB043464092601FEF775FB00EB48
:10246000800000EB80006C68A400B0FBF4F9FEF77C
:102470006BFB00EB800000EB80006C68A400B0FBFD
:10248000F4F4A7FB043464094FF0640808FB1494C7
:1024900024013234A7FB0434640904F0F00434440A
:1024A000FEF752FB00EB800000EB80006E68B60088
:1024B000B0FBF6F6FEF748FB00EB800000EB800077
:1024C0006B689B00B0FBF3F0A7FB0030400908FBF2
:1024D00010684FEA081808F13208A7FB0837C7F35D
:1024E00043172B6827449F60A6E700BF00380140D0
:1024F0001F85EB512DE9F04105460F4616469846DB
:10250000069C2B681B6837EA03030CBF01230023DA
:10251000B3421DD1B4F1FF3FF3D02CB1FDF7FCFF66
:10252000A0EB0800A042ECD92A68D36823F4D0734A
:10253000D3602A68536923F001035361202385F88F
:10254000393085F83A30002385F83830032000E030
:102550000020BDE8F08158B310B5044690F839303A
:102560000BB3242384F839302268D36823F4005352
:10257000D3602046FFF7E8FE2268136923F49043F6
:1025800013612268536923F02A0353612268D368D8
:1025900043F40053D3600020E063202384F83930F3
:1025A00084F83A3010BD80F83830FFF703FDD8E7E3
:1025B000012070472DE9F04182B01E4690F8393075
:1025C000DBB2202B55D104460D469046002955D04C
:1025D000002A55D090F83830012B53D0012380F8D1
:1025E00038300023C363212380F83930FDF794FF8E
:1025F0000746A4F82480A4F8268010E000963B4605
:10260000002280212046FFF775FF00283CD12B884F
:102610002268C3F3080353602369C3B90235E38C0E
:102620009BB2B3B1E38C013B9BB2E384A368B3F5E7
:10263000805FE3D000963B46002280212046FFF7D2
:1026400059FF18BB15F8012B23685A60E7E70135DD
:10265000E5E700963B46002240212046FFF74AFF6F
:102660000346A8B9202284F83920002284F83820B3
:1026700000E00223184602B0BDE8F0810123F9E72B
:102680000123F7E70223F5E70323F3E70323F1E749
:102690000323EFE700283CD010B5044600238362F3
:1026A00090F85130002B31D0022384F85130226849
:1026B000136823F0400313606368A2681343E26861
:1026C00013432269134362691343A26902F400723F
:1026D0001343E2691343226A1343A16A22680B433E
:1026E0001360638B03F00403616A22680B43536039
:1026F0002368E26A1A612268D36923F40063D36114
:1027000000206065012384F8513010BDFFF7FAFB0B
:10271000CAE7012070470000002103E00B4B5B5823
:10272000435004310A480B4B42189A42F6D30A4AE6
:1027300002E0002342F8043B084B9A42F9D3FDF72C
:10274000A7FE00F00FF8FFF7DDFD7047D830000856
:102750000000002070000020700000200C0F0020FE
:10276000FEE7000070B500260C4D0D4C641BA41054
:10277000A64209D100F044FC00260A4D0A4C641B15
:10278000A410A64205D170BD55F8043B9847013608
:10279000EEE755F8043B98470136F2E7D0300008E1
:1027A000D0300008D0300008D43000080A449142EC
:1027B00000F1FF3300D1704710B511F8014B914281
:1027C00003F8014FF9D110BD0EB46FF0004100B510
:1027D0009CB01DAB029006900791049108480949EE
:1027E00053F8042B0591006802A9019300F068F8E2
:1027F0000022029B1A701CB05DF804EB03B0704716
:102800000C0000200802FFFF2DE9F0478E68824689
:102810009E420C469146984638D8B1F80CC01CF43C
:10282000906F31D062692568096902EB42026F1A24
:1028300002EBD272013355103B449D4238BF1D4616
:102840001CF4806F30D0294600F032FB064650B9A8
:102850000C234FF0FF30CAF80030A38943F0400347
:10286000A381BDE8F0873A462169FFF79FFFA3895E
:1028700023F4906343F08003A38126613E442660E5
:1028800046466561ED1BA560464500D94646324681
:102890004946206800F0A6FAA36800209B1BA360AD
:1028A00023681E442660DCE72A4600F05BFB0646F0
:1028B0000028E2D12169504600F0AEFAC8E70000D6
:1028C0002DE9F04F1E468B899DB01B0607460D462D
:1028D00014460ED50B6963B9402100F0E9FA28606F
:1028E000286120B90C233B604FF0FF30C9E0402342
:1028F0006B610023099320238DF8293030234FF09A
:10290000010ADFF898918DF82A30039623461E4677
:1029100013F8012B0AB1252AF9D1B6EB040B0BD021
:102920005B46224629463846FFF76EFF013000F02D
:10293000A380099B5B4409933378002B00F09C80B3
:1029400000234FF0FF32CDE90523013604930793AE
:102950008DF853301A933446052214F8011B4F4862
:1029600000F032FA049BC0B9D90644BF20228DF88A
:1029700053201A0744BF2B228DF8532032782A2A7D
:1029800013D0344600200A26079A214611F8013B4D
:10299000303B092B4BD970B914E0A0EB09000AFABF
:1029A00000F0184304902646D5E7039A111D1268DB
:1029B0000391002A01DB079204E0524243F0020334
:1029C0000792049323782E2B0CD163782A2B33D1D2
:1029D000039B02341A1D1B680392002BB8BF4FF0F3
:1029E000FF3305932E4E03222178304600F0ECF998
:1029F00038B14023801B03FA00F0049B01340343E9
:102A0000049314F8011B062226488DF8281000F0C4
:102A1000DBF9002838D0244B13BB039B073323F08A
:102A2000070308330393099B434409936EE706FBAE
:102A3000023201200C46A8E700230A261946013479
:102A40000593204610F8012B303A092A03D9002BB0
:102A5000C8D00591C6E706FB012101230446F0E733
:102A600003AB00932A46114B04A93846AFF300800C
:102A7000B0F1FF3F8046D6D1AB895B063FF534AF5E
:102A800009981DB0BDE8F08F03AB00932A46074BB1
:102A900004A9384600F082F8EAE700BF9C3000083D
:102AA000A2300008A6300008000000000928000835
:102AB0002DE9F04791461F468A680B690646934206
:102AC000B8BF1346C9F8003091F843200C46DDF832
:102AD000208012B10133C9F800302368990642BF43
:102AE000D9F800300233C9F80030256815F0060522
:102AF00007D104F1190AE368D9F800209B1AAB4208
:102B000029DC94F843302268003318BF0123920671
:102B10002ED404F1430239463046C047013021D05B
:102B20002368E56803F00603042B18BF0025D9F8D5
:102B300000204FF0000908BFAD1AA368226908BF42
:102B400025EAE5759342C4BF9B1AED181A344D452A
:102B50001AD1002008E00123524639463046C047CA
:102B6000013003D14FF0FF30BDE8F0870135C2E7F7
:102B70003020E11881F843005A1C94F84510224493
:102B8000023382F84310C4E7012322463946304617
:102B9000C0470130E6D009F10109D8E72DE9F0433B
:102BA00006460C4601F14300097E85B06E29984621
:102BB00017460C9B00F0BB8024D8632939D00AD873
:102BC000002900F0C480582900F0928004F14205E9
:102BD00084F8421035E0642901D06929F6D12568CE
:102BE0001A6815F0800F02F104012CD012681960E8
:102BF000002A03DA2D23524284F84330DFF8C0C1A3
:102C00000A233FE0732900F0A68008D86F2921D05D
:102C10007029DBD1226842F02002226003E075298E
:102C200018D07829D2D17822DFF898C184F84520CD
:102C300062E01A6804F14205111D1960136884F8F6
:102C40004230012394E0126815F0400F196018BF5C
:102C500012B2CDE7D4F800C01A681CF0800F02F160
:102C600004051D6001D0126803E01CF0400FFAD08B
:102C700012886F290CBF08230A23DFF844C1002102
:102C800084F843106568002DA8BF2168A560A4BF23
:102C900021F0040121600AB9002D46D00546B2FB9F
:102CA000F3F103FB112E1CF80EE0934205F801ED41
:102CB00039D9082B0BD12368DA0708D52369626854
:102CC0009A42DEBF302305F8013C05F1FF35401B79
:102CD0002061CDF800803B4603AA21463046FFF72D
:102CE000E7FE013049D14FF0FF3005B0BDE8F08379
:102CF000DFF8CCC084F845101D68216855F8042B16
:102D00001D600D060BD5CD0744BF41F020012160A9
:102D10001AB9236823F0200323601023AFE74B0682
:102D200048BF92B2EFE70A46B9E70546C1E71A681D
:102D3000D4F800C0151D61691CF0800F1D60136878
:102D400001D0196003E01CF0400FFAD01980002375
:102D500005462361BDE71A68111D19601568002139
:102D60006268284600F030F808B1401B6060636874
:102D70002361002384F84330ABE723692A463946B0
:102D80003046C0470130AED023689B0713D4E068BB
:102D9000039B9842B8BF1846A7E701234A46394625
:102DA0003046C04701309ED00135E368039A9B1A34
:102DB000AB42F2DCEBE7002504F11909F5E700BFAF
:102DC000AD300008BE30000810B5C9B202449042D0
:102DD000034601D1002303E01C7801308C42F6D178
:102DE000184610BD884210B501EB020302D9834298
:102DF0001C4607D8421E994208D011F8014B02F830
:102E0000014FF8E783189A1A9A4200D110BD14F8BE
:102E1000011D03F8011DF7E738B50546002943D029
:102E200051F8043C0C1F002BB8BFE41800F0D0F898
:102E30001E4A1368104633B9636014602846BDE823
:102E4000384000F0C6B8A3420BD9216862189342FB
:102E500001BF1A685B685218226063600460EDE786
:102E600013465A680AB1A242FAD919685818A04202
:102E70000BD120680144581882421960DED11068D5
:102E80005268014419605A60D8E702D90C232B60BC
:102E9000D4E7206821188A4201BF116852680918D6
:102EA000216062605C60C9E738BD00BFD80D0020BA
:102EB000F8B5CD1C25F0030508350C2D38BF0C25C1
:102EC000002D064601DBA94203D90C233360002004
:102ED000F8BD00F07DF821490A6814469CB9204FDE
:102EE0003B6823B92146304600F062F83860294635
:102EF000304600F05DF8431C23D10C23304633608C
:102F000000F067F8E3E723685B1B17D40B2B03D9AA
:102F100023601C44256004E06368A2420CBF0B6080
:102F20005360304600F055F804F10B00231D20F0EB
:102F30000700C21ACCD01B1AA350C9E72246646806
:102F4000CCE7C41C24F00304A042E3D0211A30468D
:102F500000F02EF80130DDD1CFE700BFD80D002002
:102F6000DC0D0020F8B5074614460E4621B911467F
:102F7000BDE8F840FFF79CBF22B9FFF74DFF25469B
:102F80002846F8BD00F026F8A0420FD22146384668
:102F9000FFF78EFF05460028F2D031462246FFF7A4
:102FA00005FC31463846FFF737FFE9E73546E7E7E6
:102FB00038B50023054C05460846236000F012F89A
:102FC000431C02D1236803B12B6038BD080F0020D9
:102FD0007047704751F8043C181F002BBCBF0B58BA
:102FE000C0187047044A05491368002B08BF0B46F8
:102FF0001844106018467047E00D0020100F0020A4
:10300000F8B500BFF8BC08BC9E467047F8B500BFD5
:08301000F8BC08BC9E467047A5
:1030180002030405060708090A0B0C0D0E0F101011
:1030280001020000903000089D2000080000000008
:103038000000000080000000000000000000000008
:103048000102030406070809000000000102030446
:1030580049444C45000000005372632F6D61696E4E
:103068002E6300006E6F6E65000000007065726967
:103078006F643A20256C642C2070756C73653A2057
:10308800256C640A0000000064656661756C745400
:1030980061736B00232D302B2000686C4C00656633
:1030A8006745464700303132333435363738394191
:1030B80042434445460030313233343536373839A7
:0830C8006162636465660000AB
:0430D00035010008BE
:0430D40011010008DE
:1030D80000A24A0401000000AAAAAAAA100000201F
:1030E80000000000000000000000000000000000D8
:1030F80000000000000000000000000000000000C8
:1031080000000000000000000000000000000000B7
:1031180000000000000000000000000000000000A7
:103128000000000000000000000000000000000097
:103138000000000000000000000000000000000087
:0400000508002719AF
:00000001FF
