:020000040800F2
:10000000005000206D1A00082D0600082F06000879
:10001000310600083306000835060008000000001D
:100020000000000000000000000000005115000862
:100030003706000800000000F11500083906000826
:10004000B51A0008B51A0008B51A0008B51A000854
:10005000B51A0008B51A0008B51A0008B51A000844
:10006000B51A0008B51A0008B51A0008B51A000834
:10007000B51A0008B51A0008B51A0008B51A000824
:10008000B51A0008B51A0008B51A0008B51A000814
:10009000B51A0008B51A0008B51A0008B51A000804
:1000A000B51A000841060008B51A0008B51A00087C
:1000B000B51A0008B51A0008B51A0008B51A0008E4
:1000C000B51A0008B51A0008B51A0008B51A0008D4
:1000D000B51A0008B51A0008B51A0008B51A0008C4
:1000E000B51A0008B51A0008B51A0008000000008B
:1000F0000000000000000000000000000000000000
:0C01000000000000000000005FF808F1A3
:1001100010B5054C227832B9044B13B10448AFF343
:1001200000800123237010BD0C000020000000009F
:10013000001B000808B5034B1BB103490348AFF38C
:10014000008008BD0000000010000020001B000817
:10015000F0B482B000263546A0E0002B58D0012B29
:1001600010D1CE680EE0694FBB4251D048D9684FDC
:10017000BB424DD007F58037BB4249D0A7F5801769
:10018000BB4245D0FF2A57D88446FF2A57D8AC0037
:10019000DCF800300F27A74023EA070306FA04F42F
:1001A0002343CCF800304B6813F0805F75D0594B77
:1001B0009C6944F001049C619B6903F00103019375
:1001C000019BAC08A71C544B53F8273005F00307DC
:1001D000BF004FF00F0C0CFA07FC23EA0C0C4F4B3E
:1001E000984232D003F58063984270D003F5806363
:1001F00098426ED003F58063984224D0042325E012
:10020000A7F58017BB4203D007F58037BB42B9D1B1
:100210008B687BB1012B08D044610826B2E7CE6819
:100220000836AFE7CE680C36ACE704610826A9E7CC
:100230000026A7E70426A5E700F1040CA5E7A5F131
:100240000804A400A4E7032300E00023BB4043EA22
:100250000C030234304F47F824304B6813F4803FCE
:1002600039D02F4C2368134323604B6813F4003FAD
:1002700037D02B4C6368134363604B6813F4801FC3
:1002800035D0274CA3681343A3604B6813F4001FB9
:1002900033D0234CE3681A43E26001350F2D32D886
:1002A0000124AC400A6822409442F6D14B68122BDC
:1002B000B8D03FF658AF022BB1D07FF64EAF032B2C
:1002C000B6D0112B7FF45EAFCE6804365AE7012317
:1002D000BCE70223BAE7124C236823EA0203236037
:1002E000C3E70F4C636823EA02036360C5E70C4C65
:1002F000A36823EA0203A360C7E7094CE36823EA83
:100300000202E260C9E702B0F0BC704700002110B1
:1003100000003110001002400000014000080140C0
:10032000000401400AB1016170470904016170478E
:10033000054BA3FB003080090138044B58600022B4
:100340009A6005221A607047D34D621010E000E0F9
:10035000014B1860704700BF00000020074AD368B7
:1003600023F4E0631B041B0C000200F4E06018435C
:1003700040F0BF6040F40030D060704700ED00E016
:1003800030B4174BDB68C3F30223C3F10704042C1A
:1003900028BF04241D1D062D01D9033B00E00023C6
:1003A0004FF0FF3505FA04F421EA0401994005FAFB
:1003B00003F322EA03031943002809DB0901C9B248
:1003C00000F1604000F5614080F8001330BC7047D8
:1003D00000F00F000901C9B2024B1954F6E700BF43
:1003E00000ED00E014ED00E000F01F0240090123E1
:1003F0009340024A42F82030704700BF00E100E01D
:10040000842801D0033070470020704708B500F001
:100410006DFC002008BDF0B585B00F464468056846
:100420000669B0F90800FFF7EBFF03AB01930090FA
:100430003B46B2B22946204600F026FC012802D1F4
:10044000039805B0F0BD0020FBE708B5034600B9EE
:100450000123184600F09AFD002008BD08B500F001
:1004600049FE012800D108BD01F0E4F8FBE70000D7
:100470000F4B1A6842F001021A6059680D4A0A408F
:100480005A601A6822F0847222F480321A601A6864
:1004900022F480221A605A6822F4FE025A604FF455
:1004A0001F029A60044B4FF000629A60704700BFD1
:1004B000001002400000FFF800ED00E0C36813F4F4
:1004C000005F01D00020704730B585B00D4604466E
:1004D000C36823F4B05323F00C034A68C9680A4385
:1004E00029690A431343C360AB68026922F440528E
:1004F000134303616B69426922F440721343436101
:10050000684600F043FA1C4B9C4208D01B4B9C42AF
:100510002AD01B4B9C4229D0002005B030BD039B44
:1005200033B32A6832B303EB830303EB83039200F4
:10053000B3FBF2F3134DA5FB03204009020191B276
:10054000642202FB103213013233A5FB0323C3F3F1
:100550004F1303F0F0020A4492B203F00F03134466
:100560009BB2A3600120D8E7029BD9E7029BD7E7A3
:100570000020D2E70020D0E70038014000440040CE
:10058000004800401F85EB5108B5074A136843F047
:10059000100313600320FFF7E1FE002000F006FACD
:1005A00001F0C0F8002008BD00200240034A116895
:1005B000034B1B780B441360704700BF740D002081
:1005C00004000020014B1868704700BF00000020A5
:1005D00008B5FFF7F7FF044B5B68C3F3C223034A78
:1005E000D35CD84008BD00BF001002403C1B00088F
:1005F0000F2303600B4B5A6802F0030242605A68F3
:1006000002F0F00282605A6802F4E062C2605B6845
:10061000DB0803F4E0630361034B1B6803F007038B
:100620000B60704700100240002002407047FEE758
:10063000FEE7FEE7FEE7704708B5FFF70FFF08BDCE
:1006400008B5024800F0F1FD08BD00BF780D00209C
:1006500070477047124A12F0070F07D0D11D21F0E2
:100660000701C1F5406313440A4601E04FF44063BB
:100670000C480260002141601344083B23F007034B
:100680000948036059601960991A51601360074B5B
:100690001960074B1960074B4FF000421A60704712
:1006A0002C000020380C002028000020340C0020F2
:1006B000300C00202C0C002010B4134A00E01A4625
:1006C00013688342FBD351685418844209D04168AF
:1006D0004418A3420AD00360904200D0106010BCBE
:1006E00070474068014451601046F0E7074C2468A9
:1006F000A34206D05B681944416013681B6803601D
:10070000EAE70460E8E700BF380C0020280000207A
:1007100070B5044600F028FB3A4B1B68BBB13A4B5E
:100720001B681C4256D1ACB1083414F0070F11D02D
:1007300024F00704083404F007035BB14FF05003C2
:1007400083F31188BFF36F8FBFF34F8FFEE7FFF77F
:1007500081FFE4E7002C3FD02C4B1B68A3424AD317
:100760002B4B1D6801E02B4615466A68A24202D257
:100770002A68002AF7D1234A1268AA423DD01E688F
:1007800008362A681A606B681B1B102B10D92819B1
:1007900010F0070F08D04FF0500383F31188BFF318
:1007A0006F8FBFF34F8FFEE743606C60FFF784FFEE
:1007B0006A6816490B689B1A0B60164909688B42D8
:1007C00001D214490B60104B1B6813436B6000236C
:1007D0002B6002E0002600E0002600F059FB16F036
:1007E000070F0CD04FF0500383F31188BFF36F8FC6
:1007F000BFF34F8FFEE70026EFE70026EDE7304618
:1008000070BD00BF280000202C0C0020300C002000
:10081000380C0020340C002080B338B50446A0F119
:10082000080550F8042C164909680A4208D14FF00F
:10083000500383F31188BFF36F8FBFF34F8FFEE731
:1008400050F8080C40B14FF0500383F31188BFF308
:100850006F8FBFF34F8FFEE722EA010244F8042CAA
:1008600000F082FA54F8041C064A13680B44136023
:100870002846FFF721FF00F00BFB38BD704700BF93
:100880002C0C0020300C0020036813F0400F29D1FD
:1008900010B4026822F47F4222F0BF020B684C6859
:1008A00023438C682343CC6823430C6923434C695E
:1008B00023438C692343CC6923430C6A23431343AA
:1008C0000360436823F00403CA8A134343600B6A3E
:1008D000B3F5005F02D0012010BC70478B8C036120
:1008E0000120F9E700207047034B5B68C3F3031353
:1008F000024AD35CD8407047001002402C1B00080D
:10090000034B5B68C3F30223024AD35CD8407047B1
:10091000001002403C1B0008034B5B68C3F3C2237A
:10092000024AD35CD8407047001002403C1B0008CC
:100930000B4B5B6803F4803343B90A48084B5B6890
:10094000C3F38343023300FB03F07047044B586842
:1009500000F40030431C0448B0FBF3F0EEE700BFA6
:100960000010024000093D0000127A0008B5054B56
:100970005B6803F00C03082B01D0034808BDFFF7A8
:10098000D7FFFBE70010024000127A0010B50446C2
:10099000FFF7ECFF2060FFF7A7FF6060FFF7B0FFF5
:1009A000A0606068FFF7B8FFE06010BD00B589B0D7
:1009B000002201461920FFF7E3FC1920FFF714FD80
:1009C000144B9A6942F400629A619B6903F40063D4
:1009D0000193019B02A903A8FFF70AFEFFF7F8FDA8
:1009E0000D4BA3FB00239B0C013B0C480C4A0260FF
:1009F00040F2E732C260436000230361836000F08D
:100A00000BFD18B1012009B05DF804FB034800F0AC
:100A1000FCFBF8E70010024083DE1B43780D00204A
:100A2000002C0140084B1B681B6823B9074B4FF093
:100A3000FF321A607047044B1B68DB68DB685A683A
:100A4000024B1A60704700BF440C00201C0D0020B0
:100A500010B50446006BFFF7DFFE2046FFF7DCFE13
:100A600010BD2DE9F04780469946089D099F0A9CD4
:100A7000266B02F18042013A06EB820626F0070659
:100A800000230F2B06D8CA5CE01880F834200AB186
:100A90000133F6E7002384F84330062D00D90625FC
:100AA000E56265644FF0000AC4F848A0201D00F01C
:100AB000D8FC04F1180000F0D4FC2461C5F107054E
:100AC000A5616462C4F84CA084F850A04A4641462F
:100AD000304600F02BFD206007B13C60BDE8F08798
:100AE00038B50024062C08D804EB840293000E4885
:100AF000184400F0ABFC0134F4E70C4D284600F03C
:100B0000A5FC0B4C204600F0A1FC0A4800F09EFC1E
:100B1000094800F09BFC094800F098FC084B1D6058
:100B2000084B1C6038BD00BF4C0C0020F00C0020AE
:100B3000040D0020240D0020500D00203C0D00204D
:100B4000440C0020480C002010B5044600F012FDB3
:100B5000204A1368013313601F4B1B685BB11F4BA6
:100B60001B686BB91C4B1B68DA6AE36A9A4207D8A8
:100B7000194B1C6004E0184B1C601368012B26D035
:100B8000174A136801331360E36A01229A4015493A
:100B9000086802430A6003EB83039A00211D124890
:100BA000104400F061FC00F007FD0C4B1B686BB1BA
:100BB000094B1B68DA6AE36A9A4207D20B4B4FF083
:100BC00080521A60BFF34F8FBFF36F8F10BDFFF7D6
:100BD00087FFD5E7D80C0020400C0020380D0020FE
:100BE000E80C0020EC0C00204C0C002004ED00E090
:100BF00070B504460E461D4B1D681D4B1868043029
:100C000000F057FC50B91A4B1B68DA6A012303FA4B
:100C100002F218490B6823EA02030B60B4F1FF3FAC
:100C20000DD02C44124B1B685C60A54210D9124BAE
:100C300018680F4B1968043100F021FC70BD002EBC
:100C4000EFD00B4B196804310C4800F00DFCF5E7B0
:100C50000B4B1868064B1968043100F010FC094B67
:100C60001B68A342EAD9074B1C60E7E7640D00202C
:100C7000400C0020EC0C0020480C00203C0D002013
:100C8000440C00201C0D00202DE9F04385B00746E0
:100C90008846144699469000FFF73AFDE8B10646AB
:100CA0005420FFF735FD054698B10663D5B1002302
:100CB000039302950D9B01930C9B00934B46224698
:100CC00041463846FFF7CDFE2846FFF73DFF01209D
:100CD00005E03046FFF7A0FDE8E74FF0FF3005B034
:100CE000BDE8F0834FF0FF30F9E7000000B583B0B6
:100CF000174B019300230093802216491648FFF7F3
:100D0000C3FF012805D0B0F1FF3F17D003B05DF855
:100D100004FB4FF0500383F31188BFF36F8FBFF3D1
:100D20004F8F0E4B4FF0FF321A600D4B01221A60AD
:100D30000C4B00221A6000F0A9FCE7E74FF05003CB
:100D400083F31188BFF36F8FBFF34F8FFEE700BFB0
:100D5000180D0020441B0008351000081C0D002051
:100D6000380D0020640D0020024A1368013313601F
:100D7000704700BFE40C0020F8B53A4B1B68002B0D
:100D800064D1394B1D6801351D60C5B9374B1B68EF
:100D90001B6843B14FF0500383F31188BFF36F8F8B
:100DA000BFF34F8FFEE7314A1168314B186810606E
:100DB0001960304A136801331360FFF733FE2E4B7E
:100DC0001B68AB4238D900242C4B1B68DB6A03EB51
:100DD00083039A002A4B9B58012B3CD901243AE00B
:100DE0000124224B1B681B6843B3204B1B68DB6844
:100DF000DE6873689D4226D3371D384600F059FBE4
:100E0000B36A1BB106F1180000F053FBF36A01222C
:100E10009A401C49086802430A6003EB83039A0066
:100E200039461748104400F01FFBF26A134B1B6849
:100E3000DB6A9A42D4D2D4E70024D2E70E4B4FF0BB
:100E4000FF321A60C0E70C4A1360BDE70E4A136810
:100E50000133136000240D4B1B6803B101242046AD
:100E6000F8BD00BFE40C0020640D0020440C0020FD
:100E7000480C0020200D00201C0D0020400C0020FC
:100E80004C0C0020EC0C0020E00C0020680D002031
:100E900038B5354B1B6843B94FF0500383F31188C5
:100EA000BFF36F8FBFF34F8FFEE700F063FB2E4B56
:100EB0001A68013A1A601B68002B4DD12B4B1B6836
:100EC0000BB9002449E00024294B1B681BB3284BB5
:100ED000DB68DC6804F1180000F0EBFA251D2846F9
:100EE00000F0E7FAE36A01229A40224908680243C7
:100EF0000A6003EB83039A0029461F48104400F060
:100F0000B3FAE26A1D4B1B68DB6A9A42DCD31C4BC6
:100F100001221A60D8E70CB1FFF784FD194B1C6859
:100F200074B9174B1B68E3B1174B4FF080521A602E
:100F3000BFF34F8FBFF36F8F01240EE0013C07D04A
:100F4000FFF71AFF0028F9D00D4B01221A60F5E7D0
:100F50000C4B00221A60E4E7002400F02DFB204631
:100F600038BD0024F9E700BFE40C0020D80C0020B5
:100F7000240D0020EC0C00204C0C0020400C002024
:100F8000680D0020E00C002004ED00E010B5A8B1D1
:100F900004460F4B1B6843B14FF0500383F3118895
:100FA000BFF36F8FBFF34F8FFEE7FFF7DDFE00212A
:100FB0002046FFF71DFEFFF76BFF38B9054B4FF0DA
:100FC00080521A60BFF34F8FBFF36F8F10BD00BF09
:100FD000E40C002004ED00E0134B1B681BB310B5BC
:100FE00002E0114B1B68EBB1FFF7BEFE0F4B1C6814
:100FF000FFF74EFF002CF4D000F0BCFA0B4BDB687F
:10100000DC68201D00F055FA094A1368013B1360A3
:10101000054A1368013B136000F0CEFA2046FFF743
:1010200017FDDEE710BD7047DC0C0020500D0020DE
:10103000D80C002008B5FFF7CFFF064B1B68012B2B
:10104000F9D9054B4FF080521A60BFF34F8FBFF3B1
:101050006F8FF0E74C0C002004ED00E0204B1B6884
:101060001BB1204B01221A6070471E4B00221A60F0
:101070001D4B1B68B3FA83F3DBB2C3F11F0303EB11
:1010800083018A0019498A5842B94FF0500383F30B
:101090001188BFF36F8FBFF34F8FFEE710B4134873
:1010A0009A00D418A10001444C6864684C601A444A
:1010B00091000831084484420AD003EB83039A006C
:1010C0000A4B13445B68DA68094B1A6010BC70471E
:1010D000606803EB83029100044A0A445060ECE725
:1010E000E40C0020680D0020EC0C00204C0C0020CB
:1010F000400C0020054B1B6833B1054B1B680BB13E
:10110000002070470220704701207047380D0020F2
:10111000E40C0020F0B50D68C5F30F2595FAA5F293
:10112000B2FA82F235E0A2F108044FF00113A340B5
:1011300043F0806339E0C45993FAA3F6B6FA86F611
:10114000B6004FF0030C0CFA06F624EA060C93FAEC
:10115000A3F6B6FA86F6B6008C6804FA06F646EAF6
:101160000C06C651CC6893FAA3FCBCFA8CFC4FEA7F
:101170008C0C4FF0040E0EFA0CFC26EA0C0693FAC7
:10118000A3F3B3FA83F39B0004FA03F33343C3518D
:10119000013235FA02F335D0012393402B42F7D0C8
:1011A000072AC0D840F2011393404E681F0EC4595D
:1011B00093FAA3FCBCFA8CFC4FEA8C0C4FF00F0E98
:1011C0000EFA0CFC24EA0C0493FAA3FCBCFA8CFC87
:1011D0004FEA8C0C06FA0CF63443C451C6681C0A5C
:1011E00026EA040C94FAA4F4B4FA84F40E6906FA1C
:1011F00004F44CEA0404C4604C68012C9BD0092C14
:10120000C6D198E70120F0BD70470268D36843F06B
:101210000103D3600268136843F0010313600020E8
:101220007047704770477047704710B504460368B1
:101230001A6912F0020F11D0DA6812F0020F0DD005
:101240006FF002021A610123037703689B6913F0B0
:10125000030F70D0FFF7E6FF0023237723681A6996
:1012600012F0040F12D0DA6812F0040F0ED06FF0F3
:1012700004021A610223237723689B6913F4407FD9
:101280005FD02046FFF7CEFF0023237723681A693B
:1012900012F0080F12D0DA6812F0080F0ED06FF0BB
:1012A00008021A61042323772368DB6913F0030F14
:1012B0004ED02046FFF7B6FF0023237723681A6934
:1012C00012F0100F12D0DA6812F0100F0ED06FF07B
:1012D00010021A61082323772368DB6913F4407F27
:1012E0003DD02046FFF79EFF0023237723681A692D
:1012F00012F0010F03D0DA6812F0010F36D1236823
:101300001A6912F0800F03D0DA6812F0800F34D11E
:1013100023681A6912F0400F03D0DA6812F0400F08
:1013200032D123681A6912F0200F03D0DA6812F064
:10133000200F30D110BDFFF774FF2046FFF773FF79
:101340008AE72046FFF76DFF2046FFF76CFF9BE71B
:101350002046FFF766FF2046FFF765FFACE7204613
:10136000FFF75FFF2046FFF75EFFBDE76FF001026A
:101370001A61204600F0E2FAC1E76FF080021A61BC
:101380002046FFF766F9C3E76FF040021A61204676
:10139000FFF74AFFC5E76FF020021A612046FFF70A
:1013A00057F9C7E703681B4A90420AD0B0F1804F53
:1013B00007D0A2F59432904203D002F580629042A9
:1013C00003D123F070034A681343124A90420AD0B3
:1013D000B0F1804F07D0A2F59432904203D002F5CD
:1013E0008062904203D123F44073CA68134323F010
:1013F00080034A69134303608B68C3620B6883628E
:10140000044B984202D00123436170470B69036388
:10141000F9E700BF002C0140B0B110B5044690F8C8
:101420003D3063B1022384F83D30214651F8040B6E
:10143000FFF7B8FF012384F83D30002010BD80F88D
:101440003C30FFF7E1FEEDE70120704700F10803B3
:1014500043604FF0FF328260C3600361002303608A
:10146000704700230361704743684B609A688A6045
:10147000516099600861036801330360704730B4BC
:101480000D68B5F1FF3F02D000F1080202E00269E9
:1014900004E01A4653681C68AC42FAD953684B60A2
:1014A00099608A605160086103680133036030BC51
:1014B00070470369416882688A60416851605A6870
:1014C000824205D000220261186801381860704716
:1014D00082685A60F6E700000B4B1B68B3F1FF3FD0
:1014E00008D04FF0500383F31188BFF36F8FBFF321
:1014F0004F8FFEE74FF0500383F31188BFF36F8FD8
:10150000BFF34F8FFEE700BF0800002006480068C9
:10151000006880F3088862B661B6BFF34F8FBFF3EF
:101520006F8F00DF00BF000008ED00E04FF0807318
:1015300040F8043C21F0010140F8081C034B40F83E
:101540000C3C40F8202C4038704700BFD9140008EC
:10155000074B19680868B0E8F00F80F30988BFF3FB
:101560006F8F4FF0000080F311884EF00D0E704722
:10157000400C00204FF0500383F31188BFF36F8FAE
:10158000BFF34F8F0A4A136801331360012B00D059
:101590007047084B1B6813F0FF0FF9D04FF0500352
:1015A00083F31188BFF36F8FBFF34F8FFEE700BF48
:1015B0000800002004ED00E0094B1B6843B94FF020
:1015C000500383F31188BFF36F8FBFF34F8FFEE794
:1015D000013B034A13600BB983F31188704700BFC6
:1015E00008000020000000000000000000000000D3
:1015F000EFF30980BFF36F8F0D4B1A6820E9F00FEE
:1016000010602DE908404FF0500080F31188FFF77B
:1016100025FD4FF0000080F31188BDE808401968EF
:101620000868B0E8F00F80F30988BFF36F8F704748
:10163000400C002008B54FF0500383F31188BFF32E
:101640006F8FBFF34F8FFFF797FB18B1034B4FF02E
:1016500080521A60002383F3118808BD04ED00E076
:10166000064B1B68064AA2FB03239B09013B054A64
:101670001360054B07221A60704700BF000000206E
:10168000D34D621014E000E010E000E000B583B03C
:101690001F4B1A78D2B20192FF221A701B78DBB26C
:1016A0008DF803309DF8033003F05003194A13708E
:1016B000194B07221A609DF8033013F0800F0AD0EF
:1016C000154A1368013B13609DF803305B00DBB2E1
:1016D0008DF80330EFE7104A13681B0203F4E06350
:1016E0001360019BDBB20A4A13700C4B1A6842F478
:1016F00070021A601A6842F070421A60FFF7B0FF79
:10170000074B00221A60FFF701FFFFF7E5FE00BF5D
:1017100000E400E06C0D0020700D002020ED00E0E2
:101720000800002000B583B0204B9A6942F0010206
:101730009A619B6903F001030193019B0320FEF76B
:101740000DFE002211466FF00B00FEF719FE00227D
:1017500011466FF00A00FEF713FE002211466FF0EB
:101760000900FEF70DFE002211466FF00400FEF79F
:1017700007FE002211466FF00300FEF701FE002273
:101780000F216FF00100FEF7FBFD00220F214FF04B
:10179000FF30FEF7F5FD064A536823F0E06343F09F
:1017A0008063536003B05DF804FB00BF001002408B
:1017B0000000014082B0064B9A6942F004029A612F
:1017C0009B6903F004030193019B02B0704700BFC3
:1017D0000010024030B591B01B4B9A6942F4805220
:1017E0009A619B6903F480530093009B4BF2B00312
:1017F0000193092302930323039300240494134DBC
:1018000001A92846FFF786FC44F240030193042314
:1018100002930DEB03012846FFF77CFC06944FF47E
:1018200082730793089409940A944FF480230B93CE
:101830000C940D940E940A230F9306A90448FFF705
:1018400023F811B030BD00BF001002400008014075
:101850000030014030B58DB01E4BDA6942F40032E1
:10186000DA61DB6903F400330093009B40F2044328
:101870000193092302930323039300240494164D38
:1018800001A92846FFF746FC40F60803019304230C
:1018900002930DEB03012846FFF73CFC4FF4E133C4
:1018A00006930794089409940C230A930B940B4C09
:1018B00006A92046FEF702FE236923F49043236124
:1018C000636923F02A036361E36843F40053E36030
:1018D0000DB030BD0010024000080140004400403F
:1018E00010B584B04FF48053009301230193032378
:1018F00003930023029369460F48FEF729FC07E093
:1019000001224FF480510C48FEF70CFD07E0013432
:101910000120FEF79AFD41F288339C42F0D042F25A
:1019200010739C42F3D100224FF480510248FEF71D
:10193000F9FC0024EBE700BF000C014008B5026889
:10194000034B9A4200D008BDFEF730FEFBE700BF14
:10195000002C0140FEE7000010B52E4B1A6822F063
:1019600007021A601B6813F0070F4CD12A4A13684C
:1019700023F0F80343F080031360136843F001037E
:101980001360254B1B6813F0020FFAD0224B5A68E4
:1019900022F0F0025A605A6822F4E0625A605A68F3
:1019A00022F460525A605A6822F003025A601A4BBD
:1019B0005B6813F00C0FFAD1184C2046FEF7B8FC08
:1019C000174A136843F0040313602046FEF7C0FC77
:1019D000144BDA68C2F30222C2F10703042B28BFBA
:1019E00004231946131D062B11D9033A4FF0FF3378
:1019F0008B40DB4303F00F0393401B01DBB2094A2A
:101A000082F8233010BDAE210748FFF7A3FF002264
:101A1000ECE700BF002002400010024000127A00F4
:101A200010E000E000ED00E04C1B000800B587B0BE
:101A3000FEF7AAFDFFF790FFFFF7BCFEFFF7CAFE17
:101A4000FFF708FF01AC074D0FCD0FC42B682360D3
:101A5000002101A8FEF7DFFC034B1860FEF7D6FC5F
:101A6000FEE700BF181B0008B80D0020002103E0AE
:101A70000B4B5B58435004310A480B4B42189A42B7
:101A8000F6D30A4A02E0002342F8043B084B9A428C
:101A9000F9D3FEF7EDFC00F00FF8FFF7C7FF704732
:101AA0006C1B0008000000200C0000200C0000202F
:101AB000BC0D0020FEE7000070B500260C4D0D4C5B
:101AC000641BA410A64209D100F01AF800260A4DA2
:101AD0000A4C641BA410A64205D170BD55F8043B06
:101AE00098470136EEE755F8043B98470136F2E790
:101AF000641B0008641B0008641B0008681B0008C6
:101B0000F8B500BFF8BC08BC9E467047F8B500BFEA
:081B1000F8BC08BC9E467047BA
:101B1800581B0008E1180008000000000000000041
:101B28008000000000000000000000000102030423
:101B380006070809000000000102030449444C4557
:101B4800000000005372632F6D61696E2E63000000
:0C1B580064656661756C745461736B0009
:041B6400350100083F
:041B6800110100085F
:0C1B6C0000A24A0401000000AAAAAAAAD4
:0400000508001A6D68
:00000001FF
