:020000040800F2
:1000000000500020791B0008210700082307000882
:10001000250700082707000829070008000000003E
:100020000000000000000000000000006116000851
:100030002B07000800000000011700082D0700082A
:10004000C11B0008C11B0008C11B0008C11B000820
:10005000C11B0008C11B0008C11B0008C11B000810
:10006000C11B0008C11B0008C11B0008C11B000800
:10007000C11B0008C11B0008C11B0008C11B0008F0
:10008000C11B0008C11B0008C11B0008C11B0008E0
:10009000C11B0008C11B0008C11B0008C11B0008D0
:1000A000C11B000835070008C11B0008C11B000860
:1000B000C11B0008C11B0008C11B0008C11B0008B0
:1000C000C11B0008C11B0008C11B0008C11B0008A0
:1000D000C11B0008C11B0008C11B0008C11B000890
:1000E000C11B0008C11B0008C11B00080000000064
:1000F0000000000000000000000000000000000000
:0C01000000000000000000005FF808F1A3
:10011000044B05481B1A062B02D9044B03B11847A0
:10012000704700BF0F0000200C00002000000000FE
:1001300005490648091A891001EBD171491002D00E
:10014000034B03B1184770470C0000200C0000203F
:100150000000000010B5064C237843B9FFF7D8FF24
:10016000044B13B10448AFF300800123237010BD8A
:100170000C00002000000000C41B000808B5084B5C
:100180001BB108490848AFF300800848036813B959
:10019000BDE80840CCE7064B002BF9D09847F7E7BD
:1001A0000000000010000020C41B00080C0000200C
:1001B0000000000070402DE964609FE564509FE5F9
:1001C000066065E04661B0E10040A0130500000A4A
:1001D000014084E2043095E40FE0A0E113FF2FE139
:1001E000040056E1F9FFFF1A3C609FE53C509FE593
:1001F000066065E0720600FA4661B0E10040A013B7
:100200000500000A014084E2043095E40FE0A0E11B
:1002100013FF2FE1040056E1F9FFFF1A7040BDE81B
:100220001EFF2FE1281C0008281C00082C1C0008B9
:10023000281C0008F0B583B00026344671E0002D7C
:1002400000F0A180012D00D1CE68FF2B00F2AF801D
:100250008646FF2B00F2AE80A500DEF800200F27B7
:10026000AF4022EA070206FA05F52A43CEF800203D
:100270004A6812F0805F53D0634A956945F00105E2
:100280009561926902F001020192019AA508AF1CE2
:100290005E4A52F8272004F00307BF004FF00F0E0C
:1002A0000EFA07FE22EA0E02DFF870E1704500F058
:1002B00088800EF5806E704500F086800EF5806EA9
:1002C000704500F084800EF5806E704576D04FF05A
:1002D000040E0EFA07F73A4302354C4F47F8252033
:1002E0004A6812F4803F75D0494D2A681A432A6043
:1002F0004A6812F4003F73D0454D6A681A436A6039
:100300004A6812F4801F71D0414DAA681A43AA604E
:100310004A6812F4001F6FD03D4DEA681343EB604A
:1003200001340F2C6ED80122A2400B6813409A4270
:10033000F6D14D68122D30D00BD8022D2AD07FF681
:100340007EAF032D2FD0112D7FF47FAFCE68043602
:100350007BE7304FBD4216D00CD92F4FBD4212D093
:1003600007F58037BD420ED0A7F58017BD427FF458
:100370006CAF08E0A7F58017BD4204D007F58037C1
:10038000BD427FF462AF8D687DB1012D08D042611E
:1003900008265AE7CE68083657E7CE680C3654E789
:1003A0000261082651E700264FE704264DE700F1D9
:1003B000040E4EE7A4F10805AD004EE74FF0030E22
:1003C00087E74FF0000E84E74FF0010E81E74FF012
:1003D000020E7EE70E4D2A6822EA03022A6087E7B2
:1003E0000B4D6A6822EA03026A6089E7084DAA6831
:1003F00022EA0302AA608BE7054DEA6822EA0303BA
:10040000EB608DE703B0F0BD00100240000001403A
:1004100000040140000021100000311000080140DC
:1004200012B909040161704701617047054BA3FBD4
:10043000003080090138044B586000229A60052280
:100440001A607047D34D621010E000E0014B186055
:10045000704700BF00000020074AD36823F4E06320
:100460001B041B0C000200F4E060184340F0BF6066
:1004700040F40030D060704700ED00E030B4164B1F
:10048000DB68C3F30223C3F10704042C28BF042450
:100490001D1D062D17D9033B012505FA04F4013C67
:1004A0002140994005FA03F3013B1340194300280A
:1004B0000BDB0901C9B200F1604000F5614080F832
:1004C000001330BC70470023E6E700F00F0009017D
:1004D000C9B2024B1954F4E700ED00E014ED00E05E
:1004E000420900F01F00012303FA00F0014B43F81A
:1004F0002200704700E100E0842801D003307047FB
:100500000020704708B500F06FFC002008BDF0B572
:1005100085B00F46446805680669B0F90800FFF722
:10052000EBFF03AB019300903B46B2B22946204655
:1005300000F028FC012802D1039805B0F0BD00208E
:10054000FBE708B5034600B90123184600F0A0FDFB
:10055000002008BD08B500F051FE012801D001F0CF
:10056000F1F808BD0F4B1A6842F001021A60596891
:100570000D4A0A405A601A6822F0847222F48032CE
:100580001A601A6822F480221A605A6822F4FE0265
:100590005A604FF41F029A604FF00062034B9A605A
:1005A000704700BF001002400000FFF800ED00E0BF
:1005B000C36813F4005F01D00020704770B584B0A9
:1005C0000D460446C36823F4B05323F00C034A6875
:1005D000C9680A4329690A431343C360AB680269C7
:1005E00022F44052134303616B69426922F4407262
:1005F00013434361684600F041FA1C4B9C422AD0E9
:100600001B4B9C4229D01B4B9C4228D0002343B358
:10061000296849B303EB830303EB83038900B3FB2E
:10062000F1F1154EA6FB01356D092A0190B2642245
:1006300002FB151213013233A6FB0323C3F34F133E
:1006400003F0F002024492B203F00F0313449BB292
:10065000A360012006E0039BD9E7029BD7E7029B3A
:10066000D5E7002004B070BD0020FBE70038014052
:1006700000440040004800401F85EB5108B5074A80
:10068000136843F0100313600320FFF7E5FE00201A
:1006900000F004FA01F0CEF8002008BD002002406E
:1006A000034A1168034B1B780B441360704700BF6B
:1006B000740D002004000020014B1868704700BF33
:1006C0000000002008B5FFF7F7FF044B5B68C3F399
:1006D000C223034AD35CD84008BD00BF00100240CB
:1006E000001C00080F2303600B4B5A6802F0030242
:1006F00042605A6802F0F00282605A6802F4E062D6
:10070000C2605B68DB0803F4E0630361034B1B68B2
:1007100003F007030B607047001002400020024006
:100720007047FEE7FEE7FEE7FEE7704708B5FFF714
:1007300011FF08BD08B5024800F0FBFD08BD00BF71
:10074000780D002070477047124A12F0070F1ED034
:10075000D11D21F00701C1F5406313440A460E483C
:100760000260002141601344083B23F007030B485B
:10077000036059601960991A51601360084B196041
:10078000084B19604FF00042074B1A6070474FF456
:100790004063E4E72C000020380C002028000020F3
:1007A000340C0020300C00202C0C002010B4124B14
:1007B0001A6882421AD359685C18A04203D1406873
:1007C00001445960184641684418A24212D10B4CAA
:1007D0002468A2420CD05268114441601A68126821
:1007E0000260984200D0186010BC70471346DFE7E3
:1007F0000460F6E70260F4E7380C002028000020CF
:1008000070B5044600F02EFB3A4B1B68BBB13A4B67
:100810001B681C4263D1ACB1083414F0070F11D02F
:1008200024F00704083404F007035BB14FF05003D1
:1008300083F31188BFF36F8FBFF34F8FFEE7FFF78E
:1008400083FFE4E7002C4CD02C4B1B689C424AD819
:100850002B4B1D6801E02B4615466A68944202D96D
:100860002A68002AF7D1234A126895423DD01E68B3
:1008700008362A681A606B681B1B102B10D92819C0
:1008800010F0070F08D04FF0500383F31188BFF327
:100890006F8FBFF34F8FFEE743606C60FFF786FFFB
:1008A0006A6816490B689B1A0B60164909688B42E7
:1008B00001D214490B60104B1B6813436B6000237B
:1008C0002B6000F067FB16F0070F10D04FF05003BD
:1008D00083F31188BFF36F8FBFF34F8FFEE70026BE
:1008E000EFE70026EDE70026EBE70026E9E73046D4
:1008F00070BD00BF280000202C0C0020300C002010
:10090000380C0020340C002080B338B50446A0F128
:10091000080550F8042C164909680A4208D14FF01E
:10092000500383F31188BFF36F8FBFF34F8FFEE740
:1009300050F8080C40B14FF0500383F31188BFF317
:100940006F8FBFF34F8FFEE722EA010244F8042CB9
:1009500000F088FA54F8041C064A13680B4413602C
:100960002846FFF723FF00F015FB38BD704700BF96
:100970002C0C0020300C0020036813F0400F29D10C
:1009800010B4026822F47F4222F0BF020B684C6868
:1009900023438C682343CC6823430C6923434C696D
:1009A00023438C692343CC6923430C6A23431343B9
:1009B0000360436823F00403CA8A134343600B6A4D
:1009C000B3F5005F02D0012010BC70478B8C03612F
:1009D0000120F9E700207047034B5B68C3F3031362
:1009E000024AD35CD840704700100240F01B000858
:1009F000034B5B68C3F30223024AD35CD8407047C1
:100A000000100240001C0008034B5B68C3F3C223C4
:100A1000024AD35CD840704700100240001C000816
:100A20000B4B5B6803F480337BB1094B586800F4CF
:100A300000300130074BB3FBF0F0054B5B68C3F3AC
:100A40008343023303FB00F070470348F5E700BF20
:100A50000010024000127A0000093D0008B5054B65
:100A60005B6803F00C03082B02D1FFF7D9FF08BD28
:100A7000014808BD0010024000127A0010B504467B
:100A8000FFF7ECFF2060FFF7A7FF6060FFF7B0FF04
:100A9000A0606068FFF7B8FFE06010BD00B589B0E6
:100AA000002201461920FFF7E9FC1920FFF718FD85
:100AB000144B9A6942F400629A619B6903F40063E3
:100AC0000193019B02A903A8FFF70CFEFFF7FAFDB3
:100AD0000D4BA3FB00239B0C013B0C480C4A02600E
:100AE00040F2E732C260436000230361836000F09C
:100AF00019FD18B1012009B05DF804FB034800F0AE
:100B000008FCF8E70010024083DE1B43780D00204C
:100B1000002C01400A4B1B681B684BB901234BB9E1
:100B2000074B1B68DB68DB685A68064B1A60704726
:100B30000023F4E74FF0FF32024B1A60704700BF0A
:100B4000440C00201C0D002010B50446006BFFF77C
:100B5000DBFE2046FFF7D8FE10BD2DE9F0478046AA
:100B60009946089D099F0A9C266B02F18042013A32
:100B700006EB820626F0070600230F2B07D8C85C79
:100B8000E21882F83400CA5C0AB10133F5E70023A9
:100B900084F84330062D00D90625E56265644FF0E0
:100BA000000AC4F848A0201D00F0E0FC04F1180081
:100BB00000F0DCFC2461C5F10705A5616462C4F89E
:100BC0004CA084F850A04A464146304600F034FD1F
:100BD000206007B13C60BDE8F087000038B5002414
:100BE00007E004EB840293000E48184400F0B3FCC5
:100BF0000134062CF5D90C4D284600F0ACFC0B4C0A
:100C0000204600F0A8FC0A4800F0A5FC094800F0C6
:100C1000A2FC094800F09FFC084B1D60084B1C60BB
:100C200038BD00BF4C0C0020F00C0020040D00204B
:100C3000240D0020500D00203C0D0020440C00200D
:100C4000480C002010B5044600F01CFD204A136833
:100C5000013313601F4B1B68002B31D01E4B1B68E8
:100C60003BB91C4B1B68DA6AE36A9A4201D8194BFC
:100C70001C601A4A136801331360E36A01229A4028
:100C80001749086802430A6003EB83039A00211D99
:100C90001448104400F06DFC00F016FD0E4B1B686C
:100CA0006BB10C4B1B68DA6AE36A9A4207D24FF0C9
:100CB00080520D4B1A60BFF34F8FBFF36F8F10BD83
:100CC000044B1C601368012BD3D1FFF787FFD0E7DB
:100CD000D80C0020400C0020380D0020E80C00202B
:100CE000EC0C00204C0C002004ED00E070B5044634
:100CF0000E461D4B1D681D4B1868043000F05FFC4C
:100D000050B91A4B1B68DA6A012303FA02F2184938
:100D10000B6823EA02030B60B4F1FF3F13D02C44AD
:100D2000124B1B685C60A54216D8124B18680F4B1B
:100D30001968043100F029FC0F4B1B689C4201D25A
:100D40000D4B1C6070BD002EE9D0084B19680431B2
:100D50000A4800F00EFC70BD094B1868034B196877
:100D6000043100F012FC70BD640D0020400C002026
:100D7000EC0C0020440C00201C0D00203C0D002039
:100D8000480C00202DE9F04385B006460F46154675
:100D900098469000FFF734FD00B381465420FFF7DA
:100DA0002FFD0446B0B1C0F83090CCB100230393BE
:100DB00002940D9B01930C9B009343462A463946AF
:100DC0003046FFF7CAFE2046FFF73CFF012005B082
:100DD000BDE8F0834846FFF797FDE6E70024E4E727
:100DE0004FF0FF30F3E7000000B583B0174B0193DD
:100DF00000230093802216491648FFF7C3FF0128FD
:100E000005D0B0F1FF3F17D003B05DF804FB4FF001
:100E1000500383F31188BFF36F8FBFF34F8F4FF0F1
:100E2000FF320D4B1A6001220C4B1A6000220C4B52
:100E30001A6000F0B3FCE7E74FF0500383F311882A
:100E4000BFF36F8FBFF34F8FFEE700BF180D002079
:100E5000081C00083D1100081C0D0020380D002062
:100E6000640D0020024A136801331360704700BF0D
:100E7000E40C0020F8B53C4B1B68002B68D13B4BC1
:100E80001D6801351D60C5B9394B1B681B6843B12E
:100E90004FF0500383F31188BFF36F8FBFF34F8F71
:100EA000FEE7334A1168334B186810601960324A04
:100EB000136801331360FFF72DFE304B1B689D4212
:100EC0003AD200242E4B1B68DB6A03EB83039A00A3
:100ED0002C4B9B58012B40D901243EE00124244B8C
:100EE0001B681B6853B3002353BB214B1B68DB6893
:100EF000DE6873689D4228D3371D384600F05FFBDB
:100F0000B36A1BB106F1180000F059FBF36A012225
:100F10009A401D49086802430A6003EB83039A0064
:100F200039461848104400F024FBF26A144B1B6841
:100F3000DB6A9A42D2D2D2E70024D0E70123D3E77A
:100F40004FF0FF320D4B1A60BCE70C4A1360B9E753
:100F50000E4A13680133136000240D4B1B6803B164
:100F600001242046F8BD00BFE40C0020640D0020E1
:100F7000440C0020480C0020200D00201C0D0020F7
:100F8000400C00204C0C0020EC0C0020E00C002059
:100F9000680D002038B5354B1B6843B94FF050033E
:100FA00083F31188BFF36F8FBFF34F8FFEE700F01D
:100FB00069FB2E4B1A68013A1A601B68002B50D14E
:100FC0002B4B1B6823B9002400F07EFB204638BD64
:100FD0000024284B1B681BB3264BDB68DC6804F13C
:100FE000180000F0ECFA251D284600F0E8FAE36A44
:100FF00001229A402049086802430A6003EB8303F8
:101000009A0029461D48104400F0B3FAE26A1C4BCE
:101010001B68DB6A9A42DCD301221A4B1A60D8E7BC
:101020000CB1FFF777FD184B1C6874B9154B1B68A2
:10103000CBB14FF08052154B1A60BFF34F8FBFF307
:101040006F8F0124C0E7013C07D0FFF713FF002892
:10105000F9D001220B4B1A60F5E700220A4B1A6007
:10106000E4E70024B0E70024AEE700BFE40C002072
:10107000D80C0020240D0020EC0C00204C0C00208B
:10108000400C0020680D0020E00C002004ED00E082
:1010900010B5A8B10446104B1B6843B14FF0500384
:1010A00083F31188BFF36F8FBFF34F8FFEE7FFF716
:1010B000D9FE00212046FFF719FEFFF76BFF00E085
:1010C000002038B94FF08052044B1A60BFF34F8FA5
:1010D000BFF36F8F10BD00BFE40C002004ED00E0F3
:1010E000134B1B6813B310B5FFF7BCFE114B1C6804
:1010F000FFF750FF24B90E4B1B68002BF4D110BD35
:1011000000F0C0FA0B4BDB68DC68201D00F057FADA
:10111000094A1368013B1360054A1368013B1360D9
:1011200000F0D2FA2046FFF70FFDE4E7704700BF5A
:10113000DC0C0020500D0020D80C002008B5FFF773
:10114000CFFF064B1B68012BF9D94FF08052044B9F
:101150001A60BFF34F8FBFF36F8FF0E74C0C002086
:1011600004ED00E0204B1B68C3B900221F4B1A603E
:101170001F4B1B68B3FA83F3DBB2C3F11F0303EB0E
:1011800083018A001B498A5862B94FF0500383F3E8
:101190001188BFF36F8FBFF34F8FFEE70122134B10
:1011A0001A60704710B413489A00D418A100014483
:1011B0004C6864684C601A449100083108448442C9
:1011C0000AD003EB83039A000A4B13445B68DA6886
:1011D000094B1A6010BC7047606803EB83029100F2
:1011E000044A0A445060ECE7E40C0020680D00203B
:1011F000EC0C00204C0C0020400C0020054B1B6820
:1012000023B1054B1B681BB90220704701207047B2
:1012100000207047380D0020E40C0020F0B50D6868
:10122000C5F30F2595FAA5F2B2FA82F233E0A2F1E6
:1012300008044FF00113A34043F080634E681F0E73
:10124000C45993FAA3FEBEFA8EFE4FEA8E0E4FF0FB
:101250000F0C0CFA0EFE24EA0E0493FAA3FEBEFA5B
:101260008EFE4FEA8E0E06FA0EF63443C451C6685F
:101270001C0A26EA040E94FAA4F4B4FA84F40E6963
:1012800006FA04F44EEA0404C4604C68012C0FD042
:10129000092C0DD0013235FA02F337D001239340E7
:1012A0001D42F7D0072AC2D840F201139340C5E788
:1012B000C45993FAA3F6B6FA86F6B6004FF0030EB9
:1012C0000EFA06F624EA060E93FAA3F6B6FA86F6A6
:1012D000B6008C6804FA06F646EA0E06C651CC68DB
:1012E00093FAA3FEBEFA8EFE4FEA8E0E4FF0040C68
:1012F0000CFA0EFE26EA0E0693FAA3F3B3FA83F372
:101300009B0004FA03F33343C351C3E70120F0BD4C
:1013100070470268D36843F00103D3600268136822
:1013200043F0010313600020704770477047704717
:10133000704710B5044603681A6912F0020F11D005
:10134000DA6812F0020F0DD06FF002021A61012369
:10135000037703689B6913F0030F70D0FFF7E6FF74
:101360000023237723681A6912F0040F12D0DA6879
:1013700012F0040F0ED06FF004021A6102232377DB
:1013800023689B6913F4407F5FD02046FFF7CEFFB0
:101390000023237723681A6912F0080F12D0DA6845
:1013A00012F0080F0ED06FF008021A6104232377A1
:1013B0002368DB6913F0030F4ED02046FFF7B6FF1A
:1013C0000023237723681A6912F0100F12D0DA680D
:1013D00012F0100F0ED06FF010021A61082323775D
:1013E0002368DB6913F4407F3DD02046FFF79EFF62
:1013F0000023237723681A6912F0010F03D0DA68FB
:1014000012F0010F36D123681A6912F0800F03D051
:10141000DA6812F0800F34D123681A6912F0400F95
:1014200003D0DA6812F0400F32D123681A6912F043
:10143000200F03D0DA6812F0200F30D110BDFFF773
:1014400074FF2046FFF773FF8AE72046FFF76DFF22
:101450002046FFF76CFF9BE72046FFF766FF20461C
:10146000FFF765FFACE72046FFF75FFF2046FFF779
:101470005EFFBDE76FF001021A61204600F0E6FA58
:10148000C1E76FF080021A612046FFF75CF9C3E7FD
:101490006FF040021A612046FFF74AFFC5E76FF080
:1014A00020021A612046FFF74DF9C7E703681C4A7E
:1014B000904227D0B0F1804F24D0A2F594329042D0
:1014C00020D002F5806290421CD0154A90421ED076
:1014D000B0F1804F1BD0A2F59432904217D002F5A4
:1014E0008062904213D023F080034A691343036063
:1014F0008B68C3620B688362094B98420CD001234E
:101500004361704723F070034A681343DDE723F417
:101510004073CA681343E6E70B690363EFE700BF54
:10152000002C0140A8B110B5044690F83D305BB1E5
:10153000022384F83D30211D2068FFF7B7FF012307
:1015400084F83D30002010BD80F83C30FFF7E0FE0D
:10155000EEE70120704700F1080343604FF0FF32CF
:101560008260C3600361002303607047002303614E
:10157000704743684B609A688A609A6851609960C6
:101580000861036801330360704730B40D68B5F13A
:10159000FF3F02D000F1080202E0026904E01A46AF
:1015A00053681C68A542FAD253684B6099608A6000
:1015B0005160086103680133036030BC7047036900
:1015C0004268816891608268416851605A689042BF
:1015D00005D00022026118680138186070478268DF
:1015E0005A60F6E70B4B1B68B3F1FF3F08D04FF092
:1015F000500383F31188BFF36F8FBFF34F8FFEE764
:101600004FF0500383F31188BFF36F8FBFF34F8FF9
:10161000FEE700BF0800002006480068006880F36D
:10162000088862B661B6BFF34F8FBFF36F8F00DFDC
:1016300000BF000008ED00E04FF0807340F8043C6C
:1016400021F0010140F8081C034B40F80C3C40F825
:10165000202C4038704700BFE5150008000000004E
:10166000074B19680868B0E8F00F80F30988BFF3EA
:101670006F8F4FF0000080F311884EF00D0E704711
:10168000400C00204FF0500383F31188BFF36F8F9D
:10169000BFF34F8F0A4A136801331360012B0DD13A
:1016A000084B1B6813F0FF0F08D04FF0500383F373
:1016B0001188BFF36F8FBFF34F8FFEE7704700BFF6
:1016C0000800002004ED00E0094B1B6843B94FF00F
:1016D000500383F31188BFF36F8FBFF34F8FFEE783
:1016E000013B034A13600BB983F31188704700BFB5
:1016F00008000020000000000000000000000000C2
:10170000EFF30980BFF36F8F0D4B1A6820E9F00FDC
:1017100010602DE908404FF0500080F31188FFF76A
:1017200021FD4FF0000080F31188BDE808401968E2
:101730000868B0E8F00F80F30988BFF36F8F704737
:10174000400C002008B54FF0500383F31188BFF31D
:101750006F8FBFF34F8FFFF78DFB18B14FF08052A3
:10176000024B1A60002383F3118808BD04ED00E0EA
:10177000064B1B68064AA2FB03239B09013B054A53
:1017800013600722044B1A60704700BF000000205E
:10179000D34D621014E000E010E000E000B583B02B
:1017A0001F4B1A78D2B20192FF221A701B78DBB25B
:1017B0008DF803309DF8033003F05003194A13707D
:1017C0000722194B1A6009E0174A1368013B13609E
:1017D0009DF803305B00DBB28DF803309DF80330D9
:1017E00013F0800FF0D1104A13681B0203F4E0637A
:1017F0001360019BDBB20A4A13700C4B1A6842F467
:1018000070021A601A6842F070421A60FFF7B0FF67
:101810000022074B1A60FFF7FFFEFFF7E3FE00BF51
:1018200000E400E06C0D0020700D002020ED00E0D1
:101830000800002000B583B0204B9A6942F00102F5
:101840009A619B6903F001030193019B0320FEF75A
:1018500003FE002211466FF00B00FEF70FFE002280
:1018600011466FF00A00FEF709FE002211466FF0E4
:101870000900FEF703FE002211466FF00400FEF798
:10188000FDFD002211466FF00300FEF7F7FD002278
:101890000F216FF00100FEF7F1FD00220F214FF044
:1018A000FF30FEF7EBFD064A536823F0E06343F098
:1018B0008063536003B05DF804FB00BF001002407A
:1018C0000000014082B0064B9A6942F004029A611E
:1018D0009B6903F004030193019B02B0704700BFB2
:1018E0000010024030B591B01B4B9A6942F480520F
:1018F0009A619B6903F480530093009B4BF2B00301
:101900000193092302930323039300240494134DAA
:1019100001A92846FFF782FC44F240030193042307
:1019200002930DEB03012846FFF778FC06944FF471
:1019300082730793089409940A944FF480230B93BD
:101940000C940D940E940A230F9306A90448FFF7F4
:1019500013F811B030BD00BF001002400008014074
:101960000030014030B58DB01E4BDA6942F40032D0
:10197000DA61DB6903F400330093009B40F2044317
:101980000193092302930323039300240494164D27
:1019900001A92846FFF742FC40F6080301930423FF
:1019A00002930DEB03012846FFF738FC4FF4E133B7
:1019B00006930794089409940C230A930B940B4CF8
:1019C00006A92046FEF7F4FD236923F49043236122
:1019D000636923F02A036361E36843F40053E3601F
:1019E0000DB030BD0010024000080140004400402E
:1019F00010B584B04FF48053009301230193032367
:101A000003930024029469460F48FEF713FC07E095
:101A100001224FF480510C48FEF702FD07E001342B
:101A20000120FEF78EFD41F288339C42F0D042F255
:101A300010739C42F3D100224FF480510248FEF70C
:101A4000EFFC0024EBE700BF000C014008B5026882
:101A5000034B9A4200D008BDFEF722FEFBE700BF11
:101A6000002C0140FEE7000010B52D4B1A6822F053
:101A700007021A601B6813F0070F4BD1294A13683D
:101A800023F0F80343F080031360136843F001036D
:101A90001360244B1B6813F0020FFAD0214B5A68D5
:101AA00022F0F0025A605A6822F4E0625A605A68E2
:101AB00022F460525A605A6822F003025A60194BAD
:101AC0005B6813F00C0FFAD1174C2046FEF7AEFC02
:101AD000164A136843F0040313602046FEF7B6FC71
:101AE000134BDA68C2F30222C2F10703042B28BFAA
:101AF00004231946131D062B10D9033A01238B40EA
:101B0000013B03F00F0393401B01DBB2084A82F84C
:101B1000233010BDAE210748FFF7A4FF0022EDE7F8
:101B2000002002400010024000127A0010E000E0A5
:101B300000ED00E0101C000800B587B0FEF79EFD28
:101B4000FFF792FFFFF7BEFEFFF7CCFEFFF70AFF9D
:101B500001AC074D0FCD0FC42B682360002101A8F5
:101B6000FEF7D5FC034B1860FEF7CCFCFEE700BF88
:101B7000DC1B0008B80D0020002103E00B4B5B5874
:101B8000435004310A480B4B42189A42F6D30A4A92
:101B900002E0002342F8043B084B9A42F9D3FEF7D7
:101BA000E1FCFEF707FBFFF7C7FF7047301C00089A
:101BB000000000200C0000200C000020BC0D0020C4
:101BC000FEE70000F8B500BFF8BC08BC9E467047B1
:0C1BD000F8B500BFF8BC08BC9E4670478A
:101BDC001C1C0008F11900080000000000000000A7
:101BEC00800000000000000000000000010203045F
:101BFC0006070809000000000102030449444C4593
:101C0C00000000005372632F6D61696E2E6300003B
:0C1C1C0064656661756C745461736B0044
:041C28007D01000832
:041C2C005501000856
:0C1C300000A24A0401000000AAAAAAAA0F
:0400000508001B795B
:00000001FF
